S014000073706565644F664C696768742E7372656352
S11300000C945A000C9477000C9477000C947700AD
S11300100C9477000C9477000C9477000C94770080
S11300200C9477000C9477000C9477000C94770070
S11300300C9477000C9477000C9417020C947700BE
S11300400C9477000C94DA010C9477000C947700EC
S11300500C9477000C9477000C9477000C94770040
S11300600C9477000C9477000C9477000C94770030
S11300700C9477000C9477000C9477000C94770020
S11300800C9477000C94D8000C94AC010C94770079
S11300900C9477000C9477000C9477000C94770000
S11300A00C9477000C9477000C94BA020C947700AB
S11300B00C94770011241FBECFEFD8E0DEBFCDBF74
S11300C012E0A0E0B1E0EAE2F9E102C005900D928D
S11300D0A037B107D9F722E0A0E7B2E001C01D9232
S11300E0A53AB207E1F70E9432070C94930C0C94E2
S11300F0000084B1886284B981ED8CBD08958AE0E2
S11301008093910088EB9BE09093990080939800F2
S11301108AE397E090939B0080939A00E1E7F0E0F4
S113012080818660808310929500109294000895D7
S11301308FEF8AB988B9209A6B9A6A9A739A0E9447
S113014079000E947F000895E82FF0E0E958FD4F00
S1130150208181E090E002C0880F991F6A95E2F740
S113016082230895442389F0E62FF0E0ED5EFE4FEC
S1130170408121E030E0B90102C0660F771F8A9503
S1130180E2F7CB01842B80830895E62FF0E0ED5E47
S1130190FE4F408121E030E0B90102C0660F771FB5
S11301A08A95E2F7CB01809584238083089508958E
S11301B01F920F920FB60F9211242F933F934F93D8
S11301C05F936F937F938F939F93AF93BF93EF93BB
S11301D0FF9380917102833090F540917102E09118
S11301E07102F0E0ED5EFE4F2081277060E1269FF2
S11301F09001112481E090E0BC0102C0660F771FDA
S11302004A95E2F7262BA4E0B1E013962C931397BA
S11302101C9211961C92119730917102E091710217
S1130220F0E0ED5EFE4F20812873220F02C0880F9C
S1130230991F3A95E2F7822B12968C9333C0A4E06F
S1130240B1E013961C92139780917102E0917102B0
S1130250F0E0ED5EFE4F9081835021E030E0A90193
S113026002C0440F551F8A95E2F7977070E1979F7B
S1130270C0011124842B8C9390917102E09171023E
S1130280F0E0ED5EFE4F8081935002C0220F331FD9
S11302909A95E2F78873880F282B11962C9311975F
S11302A012961C928091710290E0019666E070E0D3
S11302B00E949E0880937102E0917202F0E0E65F72
S11302C0FE4FE081F0E0E95DFE4F808180930901FB
S11302D080917202811107C0E4E0F1E085818068B9
S11302E0858314820CC020917202215081E090E039
S11302F002C0880F991F2A95E2F780930801809124
S1130300720290E0019669E070E00E949E0880937A
S1130310720228987398289A739A289810927002F7
S1130320E091700281E08E0F80937002F0E0EC5F48
S1130330FE4F80818EBDFF91EF91BF91AF919F9150
S11303408F917F916F915F914F913F912F910F907A
S11303500FBE0F901F9018951F920F920FB60F9219
S113036011242F933F938F939F93EF93FF933FEF2A
S11303703AB917B8209171022E5F81E090E002C073
S1130380880F991F2A95E2F780958BB9E091710245
S1130390F0E086B18095E958FD4F80833BB9FF9129
S11303A0EF919F918F913F912F910F900FBE0F90DE
S11303B01F9018951F920F920FB60F9211248F93CE
S11303C0EF93FF9380917002863010F0289A0BC04F
S11303D0E091700281E08E0F80937002F0E0EC5F98
S11303E0FE4F80818EBDFF91EF918F910F900FBED4
S11303F00F901F901895CF93C82F8A3019F48DE071
S11304000E94FB01E0ECF0E0808185FFFDCFC0930A
S1130410C60080E090E0CF91089588E18093C10008
S113042086E08093C20083E38093C40008951F9202
S11304300F920FB60F9211248F939F93EF93FF9314
S113044080917302909174028630910509F44EC034
S113045030F48130910561F0039749F179C08E3011
S1130460910509F462C08034910509F463C070C039
S1130470E0917502F0917602EE0FFF1FE85AFD4FEE
S1130480808191819093870080938600E09175022A
S1130490F0917602EE0FFF1FE85AFD4F80819181A3
S11304A096958795909389008093880051C0E09138
S11304B07502F0917602EE0FFF1FE65AFD4F808120
S11304C091819093870080938600E0917502F0916A
S11304D07602EE0FFF1FE85AFD4F808191819695B9
S11304E08795909389008093880032C0E0917502CB
S11304F0F0917602EE0FFF1FE45AFD4F8081918147
S11305009093870080938600E0917502F0917602C3
S1130510EE0FFF1FE85AFD4F8081918196958795D4
S1130520909389008093880013C0109289001092E0
S113053088000EC010927602109275028FEF9FEF22
S1130540909374028093730285B58A7F85BD16BC2F
S11305508091730290917402019690937402809337
S11305607302FF91EF919F918F910F900FBE0F90A7
S11305701F9018951F920F920FB60F9211248F930C
S113058080918B02882329F080918B028150809383
S11305908B028F910F900FBE0F901F901895CF92E2
S11305A0DF92EF92FF920F931F93CF93DF93C0E0FC
S11305B01DECDBEAC19F612D112466956695CD9FE4
S11305C0812D112486958695982F990F890F880F70
S11305D040E02C2F281B822F0E94B200CF5FCE3127
S11305E049F780919902811167C06894FF24F3F858
S11305F01DECDBEA01E060918C0270918D0280E0D9
S11306000E94D70060918C0270918D0282E00E945A
S1130610D700C0E04C2F4170C19F612D1124669515
S11306206695CD9F812D112486958695982F990FD7
S1130630890F880F9C2F981B892F0E94B200CF5FCF
S1130640CE3141F72FEF84E39CE02150804090406D
S1130650E1F700C0000060E070E080E00E94D70095
S113066060E070E082E00E94D700C0E04C2F402799
S11306704170C19F612D112466956695CD9F812D92
S1130680112486958695982F990F890F880F2C2F02
S1130690281B822F0E94B200CF5FCE3139F78FEF33
S11306A094E32CE0815090402040E1F700C000002A
S11306B0FA94F110A0CF9CC020918E0230918F0249
S11306C080919002909191028217930728F00F2E47
S11306D0F3E0CF2EF02D01C0C12C6894DD24D2F8B4
S11306E0EC2CF12C87010D5F1F4F60919C027091DF
S11306F09D0280918E0290918F028617970739F0A0
S113070080919002909191026817790779F480E0C2
S11307100E94D70060E070E081E00E94D700609101
S11307209C0270919D0282E00E94D700E016F106BF
S113073084F012C041E06C2F8D2F0E94B200CF5F75
S1130740C530C1F7DF5F8D2F90E08017910714F05B
S113075003C0DC2DC0E0EECF8FEF94E32CE081509A
S113076090402040E1F700C0000080919C029091ED
S11307709D0220918E0230918F022817390739F09B
S113078020919002309191028217930779F460E0EE
S113079070E080E00E94D70060E070E081E00E9499
S11307A0D70060E070E082E00E94D700E016F10616
S11307B084F012C040E06C2F8D2F0E94B200CF5FF6
S11307C0C530C1F7DF5F8D2F90E08017910714F0DB
S11307D003C0DC2DC0E0EECF8FEF94E32CE081501A
S11307E090402040E1F700C00000DA94D1107DCFA2
S11307F0DF91CF911F910F91FF90EF90DF90CF90F9
S11308000895811111C080918E0290918F02680F1A
S1130810791F683E83E0780710F067EE73E0709309
S11308208F0260938E020895813081F4809190024A
S113083090919102680F791F683E83E0780710F069
S113084067EE73E070939102609390020895CF92E3
S1130850DF92EF92FF920F931F93CF93DF93C0E049
S11308601DECDBEAC19F612D112466956695CD9F31
S1130870812D112486958695982F990F890F880FBD
S113088041E02C2F281B822F0E94B200CF5FCE3173
S113089049F78FEF99E628E1815090402040E1F735
S11308A000C00000C0E01DECDBEAC19F612D1124F3
S11308B066956695CD9F812D112486958695982FF2
S11308C0990F890F880F40E09C2F981B892F0E9455
S11308D0B200CF5FCE3149F72FEF89E698E121507E
S11308E080409040E1F700C00000C0E01DECDBEA6E
S11308F0C19F612D112466956695CD9F812D11248C
S113090086958695982F990F890F880F41E02C2F93
S1130910281B822F0E94B200CF5FCE3149F78FEFA0
S113092094E32CE0815090402040E1F700C00000A7
S113093080917F0280938B021092A5001092A400F4
S113094085E08093A10080919902811105C0609196
S11309508C0270918D0204C060919C0270919D0282
S113096080E00E94D700CC24C394D12C5CC0609159
S11309708B0270E081E00E94D7008091990281305F
S113098079F460918E0270918F0280E00E94D7000A
S1130990609190027091910282E00E94D7004FC052
S11309A060918E0270918F0282E00E94D70047C04E
S11309B06C2F8D2F0E94A400882339F1C601002ECC
S11309C002C0880F991F0A94E2F7892BF1F440E0E2
S11309D06C2F8D2F0E94B20080919902811106C064
S11309E060919E0270E00E9401040FC0D33038F081
S11309F060919E0270E081E00E94010406C0609153
S1130A009E0270E080E00E940104CF5F0F5F1F4FE1
S1130A10C53071F6DF5F85E0E80EF11CD63019F0C1
S1130A208701C0E0C5CF80918B028111A0CF1092C5
S1130A30A10060E070E081E00E94D70004C0E12CD6
S1130A40F12CD0E0EDCFDF91CF911F910F91FF906A
S1130A50EF90DF90CF900895EF92FF920F931F9342
S1130A60CF93DF93C0E01DECDBEAC19F612D11241D
S1130A7066956695CD9F812D112486958695982F30
S1130A80990F890F880F40E09C2F981B892F0E9493
S1130A90B200CF5FCE3149F7C6E1D2E007E312E0FE
S1130AA00F2EF1E2EF2EF2E0FF2EF02D699141E0DE
S1130AB0F80181918F010E94B20060E083E00E94FE
S1130AC0A4008823D1F360E083E00E94A400811194
S1130AD0FACFCE15DF0551F761E080E00E94A40053
S1130AE08823D1F3DF91CF911F910F91FF90EF9065
S1130AF0089590E0909376028093750210927402A8
S1130B001092730285E085BD08953F924F926F92D3
S1130B107F928F929F92AF92BF92CF92DF92EF9289
S1130B20FF920F931F93CF93DF930E942C05109293
S1130B308F0210928E02109291021092900281E024
S1130B4080937E0280937D020F2EF6E9EF2EF2E071
S1130B50FF2EF02D02E812E0C3E9D2E00F2EF3E0FD
S1130B60CF2ED12CF02D0F2EF5E0AF2EB12CF02D81
S1130B700E941209B6010E949E0889930E941209DC
S1130B80B5010E949E08F80181938F010E94120909
S1130B90B6010E949E088D5F8A830E941209B501E6
S1130BA00E949E08F8018283CE15DF0509F7809123
S1130BB09B0280938B021092A5001092A40085E002
S1130BC08093A10060918C0270918D0280E00E945C
S1130BD0D7000F2EF3E0EF2EF12CF02D0F2EF5E0C1
S1130BE08F2E912CF02DA4C060918B0270E081E0D7
S1130BF00E94D70080919902813079F460918E022D
S1130C0070918F0280E00E94D700609190027091F1
S1130C10910282E00E94D70092C060918E0270918E
S1130C208F0282E00E94D7008AC03601E501F601F6
S1130C30608188810E94A400882309F463C04880ED
S1130C40F6013080133040F00E941209B7010E946F
S1130C509E088D5F8B8306C00E941209B7010E9413
S1130C609E0888830E941209B4010E949E08982F4E
S1130C70F30180838881481202C0391619F38091E8
S1130C809902811114C060917E0270E00E940104F7
S1130C9080917E020E94790590917E0280919A0251
S1130CA0981711F081E0890F80937E022BC01330D6
S1130CB0A8F060917D0270E081E00E9401048091BF
S1130CC07D020E94790590917D0280919A02981785
S1130CD011F081E0890F80937D0214C060917E023F
S1130CE070E080E00E94010480917E020E947905F8
S1130CF090917E0280919A02981711F081E0890FF9
S1130D0080937E021F5FFFEFCF1ADF0A8FEFA81ACE
S1130D10B80A163009F089CF80917E02823010F033
S1130D2080918B0280917D02823010F080918B0241
S1130D3080918B02811158CF1092A1000EC00F2E0A
S1130D40F3E9AF2EF2E0BF2EF02D0F2EF2E8CF2EF6
S1130D50F2E0DF2EF02D10E068CFDF91CF911F91EC
S1130D600F91FF90EF90DF90CF90BF90AF909F9046
S1130D708F907F906F904F903F9008950F931F93A3
S1130D80CF93DF93009751F18C01C0E0D0E060E095
S1130D9083E00E94A400811106C060E082E00E940A
S1130DA0A4008823B1F060E082E00E94A400809354
S1130DB0990290E001969F938F9388E391E09F932B
S1130DC08F930E9422090F900F900F900F9081E053
S1130DD006C021960C171D07D1F601C080E0DF91F3
S1130DE0CF911F910F910895CF93DF9360918C025F
S1130DF070918D0280E00E94D70060E070E081E095
S1130E000E94D70060919C0270919D0280E00E9434
S1130E10D7000E941209D0E011C041E06C2F8D2F41
S1130E200E94B20084E690E00E94BE06811108C0D0
S1130E30CF5FC63091F7DF5FD63059F3C1E0EDCF15
S1130E40DF91CF910895F999FECF92BD81BD60BD28
S1130E50FA9AF99A0895F999FECF92BD81BDF89A4C
S1130E6080B508950E9494080E9499080E949800F1
S1130E700E940D0289E191E09093A2028093A10265
S1130E808BE491E00E943809789484B1826284B939
S1130E9010928700109286001092890010928800A8
S1130EA0E0E8F0E0808182688083E1E8F0E080811E
S1130EB08A618083299882E084BD15BC9DE797BD33
S1130EC080936E0085E791E00E94380980E090E00D
S1130ED00E942B07C82F81E090E00E942B072C2F43
S1130EE030E0322F2227282B30938D0220938C025E
S1130EF082E090E00E942B07C82F83E090E00E94DC
S1130F002B072C2F30E0322F2227282B30939D02E1
S1130F1020939C0280E190E00E942B0780939B0227
S1130F2080E290E00E942B0780937F0280E590E0AE
S1130F300E942B0780939A0280E690E00E942B0780
S1130F4080939E0280E490E00E942B07C82F81E4E6
S1130F5090E00E942B072C2F30E0322F2227A9018A
S1130F60482BCA010E9417090E94120990789923FC
S1130F701CF401979F6F0196682F80E490E00E9413
S1130F8023070E941209907899231CF401979F6FFC
S1130F900196682F81E490E00E9423078DE891E098
S1130FA00E94380980919E021F928F9380919A0229
S1130FB01F928F9380917F021F928F9380919B0247
S1130FC01F928F9380919D028F9380919C028F93A7
S1130FD080918D028F9380918C028F9380EA91E0AF
S1130FE09F938F930E94220981E490E00E942B0733
S1130FF0C82F80E490E00E942B071F92CF931F928A
S11310008F938DED91E09F938F930E94220982E04C
S11310108093A0001092A1008093720089E09DE368
S11310209093A9008093A80078948DB79EB74496B6
S11310300FB6F8949EBF0FBE8DBF82EF91E00E9461
S113104038090E94F40688E092E00E9438090E9460
S113105085059FEF2EE944E2915020404040E1F79E
S113106000C000000E94270480919902811112C0DF
S113107080918E0290918F0220918C0230918D028A
S11310802817390738F590938D0280938C020E94BB
S1131090CF0220C080918E0290918F0220919C02F9
S11310A030919D022817390738F0409190025091F1
S11310B091022417350760F4209190023091910237
S11310C02817390708F49C0130939D0220939C0251
S11310D00E94CF025FEF8EE994E25150804090402D
S11310E0E1F700C00000A9CF7098689A0895699844
S11310F008950E9477080E947408089568980895D6
S11311000E947E082FEF8DE399E4215080409040A7
S1131110E1F700C000000E9474088FE39FE101978B
S1131120F1F700C0000008950E9480080E94790829
S113113008950E9477080E947E08089597FB072E61
S113114016F4009407D077FD09D00E94B20807FC7A
S113115005D03EF4909581959F4F089570956195C3
S11311607F4F0895AA1BBB1B51E107C0AA1FBB1FD9
S1131170A617B70710F0A61BB70B881F991F5A951F
S1131180A9F780959095BC01CD0108958F929F9207
S1131190AF92BF92CF92DF92EF92FF92CF93DF9301
S11311A0EC01688179818A819B81611571058105D2
S11311B0910521F464E279ED8BE597E02DE133EFBD
S11311C041E050E00E94F90B49015A019B01AC0136
S11311D0A7EAB1E40E94180C6B017C01ACEEB4EFF9
S11311E0A50194010E94260CDC01CB018C0D9D1DF0
S11311F0AE1DBF1DB7FF03C00197A109B048888386
S11312009983AA83BB839F77DF91CF91FF90EF905F
S1131210DF90CF90BF90AF909F908F9008950E94E1
S1131220C608089580E091E00E94C6080895A0E0F1
S1131230B0E08093000190930101A0930201B09368
S113124003010895A0E0B0E0E8E2F9E00C943B0C5F
S1131250AE014B5F5F4FFA0161917191AF018091D3
S1131260A1029091A2020E946809E2E00C94570C3A
S11312700F931F93CF93DF93E091A102F091A20209
S1131280238121FF1BC08C01D0E0C0E0F8018191D3
S11312908F016091A1027091A202DB011896ED9179
S11312A0FC911997882331F00995892B79F3DFEFA5
S11312B0CFEFECCF8AE00995892B19F08FEF9FEFE0
S11312C002C08D2F9C2FDF91CF911F910F91089514
S11312D0ABE0B0E0EEE6F9E00C942B0C6C017B0182
S11312E08A01FC0117821682838181FFCCC1CE0161
S11312F001963C01F6019381F70193FD859193FFDB
S113130081917F01882309F4BAC1853239F493FDB0
S1131310859193FF81917F01853229F4B60190E094
S11313200E945F0BE7CF912C212C312CFFE1F315A8
S1131330D8F08B3279F038F4803279F08332A1F42A
S1131340232D20611DC08D3261F0803369F4232D7B
S1131350216016C0832D8260382EE32DE4603E2E7A
S11313602AC0F32DF8601DC037FC2DC020ED280FD6
S11313702A3040F08E32B9F436FC81C1232D20642A
S1131380322E19C036FE06C08AE0989E200D112424
S1131390922E11C0EAE02E9E200D1124222EF32D50
S11313A0F0623F2E08C08C3621F4832D8068382EDD
S11313B002C0883641F4F70193FD859193FF819132
S11313C07F018111B3CF982F9F7D9554933028F4DA
S11313D00C5F1F4F9FE399830DC0833631F0833731
S11313E071F0833509F059C021C0F80180818983E7
S11313F00E5F1F4F88248394912C530113C028013E
S1131400F2E04F0E511CF801A080B18036FE03C0FB
S1131410692D70E002C06FEF7FEFC5010E94540B8D
S11314204C018201F32DFF773F2E16C0280122E0E4
S1131430420E511CF801A080B18036FE03C0692D14
S113144070E002C06FEF7FEFC5010E94490B4C01B1
S1131450F32DF0683F2E820133FC1BC0822D90E0F7
S113146088169906B0F4B60180E290E00E945F0B02
S11314702A94F4CFF50137FC859137FE81915F0101
S1131480B60190E00E945F0B21102A9421E0821A99
S113149091088114910471F7E8C0843611F08936FB
S11314A041F5F80137FE07C0608171818281938123
S11314B00C5F1F4F08C060817181072E000C880BE0
S11314C0990B0E5F1F4FF32DFF763F2E97FF09C038
S11314D090958095709561957F4F8F4F9F4FF068E1
S11314E03F2E2AE030E0A3010E949B0B882E861831
S11314F045C0853731F4232D2F7EB22E2AE030E00B
S113150025C0932D997FB92E8F36C1F018F48835F4
S113151079F0B5C0803719F0883721F0B0C0E92FD1
S1131520E061BE2EB4FE0DC0FB2DF460BF2E09C0D9
S113153034FE0AC0292F2660B22E06C028E030E00F
S113154005C020E130E002C020E132E0F801B7FE3E
S113155007C060817181828193810C5F1F4F06C037
S11315606081718180E090E00E5F1F4FA3010E94B3
S11315709B0B882E8618FB2DFF773F2E36FE0DC061
S1131580232D2E7FA22E891458F434FE0BC032FC76
S113159009C0832D8E7EA82E05C0B82CA32C03C0B1
S11315A0B82C01C0B92CA4FE0FC0FE01E80DF11D3A
S11315B08081803321F49A2D997EA92E09C0A2FE40
S11315C006C0B394B39404C08A2D867809F0B3940A
S11315D0A3FC11C0A0FE06C0B21488F4280C922CFF
S11315E09B180EC0B21460F4B60180E290E00E9431
S11315F05F0BB394F7CFB21418F42B1802C0982CD5
S1131600212CA4FE10C0B60180E390E00E945F0B81
S1131610A2FE17C0A1FC03C088E790E002C088E5E1
S113162090E0B6010CC08A2D867859F0A1FE02C064
S11316308BE201C080E2A7FC8DE2B60190E00E943B
S11316405F0B891438F4B60180E390E00E945F0BCD
S11316509A94F7CF8A94F301E80DF11D8081B601C5
S113166090E00E945F0B8110F5CF222009F442CE56
S1131670B60180E290E00E945F0B2A94F6CFF60157
S11316808681978102C08FEF9FEF2B96E2E10C9445
S1131690470CFC010590615070400110D8F780950B
S11316A090958E0F9F1F0895FC016150704001902A
S11316B00110D8F7809590958E0F9F1F08950F9372
S11316C01F93CF93DF93FB01238121FD03C08FEF91
S11316D09FEF2CC022FF16C046815781248135819B
S11316E04217530744F4A081B1819D012F5F3F4FFE
S11316F0318320838C93268137812F5F3F4F37833B
S1131700268314C08B01EC01FB010084F185E02DDC
S11317100995892BE1F6D80116968D919C9117971E
S1131720019617969C938E931697CE01DF91CF91D5
S11317301F910F910895FA01AA27283051F1203101
S113174081F1E8946F936E7F6E5F7F4F8F4F9F4F51
S1131750AF4FB1E03ED0B4E03CD0670F781F891F93
S11317609A1FA11D680F791F8A1F911DA11D6A0F61
S1131770711D811D911DA11D20D009F468943F9114
S11317802AE0269F11243019305D3193DEF6CF0113
S11317900895462F4770405D4193B3E00FD0C9F7D9
S11317A0F6CF462F4F70405D4A3318F0495D31FD46
S11317B04052419302D0A9F7EACFB4E0A695979599
S11317C0879577956795BA95C9F70097610571056F
S11317D008959B01AC010A2E0694579547953795B9
S11317E02795BA95C9F7620F731F841F951FA01D13
S11317F00895052E97FB1EF400940E94100C57FDCB
S113180007D00E94620C07FC03D04EF40C94100C19
S113181050954095309521953F4F4F4F5F4F089518
S113182090958095709561957F4F8F4F9F4F089548
S11318300E94840CA59F900DB49F900DA49F800DD1
S1131840911D11240895B7FF0C94180C0E94180CD4
S1131850821B930B08952F923F924F925F926F9247
S11318607F928F929F92AF92BF92CF92DF92EF922C
S1131870FF920F931F93CF93DF93CDB7DEB7CA1BAD
S1131880DB0B0FB6F894DEBF0FBECDBF09942A88D8
S1131890398848885F846E847D848C849B84AA8480
S11318A0B984C884DF80EE80FD800C811B81AA810D
S11318B0B981CE0FD11D0FB6F894DEBF0FBECDBFD8
S11318C0ED010895A1E21A2EAA1BBB1BFD010DC058
S11318D0AA1FBB1FEE1FFF1FA217B307E407F507DC
S11318E020F0A21BB30BE40BF50B661F771F881FB8
S11318F0991F1A9469F760957095809590959B014E
S1131900AC01BD01CF010895A29FB001B39FC001F6
S1131910A39F700D811D1124911DB29F700D811D17
S10D19201124911D0895F894FFCFDF
S113192A01000000FFFFFFFFFFFF0001020304059F
S113193A0607080000000000000000000200000082
S113194A00FB01000000003F065B4F666D7D077FC8
S113195A67777C395E7971005354415254494E4732
S113196A20256450206D6F64650A000A0A57656C65
S113197A636F6D6520746F2062617274656E646949
S113198A6E6720726F626F74204F532076657220DF
S113199A342E374200415544494F2054494D45524B
S11319AA53202620504F5254205345540045455045
S11319BA524F4D2056414C554553205345543A00F5
S11319CA485331503A202564200920485332503A6A
S11319DA20256420092052543A20256420092042F3
S11319EA543A2025642009204D4D41583A20256453
S11319FA2009204250433A202564200A0052414ECD
S1131A0A444F4D534545443A203078255825580AC1
S1131A1A0A005354415254494E47204154545241A6
S1131A2A4354204D4F4445005354415254494E4760
S1131A3A2047414D45000101010203030304050542
S1131A4A050101010203030304050505010202035A
S1131A5A0405050500000003020101030201010354
S1131A6A020104030202040302040403020203023D
S1131A7A0202030201000000C111D20FEE0E4D0D45
S1131A8ADA0B2F0BF709E108E8077707A706ED0534
S9030000FC
