:100000000C9461000C947E000C947E000C947E0095
:100010000C947E000C947E000C947E000C947E0068
:100020000C947E000C947E000C947E000C947E0058
:100030000C947E000C947E000C94B9020C947E000B
:100040000C947E000C947C020C947E000C947E0038
:100050000C947E000C947E000C947E000C947E0028
:100060000C947E000C947E000C947E000C947E0018
:100070000C947E000C947E000C947E000C947E0008
:100080000C947E000C947A010C944E020C947E0029
:100090000C947E000C947E000C947E000C947E00E8
:1000A0000C947E000C947E000C9463030C947E00F0
:1000B0000C947E00880DC10EFC0FB4106C11A712B9
:1000C0005F1311241FBECFEFD8E0DEBFCDBF12E01B
:1000D000A0E0B1E0EEEDF5E302C005900D92A83D81
:1000E000B107D9F723E0A8EDB2E001C01D92A73116
:1000F000B207E1F70E942B150C94ED1A0C94000046
:1001000084B1886284B981ED8CBD08958AE08093C2
:10011000910088EB9BE090939900809398008AE38C
:1001200097E090939B0080939A00E1E7F0E0808154
:1001300086608083109295001092940008958FEF4E
:100140008AB988B9209A6B9A6A9A739A0E94800039
:100150000E9486000895E82FF0E0EB51FD4F2081CA
:1001600081E090E002C0880F991F6A95E2F7822330
:100170000895442389F0E62FF0E0ED5EFE4F4081C4
:1001800021E030E0B90102C0660F771F8A95E2F7DF
:10019000CB01842B80830895E62FF0E0ED5EFE4FC7
:1001A000408121E030E0B90102C0660F771F8A95D7
:1001B000E2F7CB018095842380830895E62FF0E059
:1001C000ED5EFE4F208130E0A90102C055954795B4
:1001D0008A95E2F7CA01817099270895CF93DF933A
:1001E000EB0190E0AC01440F551F480F591F9B01D4
:1001F000ADECBCEC0E940C17FC01F695E795F6956A
:10020000E795F695E7959F01220F331FCF01880FE1
:10021000991F880F991F880F991F820F931F9E01A6
:10022000281B390BDA01A65FBE4F2C939F01ADEC62
:10023000BCEC0E940C179695879596958795969598
:1002400087959C01220F331F880F991F880F991FD4
:10025000880F991F820F931FE81BF90BDA01A55F26
:10026000BE4FEC939E013695279536952795ABE7C3
:10027000B4E10E940C17FC01F695E7959F01ADECE7
:10028000BCEC0E940C179695879596958795969548
:1002900087959C01220F331F880F991F880F991F84
:1002A000880F991F820F931FE81BF90BDA01A45FD7
:1002B000BE4FEC93DF91CF910895E82FF0E0E65F19
:1002C000FE4F608308951F93CF93DF93182FD0E0E4
:1002D0000BC0412F6C2F8D2F0E94B900CF5FC6300D
:1002E000C1F7DF5FD63011F0C0E0F3CFDF91CF91DF
:1002F0001F9108951F920F920FB60F9211242F9302
:100300003F934F935F936F937F938F939F93AF939D
:10031000BF93EF93FF938091D902833090F5409182
:10032000D902E091D902F0E0ED5EFE4F2081277006
:1003300060E1269F9001112481E090E0BC0102C0A1
:10034000660F771F4A95E2F7262BA4E0B1E01396DB
:100350002C9313971C9211961C9211973091D902ED
:10036000E091D902F0E0ED5EFE4F20812873220F6C
:1003700002C0880F991F3A95E2F7822B12968C9350
:1003800033C0A4E0B1E013961C9213978091D90278
:10039000E091D902F0E0ED5EFE4F9081835021E0C4
:1003A00030E0A90102C0440F551F8A95E2F797700B
:1003B00070E1979FC0011124842B8C939091D902F6
:1003C000E091D902F0E0ED5EFE4F8081935002C0D3
:1003D000220F331F9A95E2F78873880F282B119606
:1003E0002C93119712961C928091D90290E001965D
:1003F00066E070E00E94F2168093D902E091DA0282
:10040000F0E0E65FFE4FE081F0E0E95DFE4F8081C5
:10041000809309018091DA02811107C0E4E0F1E0E4
:1004200085818068858314820CC02091DA02215076
:1004300081E090E002C0880F991F2A95E2F780932F
:1004400008018091DA0290E0019669E070E00E9474
:10045000F2168093DA0228987398289A739A28984B
:100460001092D802E091D80281E08E0F8093D802DA
:10047000F0E0EC5FFE4F80818EBDFF91EF91BF9168
:10048000AF919F918F917F916F915F914F913F912C
:100490002F910F900FBE0F901F9018951F920F92E3
:1004A0000FB60F9211242F933F938F939F93EF9347
:1004B000FF933FEF3AB917B82091D9022E5F81E040
:1004C00090E002C0880F991F2A95E2F780958BB9BA
:1004D000E091D902F0E086B18095EB51FD4F808329
:1004E0003BB9FF91EF919F918F913F912F910F9089
:1004F0000FBE0F901F9018951F920F920FB60F927C
:1005000011248F93EF93FF938091D802863010F0DF
:10051000289A0BC0E091D80281E08E0F8093D80218
:10052000F0E0EC5FFE4F80818EBDFF91EF918F91E7
:100530000F900FBE0F901F901895CF93C82F8A3041
:1005400019F48DE00E949D02E0ECF0E0808185FFCF
:10055000FDCFC093C60080E090E0CF91089588E180
:100560008093C10086E08093C20083E38093C4003F
:1005700008951F920F920FB60F9211248F939F939D
:10058000EF93FF93219A81E080930B038091E10226
:100590009091E2028630910509F44EC030F481302A
:1005A000910561F0039749F17CC08E30910509F403
:1005B00062C08034910509F463C073C0E091E30226
:1005C000F091E402EE0FFF1FE154FD4F8081918115
:1005D0009093870080938600E091E302F091E4021B
:1005E000EE0FFF1FE154FD4F808191819695879515
:1005F000909389008093880054C0E091E302F091C9
:10060000E402EE0FFF1FEF53FD4F80819181909325
:10061000870080938600E091E302F091E402EE0F00
:10062000FF1FE154FD4F80819181969587959093AE
:1006300089008093880035C0E091E302F091E402E4
:10064000EE0FFF1FED53FD4F808191819093870046
:1006500080938600E091E302F091E402EE0FFF1F29
:10066000E154FD4F80819181969587959093890003
:100670008093880016C0109289001092880011C0E3
:100680001092E4021092E3028FEF9FEF9093E20248
:100690008093E10285B58A7F85BD16BC21981092B2
:1006A0000B038091E1029091E20201969093E202A5
:1006B0008093E102FF91EF919F918F910F900FBE78
:1006C0000F901F9018951F920F920FB60F92112442
:1006D0008F938091F902882329F08091F90281504B
:1006E0008093F9028F910F900FBE0F901F90189575
:1006F0002F923F924F925F926F927F928F92AF9222
:10070000BF92CF92DF92EF92FF921F93CF93DF932E
:1007100080E00E94630180910803882309F4EDC002
:100720002091FC023091FD028091FE029091FF0227
:100730002817390709F0DCC010920803DEC0742CBA
:100740006091FA027091FB0282E00E94EE006091DB
:10075000FA027091FB0280E00E94EE00E201812C1F
:100760001AC0A50141705078552334F44150510905
:100770004E6F5F6F4F5F5F4F612F882D0E94B900F2
:100780001F5F2FEFA21AB20A163059F783942196F1
:1007900086E0881619F05E0110E0E3CF8091070330
:1007A000882391F0219AE72DE370F0E0EE0FFF1F10
:1007B000E753FD4F80819181F60191838083969567
:1007C0008795F70191838083FFEF21EE84E0F1505C
:1007D00020408040E1F700C000009FEF491A590A0D
:1007E000E8E14E16510409F0AACF219896C00F2EC9
:1007F000F3E06F2EF02D01C0612C80E00E946301B8
:10080000212C312C0F2EF3E07F2EF02D760C0F2EA5
:10081000F6E8CF2ED12CF02D0F2EF8E8EF2EF12C8C
:10082000F02D522C6091FE027091FF028091FC022B
:100830009091FD026817790768F460E170E082E04A
:100840000E94EE006091FC027091FD0280E00E9427
:10085000EE0060C082E00E94EE0060E170E080E0A7
:100860000E94EE0057C0A50141705078552334F422
:10087000415051094E6F5F6F4F5F5F4F612F882D61
:100880000E94B9001F5FFFEFAF1ABF0A163059F779
:1008900021968394781419F05E0110E0E4CF8091E2
:1008A0000703882391F0219AE52DE370F0E0EE0F25
:1008B000FF1FE753FD4F80819181F6019183808373
:1008C00096958795F70191838083FFEF21EE84E071
:1008D000F15020408040E1F700C000009FEF291A4E
:1008E000390AE8E12E16310409F09BCF219815C092
:1008F0008217930708F480CF7ACF412C512C0F2E0A
:10090000F6E8CF2ED12CF02D0F2EF8E8EF2EF12C9B
:10091000F02D15CF862CE101BFCFDF91CF911F9134
:10092000FF90EF90DF90CF90BF90AF908F907F902F
:100930006F905F904F903F902F900895811111C05C
:100940008091FC029091FD02680F791F683E83E060
:10095000780710F067EE73E07093FD026093FC027D
:100960000895813081F48091FE029091FF02680F1A
:10097000791F683E83E0780710F067EE73E07093AC
:10098000FF026093FE02089590910703992359F0A6
:1009900090E09093E4028093E3021092E2021092BE
:1009A000E10285E085BD08952F923F924F925F92BC
:1009B0006F927F928F929F92AF92BF92CF92DF926F
:1009C000EF92FF920F931F93CF93DF93CDB7DEB7D4
:1009D0002B970FB6F894DEBF0FBECDBF10E00F2EE1
:1009E000F6E8CF2ED12CF02D0F2EF8E8EF2EF12CBB
:1009F000F02D012F0170802F0E9463018091070369
:100A00008823E1F0219AE02FF0E0EE0FFF1FE15480
:100A1000FD4F80819181D60111969C938E9396957E
:100A20008795F70191838083FFE72AE156E0F15033
:100A300020405040E1F700C0000021981F5F1630B1
:100A4000C1F68FEF94E3ACE081509040A040E1F715
:100A500000C000008091ED028093F90280E491E0F3
:100A60000E94A11780910803811105C06091FA02CC
:100A70007091FB0204C060910E0370910F0380E03F
:100A80000E94EE00FE01319686E0DF011D928A95FC
:100A9000E9F71092A5001092A400B091F902BF836B
:100AA00088248394912C44244394212CCAC04091DF
:100AB000F90250910B0380910703282F30E0C40105
:100AC000552311F080E090E0822393239401EF817D
:100AD000E41302C020E030E082239323892B91F1BC
:100AE000F091F902FF83219A8091F9028170888741
:100AF0001986E885F9853496EE0FFF1FE154FD4F06
:100B000080819181A6E8B0E011969C938E938091AC
:100B1000F90281708A871B86EA85FB853496EE0F81
:100B2000FF1FE154FD4F8081918196958795E8E8FC
:100B3000F0E0918380838FEA96E30197F1F700C09C
:100B4000000021986091F90270E081E00E94EE00BF
:100B500080910803882379F06091FC027091FD0276
:100B600080E00E94EE006091FE027091FF0282E040
:100B70000E94EE0077C06091FC027091FD0282E05D
:100B80000E94EE006FC0B02ED7015C90302E852DF4
:100B900090E0002E02C0959587950A94E2F7442DC7
:100BA0003C01B1E06B22772480FD422D6B2D8A2D14
:100BB0000E94B9006B2D8A2D0E94AB00882371F131
:100BC000672861F5842D0E94C404C40102C0880F07
:100BD000991F3A94E2F7582AF6015082F2E0FA158A
:100BE00088F480910803882369F020911003809194
:100BF000FE029091FF02820F911D9093FF0280935D
:100C0000FE020CC0209110038091FC029091FD0225
:100C1000820F911D9093FD028093FC020F5F1F4F86
:100C20000630110509F0AFCF6A2C63942FEFE21A5A
:100C3000F20A56E0651629F001E010E06701A62CE3
:100C4000A2CF8091F902811132CF62E183E00E944C
:100C50005D0162E184E00E945D0162E185E00E9445
:100C60005D0105C0CE0101967C01612CE5CF2B967C
:100C70000FB6F894DEBF0FBECDBFDF91CF911F91AD
:100C80000F91FF90EF90DF90CF90BF90AF909F902B
:100C90008F907F906F905F904F903F902F9008952E
:100CA0007F928F929F92AF92BF92CF92DF92EF92FC
:100CB000FF920F931F93CF93DF9380E00E94630115
:100CC000809108038823B1F10FEB12E0C0E00F2EF2
:100CD000F6E8CF2ED12CF02D0F2EF8E8EF2EF12CC8
:100CE000F02D4C2F417060E082E00E94B9008091AD
:100CF0000703882379F0219AF80180819181F60118
:100D000091838083F8018081918196958795F70181
:100D100091838083FFEF26E083E0F1502040804004
:100D2000E1F700C000002198CF5F0E5F1F4FC83071
:100D3000C1F635C00FEB12E0C0E00F2EF6E8CF2E63
:100D4000D12CF02D0F2EF8E8EF2EF12CF02D4C2F9A
:100D5000417060E083E00E94B9008091070388231E
:100D600079F0219AF80180819181F6019183808345
:100D7000F8018081918196958795F7019183808311
:100D8000FFEF26E083E0F15020408040E1F700C013
:100D900000002198CF5F0E5F1F4FC830C1F69FEF54
:100DA000ECEBFFE19150E040F040E1F700C00000C3
:100DB0000F2EFDE78F2EF2E09F2EF02D0F2EFEE975
:100DC000CF2EF2E0DF2EF02D712C0F2EF3E0EF2E60
:100DD000F12CF02D0F2EF5E6AF2EF1E0BF2EF02D09
:100DE00021C0F40161914F0141E089910E94B90055
:100DF00080169106B1F7872D0E94C404FFEF23ED02
:100E000080E3F15020408040E1F700C0000091E015
:100E1000E91AF1087394EBE0CE0ED11C4801F3E01F
:100E20007F16F1F0B70180E00E94EE00B70181E08B
:100E30000E94EE00B70182E00E94EE00FF92EF9266
:100E4000BF92AF920E948B1780E00E9463018401E1
:100E5000055F1F4F0F900F900F900F90E601C1CFCD
:100E6000DF91CF911F910F91FF90EF90DF90CF9086
:100E7000BF90AF909F908F907F9008952F923F9258
:100E80004F925F926F927F928F929F92AF92BF929A
:100E9000CF92DF92EF92FF920F931F93CF93DF9346
:100EA000CDB7DEB729970FB6F894DEBF0FBECDBF22
:100EB0000E9450068FE491E00E94A1171092FD025B
:100EC0001092FC021092FF021092FE0281E08093C9
:100ED000EC028093EB020F2EF1E0AF2EF3E0BF2E79
:100EE000F02D0F2EF0EFEF2EF2E0FF2EF02D0F2E53
:100EF000F4E06F2EF3E07F2EF02D87010F2EF3E04C
:100F00008F2E912CF02D0F2EF5E0CF2ED12CF02D21
:100F1000BA82A9820E947B17B4010E94F216E9816D
:100F2000FA818193FA83E9830E947B17B6010E94BC
:100F3000F2168F5FF80181938F010E947B17B40135
:100F40000E94F2168D5FE981FA8182830E947B17ED
:100F5000B6010E94F2168F5FF801828329813A81DF
:100F600026153705B9F680910A038093F90280911E
:100F7000F9021F928F938AE591E09F938F930E94CD
:100F80008B171092A5001092A4006091FA02709144
:100F9000FB0280E00E94EE003091F9023B830F904B
:100FA0000F900F900F900F2EF5E02F2E312CF02D7B
:100FB0000F2EF7E08F2EF3E09F2EF02DEAC1409127
:100FC000F90250910B0380910703282F30E081E054
:100FD00090E0552311F080E090E08223932321E0FC
:100FE00030E05B81541302C020E030E08223932381
:100FF000892B89F18091F9028B83219A8091F902E2
:1010000081708C831D82EC81FD813496EE0FFF1F71
:10101000E154FD4F808191819093870080938600F9
:101020008091F90281708E831F82EE81FF81349658
:10103000EE0FFF1FE154FD4F8081918196958795BA
:101040009093890080938800EFEAF6E33197F1F7F7
:1010500000C0000021986091F90270E081E00E94D8
:10106000EE0080910803813079F46091FC02709168
:10107000FD0280E00E94EE006091FE027091FF028E
:1010800082E00E94EE009AC16091FC027091FD0224
:1010900082E00E94EE0092C17A826982C884D9847B
:1010A000F3016081F60180810E94AB00882309F47E
:1010B000E9C0502E012F033048F00E947B1763E0F7
:1010C00070E00E94F21613E0180F07C00E947B1711
:1010D00063E070E00E94F216182F0E947B17B101A6
:1010E0000E94F2168F5FD701F501252D91911913FA
:1010F00004C09C91891301C0242D1196E815F905AF
:10110000A9F72223C1F2952D512E102F092FF60198
:101110005082E981FA8180838091080381114FC058
:101120006091EC0270E00E949E048091EC020E94AB
:10113000C4049091EC0280910903981711F081E0AA
:10114000890F8093EC0280910C0390910D034FE086
:10115000489F9001499F300D1124E8EAF0E080811A
:101160009181E4EAF0E040815181841B950B9093DA
:10117000F7028093F60282179307B0F48091F90288
:10118000815080930003E8EAF0E040815181809132
:10119000EE029091EF02840F951F821B930B9093A8
:1011A000F7028093F6026EC04091F902409300036B
:1011B000821B930B9093F7028093F60263C0133067
:1011C00008F44CC06091EB0270E081E00E949E0444
:1011D0008091EB020E94C4049091EB02809109037C
:1011E000981711F081E0890F8093EB0280910C0336
:1011F00090910D034FE0489F9001499F300D1124BD
:10120000E8EAF0E080819181E4EAF0E040815181F8
:10121000841B950B9093EF028093EE028217930745
:1012200090F44091F90241504093F802E8EAF0E06E
:1012300040815181840F951F821B930B9093EF0285
:101240008093EE021FC04091F9024093F802821B86
:10125000930B9093EF028093EE0214C06091EC0226
:1012600070E080E00E949E048091EC020E94C40421
:101270009091EC0280910903981711F081E0890F99
:101280008093EC021F5FFFEF6F1A7F0A2885398574
:101290002F5F3F4F39872887163009F0FDCE8091A8
:1012A000EC028230D0F0E8EAF0E080819181E4EA5B
:1012B000F0E0408151813091F90220910003321316
:1012C0000CC0841B950B2091F6023091F702281771
:1012D000390718F081E08093EC028091EB028230B4
:1012E00008F473C0E8EAF0E080819181E4EAF0E07C
:1012F000408151813091F9022091F802321365C08A
:10130000841B950B2091EE023091EF0228173907CC
:1013100008F45BC081E08093EB0257C08191298182
:10132000821304C08C913885831731F011968E1684
:101330009F06A1F7412F01C0402F688589810E9437
:10134000B90048854F5F4887463019F0D701F5014D
:10135000E5CF59815F5F5983563011F01886F6CF7B
:101360000F2EF6EFCF2EF2E0DF2EF02D8501FA8260
:10137000E982E981FA816191FA83E98341E0F80128
:1013800081918F010E94B90029813A81C216D3064A
:1013900081F78091F902811112CE62E183E00E940F
:1013A0005D0162E184E00E945D0162E185E00E94EE
:1013B0005D0189E691E00E94A1170BC0370110E0A2
:1013C00001E0412CB986A88667CE198210E001E0C1
:1013D000C5CF29960FB6F894DEBF0FBECDBFDF9103
:1013E000CF911F910F91FF90EF90DF90CF90BF9022
:1013F000AF909F908F907F906F905F904F903F90B5
:101400002F9008952F923F924F925F926F927F920A
:101410008F929F92AF92BF92CF92DF92EF92FF9204
:101420000F931F93CF93DF9300D000D0CDB7DEB7DB
:10143000009709F4BDC09A838983A12CB12C01E0E7
:1014400010E00F2EF6E88F2E912CF02D0F2EF8E8DD
:101450006F2E712CF02D60E083E00E94AB008111B3
:101460000DC060E082E00E94AB00282E811106C012
:101470008BED92E09C838B83312C8AC060E082E00C
:101480000E94AB008093080390E001969F938F9396
:1014900083E791E09F938F930E948B170F900F909B
:1014A0000F900F902224239484C0642D832D0E94DA
:1014B000AB00882309F44EC0EB81FC812081822F90
:1014C00090E0042C02C0959587950A94E2F780FD80
:1014D0004EC0C801042C02C0880F991F0A94E2F77D
:1014E000282BF701208380910703882341F1219A5B
:1014F0000E947B1787709078992324F40197886F56
:101500009F6F0196880F991FFC01E154FD4F808168
:101510009181F401918380838091F90280FBCC2436
:10152000C0F8D12CF6013496EE0FFF1FE154FD4FA9
:101530008081918196958795F30191838083FFEF58
:1015400029EF80E0F15020408040E1F700C000002A
:1015500021980DC0C801042C02C0880F991F0A945D
:10156000E2F78095EB81FC81908189238083FFEFF6
:101570004F1A5F0A26E04216510409F096CF3394C1
:101580008B819C8101969C838B8396E0391631F088
:1015900044244394512CEB80FC8087CFEFEFAE1AAC
:1015A000BE0A89819A818A159B0509F054CF01C032
:1015B000212C822D0F900F900F900F90DF91CF91E3
:1015C0001F910F91FF90EF90DF90CF90BF90AF9061
:1015D0009F908F907F906F905F904F903F902F9053
:1015E00008952F923F924F925F926F927F928F92C7
:1015F0009F92AF92BF92CF92DF92EF92FF920F93A2
:101600001F93CF93DF936091FA027091FB0282E007
:101610000E94EE0062E183E00E945D0162E184E0ED
:101620000E945D0162E185E00E945D0160910E0310
:1016300070910F0380E00E94EE000F2EF6E0AF2EB7
:10164000B12CF02D0F2EF5E0CF2ED12CF02DF12C5A
:101650000F2EFBEAEF2EF02D99249394D5E00E94F3
:101660007B1783709078992324F401978C6F9F6F78
:10167000019699278130910509F484C024F4892BBF
:1016800009F479C0ECCF8230910509F403C10397C6
:1016900009F479C1E4CF472C772019F08D2F8819F0
:1016A00001C0882D41E06C2F0E94B90088E592E0CE
:1016B0000E94020A811176C1839486E08812EBCFE2
:1016C000442D6F2D83E00E94B900A801417050782D
:1016D000552334F4415051094E6F5F6F4F5F5F4F98
:1016E0006F2D82E00E94B900CF5F0F5F1F4FC630A1
:1016F000A1F1812C8C2F8170782ECDCF472C7720B3
:1017000019F08D2F811B01C0812F4F2D6C2F0E944E
:10171000B90088E592E00E94020A811143C11F5F6F
:10172000163061F7A10141705078552334F44150CF
:1017300051094E6F5F6F4F5F5F4F6F2D83E00E94C7
:10174000B900442D6F2D82E00E94B900CF5F8FEF6A
:10175000281A380AC63031F40AC06894222421F8C5
:10176000312CC1E010E08C2F8170782EC7CF6A94A5
:10177000611004C074CF6894662461F802E010E040
:10178000C1E0B7CF00E00E947B17B5010E94F216BE
:10179000882E0E947B17B6010E94F21611E0180FE6
:1017A000612F882D0E94DE00492D892B09F04F2DD5
:1017B000612F882D0E94B90084E091E00E94020A06
:1017C0008111F0C00E9D812D1124869586958695F8
:1017D000982F990F890F880F880F08131FC00E9D2F
:1017E000412D1124142F169516951695412F4170F1
:1017F0006F2D83E00E94B900412F50E04F5F5F4F93
:1018000041705078552334F4415051094E6F5F6F49
:101810004F5F5F4F6F2D82E00E94B9000F5F083D60
:1018200009F0B1CF1CCF572C772019F08D2F8C1BCE
:1018300001C08C2F41E0662D0E94B900CF5FC630F9
:1018400091F7452D6F2D83E00E94B900A8014170EA
:101850005078552334F4415051094E6F5F6F4F5FFC
:101860005F4F6F2D82E00E94B90063940F5F1F4F9E
:1018700086E0681629F0C0E0862D8170782ED3CFDF
:1018800088EE93E00E94020A81118CC04A944110B4
:1018900005C0E5CE0F2EF8E14F2EF02D02E010E04E
:1018A00066246394E8CF80FE02C0852D01C0842D9C
:1018B00041E0682D0E94B90088E592E00E94020A8A
:1018C000811170C0839486E08812EDCF472D41705E
:1018D0006F2D83E00E94B900A80141705078552314
:1018E00034F4415051094E6F5F6F4F5F5F4F6F2D62
:1018F00082E00E94B90073940F5F1F4F86E0781654
:10190000A9F188248394472C5D2E5718CCCF80FEF4
:1019100002C0852D01C0842D4F2D682D0E94B90075
:1019200088E592E00E94020A81113CC0839486E01F
:101930008812EDCFA80141705078552334F44150FE
:1019400051094E6F5F6F4F5F5F4F6F2D83E00E94B5
:10195000B900472D41706F2D82E00E94B900739449
:101960000F5F1F4F86E0781204C009C001E010E04D
:10197000712C88248394472C5D2E5718C8CF6A9405
:10198000611004C06CCE6894662461F801E010E038
:10199000712CB7CF60E18C2F0E945D01CF5FC93001
:1019A000C9F702C0C0E0F6CFDF91CF911F910F9130
:1019B000FF90EF90DF90CF90BF90AF909F908F906F
:1019C0007F906F905F904F903F902F900895F9997E
:1019D000FECF92BD81BD60BDFA9AF99A08953F92FB
:1019E0004F925F926F927F928F929F92AF92BF922F
:1019F000CF92DF92EF92FF920F931F93CF93DF93DB
:101A0000219AA6E8B0E061EC71E111967C936E93A7
:101A1000E8E8F0E040EE58E0518340831FEF21EE0C
:101A200084E0115020408040E1F700C0000022ED2A
:101A30003FE011963C932E9389EE97E0918380834B
:101A4000CFEFD1EE14E0C150D0401040E1F700C01C
:101A5000000011967C936E93518340834FEF51EEBB
:101A600064E0415050406040E1F700C00000119632
:101A70003C932E93918380838FEF91EEC4E081504D
:101A80009040C040E1F700C00000219861E080E094
:101A90000E94AB008111FACFDFEFE0E7F2E0D15016
:101AA000E040F040E1F700C00000312CC4EAD0E093
:101AB0000F2EF6E8EF2EF12CF02D0F2EF2EDAF2EBB
:101AC000FFE0BF2EF02D08E810E00F2EF9EECF2E2C
:101AD000F7E0DF2EF02D0F2EFAE68F2EF8E19F2E85
:101AE000F02D0F2EFEEE4F2EFEE05F2EF02D0F2E6E
:101AF000F8EE6F2EF3E07F2EF02D832D90E08730EF
:101B0000910508F08AC6FC01E65AFF4F0C940617AF
:101B100063E188E00E945D0161E087E00E945D0171
:101B200062E186E00E945D0165E085E00E945D0162
:101B30006CE084E00E945D0161E083E00E945D0151
:101B40006091FA027091FB0280E00E94EE0041E099
:101B500062E082E00E94B90062E082E00E94AB0095
:101B6000882321F11092FB021092FA0260E070E0EB
:101B700080E00E94EE00219A8DE49DE0F7019183C0
:101B8000808386EA96E0F80191838083FFE725EB66
:101B900041E0F15020404040E1F700C000002198B2
:101BA00062E082E00E94AB008111FACF63E081E045
:101BB0000E94AB00882309F46FC0198218824091FB
:101BC000FA025091FB024F5F5F4F9A0136952795BD
:101BD0003695279536952795A5ECB0E20E940C170F
:101BE000929582958F7089279F708927869D900195
:101BF000879D300D969D300D1124421B530B509341
:101C0000FB024093FA02219AF7015182408247E792
:101C100057E0F801518340838FE59AEE0197F1F781
:101C200000C00000219832C06091FA027091FB025E
:101C300080E00E94EE00888199818536994130F1DB
:101C40004091FA025091FB024F5F5F4F9A01369527
:101C500027953695279536952795A5ECB0E20E94F5
:101C60000C17929582958F7089279F708927869D82
:101C70009001879D300D969D300D1124421B530B12
:101C80005093FB024093FA029982888263E081E0DC
:101C90000E94AB008111C8CF64E081E00E94AB00DC
:101CA000882309F4BAC5198218824091FA0250912A
:101CB000FB0249515C4F9A01369527953695279539
:101CC00036952795A5ECB0E20E940C179295829567
:101CD0008F7089279F708927869D9001879D300D81
:101CE000969D300D1124421B530B5093FB024093E1
:101CF000FA02219AF701B182A082F801D182C08252
:101D00008FE59AEE0197F1F700C00000219832C0EC
:101D10006091FA027091FB0280E00E94EE008881DF
:101D200099818536994130F14091FA025091FB0238
:101D300049515C4F9A0136952795369527953695EA
:101D40002795A5ECB0E20E940C17929582958F70B2
:101D500089279F708927869D9001879D300D969DCC
:101D6000300D1124421B530B5093FB024093FA0297
:101D70009982888264E081E00E94AB008111C8CF23
:101D80004CC563E188E00E945D0161E087E00E944C
:101D90005D0162E186E00E945D0165E085E00E94F0
:101DA0005D016CE084E00E945D0162E083E00E94DE
:101DB0005D0160910E0370910F0380E00E94EE00C0
:101DC00041E062E082E00E94B90062E082E00E94AD
:101DD000AB00882331F110920F0310920E03609133
:101DE000FA027091FB0280E00E94EE00219A8DE4DD
:101DF0009DE0F7019183808386EA96E0F801918364
:101E00008083FFE725EB41E0F15020404040E1F7BF
:101E100000C00000219862E082E00E94AB008111C6
:101E2000FACF63E081E00E94AB00882309F46FC021
:101E30001982188240910E0350910F034F5F5F4F3C
:101E40009A01369527953695279536952795A5ECD1
:101E5000B0E20E940C17929582958F7089279F702F
:101E60008927869D9001879D300D969D300D112408
:101E7000421B530B50930F0340930E03219AF7011B
:101E80005182408247E757E0F801518340838FE554
:101E90009AEE0197F1F700C00000219832C06091DE
:101EA0000E0370910F0380E00E94EE0088819981FB
:101EB0008536994130F140910E0350910F034F5FE9
:101EC0005F4F9A0136952795369527953695279534
:101ED000A5ECB0E20E940C17929582958F7089272D
:101EE0009F708927869D9001879D300D969D300DAE
:101EF0001124421B530B50930F0340930E039982FE
:101F0000888263E081E00E94AB008111C8CF64E069
:101F100081E00E94AB00882309F47FC419821882F3
:101F200040910E0350910F0349515C4F9A01369531
:101F300027953695279536952795A5ECB0E20E9412
:101F40000C17929582958F7089279F708927869D9F
:101F50009001879D300D969D300D1124421B530B2F
:101F600050930F0340930E03219AF701B182A08290
:101F7000F801D182C0828FE59AEE0197F1F700C097
:101F80000000219832C060910E0370910F0380E031
:101F90000E94EE00888199818536994130F1409107
:101FA0000E0350910F0349515C4F9A0136952795C6
:101FB0003695279536952795A5ECB0E20E940C172B
:101FC000929582958F7089279F708927869D9001B1
:101FD000879D300D969D300D1124421B530B50935D
:101FE0000F0340930E039982888264E081E00E948F
:101FF000AB008111C8CF11C464E188E00E945D018B
:1020000065E187E00E945D016DE086E00E945D0170
:1020100060E185E00E945D0166E184E00E945D016F
:1020200065E183E00E945D0160910A0370E080E059
:102030000E94EE0041E062E082E00E94B90062E0AE
:1020400082E00E94AB00882319F188E280930A03A2
:1020500068E270E080E00E94EE00219A8DE49DE04D
:10206000F7019183808386EA96E0F801918380836B
:10207000FFE725EB41E0F15020404040E1F700C090
:102080000000219862E082E00E94AB008111FACF4B
:1020900063E081E00E94AB00882381F119821882FD
:1020A00080910A038F5F80930A03219AF70151827E
:1020B000408247E757E0F801518340838FE59AEE6D
:1020C0000197F1F700C00000219812C060910A0347
:1020D00070E080E00E94EE00888199818536994108
:1020E00038F080910A038F5F80930A039982888277
:1020F00063E081E00E94AB008111E8CF64E081E001
:102100000E94AB00882309F488C319821882809149
:102110000A03815080930A03219AF701B182A082B9
:10212000F801D182C0828FE59AEE0197F1F700C0E5
:102130000000219812C060910A0370E080E00E94C4
:10214000EE00888199818536994138F080910A03A3
:10215000815080930A039982888264E081E00E9422
:10216000AB008111E8CF59C36BE088E00E945D01AC
:1021700065E187E00E945D0165E086E00E945D0107
:1021800060E185E00E945D0166E184E00E945D01FE
:1021900065E183E00E945D016091ED0270E080E006
:1021A0000E94EE0041E062E082E00E94B90062E03D
:1021B00082E00E94AB00882319F183E08093ED0256
:1021C00063E070E080E00E94EE00219A8DE49DE0E3
:1021D000F7019183808386EA96E0F80191838083FA
:1021E000FFE725EB41E0F15020404040E1F700C01F
:1021F0000000219862E082E00E94AB008111FACFDA
:1022000063E081E00E94AB00882381F1198218828B
:102210008091ED028F5F8093ED02219AF701518248
:10222000408247E757E0F801518340838FE59AEEFB
:102230000197F1F700C00000219812C06091ED02F3
:1022400070E080E00E94EE00888199818536994196
:1022500038F08091ED028F5F8093ED029982888241
:1022600063E081E00E94AB008111E8CF64E081E08F
:102270000E94AB00882309F4D0C219821882809191
:10228000ED0281508093ED02219AF701B182A08284
:10229000F801D182C0828FE59AEE0197F1F700C074
:1022A0000000219812C06091ED0270E080E00E9471
:1022B000EE00888199818536994138F08091ED0250
:1022C00081508093ED029982888264E081E00E94CF
:1022D000AB008111E8CFA1C26EE088E00E945D01F1
:1022E00067E187E00E945D0161E086E00E945D0198
:1022F00066E185E00E945D016CE084E00E945D0182
:102300006CE083E00E945D0160910C0370910D030D
:1023100080E00E94EE0041E062E082E00E94B900AD
:1023200062E082E00E94AB00882331F187EE93E007
:1023300090930D0380930C0367EE73E080E00E949E
:10234000EE00219A8DE49DE0F7019183808386EA77
:1023500096E0F80191838083FFE725EB41E0F1509F
:1023600020404040E1F700C00000219862E082E098
:102370000E94AB008111FACF63E081E00E94AB00C4
:10238000882309F46FC01982188240910C03509180
:102390000D034F5F5F4F9A01369527953695279528
:1023A00036952795A5ECB0E20E940C179295829580
:1023B0008F7089279F708927869D9001879D300D9A
:1023C000969D300D1124421B530B50930D034093E7
:1023D0000C03219AF7015182408247E757E0F80148
:1023E000518340838FE59AEE0197F1F700C000001A
:1023F000219832C060910C0370910D0380E00E941F
:10240000EE00888199818536994130F140910C0325
:1024100050910D034F5F5F4F9A0136952795369582
:10242000279536952795A5ECB0E20E940C1792955A
:1024300082958F7089279F708927869D9001879D3F
:10244000300D969D300D1124421B530B50930D03FC
:1024500040930C039982888263E081E00E94AB0084
:102460008111C8CF64E081E00E94AB00882309F4A9
:10247000D4C11982188240910C0350910D03495127
:102480005C4F9A0136952795369527953695279571
:10249000A5ECB0E20E940C17929582958F70892767
:1024A0009F708927869D9001879D300D969D300DE8
:1024B0001124421B530B50930D0340930C03219A9C
:1024C000F701B182A082F801D182C0828FE59AEE35
:1024D0000197F1F700C00000219832C060910C0311
:1024E00070910D0380E00E94EE008881998185360D
:1024F000994130F140910C0350910D0349515C4FCB
:102500009A01369527953695279536952795A5EC0A
:10251000B0E20E940C17929582958F7089279F7068
:102520008927869D9001879D300D969D300D112441
:10253000421B530B50930D0340930C0399828882E6
:1025400064E081E00E94AB008111C8CF66C16BE0FE
:1025500088E00E945D0165E187E00E945D0165E021
:1025600086E00E945D0168E185E00E945D0166E110
:1025700084E00E945D0165E083E00E945D0160915E
:10258000100370E080E00E94EE0041E062E082E033
:102590000E94B90062E082E00E94AB00882319F13A
:1025A00082E08093100362E070E080E00E94EE0021
:1025B000219A8DE49DE0F7019183808386EA96E07D
:1025C000F80191838083FFE725EB41E0F150204043
:1025D0004040E1F700C00000219862E082E00E94E4
:1025E000AB008111FACF63E081E00E94AB00882349
:1025F00081F119821882809110038F5F80931003FC
:10260000219AF7015182408247E757E0F801518350
:1026100040838FE59AEE0197F1F700C00000219802
:1026200012C06091100370E080E00E94EE0088818B
:1026300099818536994138F0809110038F5F80939E
:1026400010039982888263E081E00E94AB008111CF
:10265000E8CF64E081E00E94AB00882309F4DDC08C
:102660001982188280911003815080931003219A5F
:10267000F701B182A082F801D182C0828FE59AEE83
:102680000197F1F700C00000219812C0609110037B
:1026900070E080E00E94EE00888199818536994142
:1026A00038F08091100381508093100399828882C2
:1026B00064E081E00E94AB008111E8CFAEC065E02C
:1026C00088E00E945D0165E187E00E945D016DE0A8
:1026D00086E00E945D0160E185E00E945D0160E1AD
:1026E00084E00E945D0160E183E00E945D016091F1
:1026F000070370E080E00E94EE0063E081E00E944A
:10270000AB00882309F442C0198218828091070324
:1027100090E0019681709078992324F401978E6F50
:102720009F6F019680930703219AF701518240829F
:1027300047E757E0F801518340838FE59AEE019710
:10274000F1F700C0000021981BC06091070370E002
:1027500080E00E94EE00888199818536994180F061
:102760008091070390E0019681709078992324F47A
:1027700001978E6F9F6F01968093070399828882DD
:1027800063E081E00E94AB008111DFCF64E081E073
:102790000E94AB00882309F440C0198218828091FE
:1027A000070390E0019681709078992324F40197B3
:1027B0008E6F9F6F019680930703219AF701B18274
:1027C000A082F801D182C0828FE59AEE0197F1F7DD
:1027D00000C0000021981BC06091070370E080E0FA
:1027E0000E94EE00888199818536994180F0809120
:1027F000070390E0019681709078992324F4019763
:102800008E6F9F6F0196809307039982888264E0A0
:1028100081E00E94AB008111DFCF41E064E080E005
:102820000E94B90041E064E082E00E94B90041E00A
:1028300063E081E00E94B90041E064E081E00E9431
:10284000B90041E061E080E00E94B90064E080E00E
:102850000E94AB008823B1F1832D90E0019667E0E0
:1028600070E00E94F216382E219A81EC91E1F70176
:102870009183808380EE98E0F80191838083FFE765
:1028800025EB41E0F15020404040E1F700C000005E
:10289000219864E080E00E94AB008111FACF219A78
:1028A000F701B182A082F801D182C082FFE725EB57
:1028B00041E0F15020404040E1F700C00000219885
:1028C0000E94630164E082E00E94AB008823B1F1C2
:1028D000832D90E0069667E070E00E94F216382E95
:1028E000219A81EC91E1F7019183808380EE98E059
:1028F000F80191838083FFE725EB41E0F150204010
:102900004040E1F700C00000219864E082E00E94AE
:10291000AB008111FACF219AF701B182A082F801B0
:10292000D182C082FFE725EB41E0F15020404040DA
:10293000E1F700C0000021980E94630161E080E09F
:102940000E94AB00882309F4D8C8219AA6E8B0E019
:102950002DE43DE011963C932E93E8E8F0E086EA02
:1029600096E0918380835FE765EBC1E05150604062
:10297000C040E1F700C000002198DFE715EB41E01F
:10298000D15010404040E1F700C00000219A11965C
:102990003C932E93918380835FE765EB81E05150F8
:1029A00060408040E1F700C0000021986091FB0288
:1029B00080E090E00E94E70C6091FA0281E090E0F4
:1029C0000E94E70C60910F0382E090E00E94E70C08
:1029D00060910E0383E090E00E94E70C60910A038F
:1029E00080E190E00E94E70C6091ED0280E290E0CF
:1029F0000E94E70C60910D0380E890E00E94E70CD4
:102A000060910C0381E890E00E94E70C609107035D
:102A100080E790E00E94E70C6091100380E690E070
:102A20000E94E70CDF91CF911F910F91FF90EF90E3
:102A3000DF90CF90BF90AF909F908F907F906F90DE
:102A40005F904F903F900895F999FECF92BD81BD60
:102A5000F89A80B508950E94E8160E94ED160E942B
:102A60009F000E94AF0289E191E09093140380934C
:102A7000130386E891E00E94A117789484B18262E2
:102A800084B91092870010928600109289001092EB
:102A90008800E0E8F0E0808182688083E1E8F0E08F
:102AA00080818A618083299882E084BD15BC9DE77E
:102AB00097BD80936E0080EB91E00E94A11780E0AB
:102AC00090E00E942415C82F81E090E00E94241518
:102AD0002C2F30E0322F2227282B3093FB0220931B
:102AE000FA0282E090E00E942415C82F83E090E073
:102AF0000E9424152C2F30E0322F2227282B3093D0
:102B00000F0320930E0380E190E00E942415809330
:102B10000A0380E290E00E9424158093ED0280E594
:102B200090E00E9424158093090380E690E00E94C3
:102B300024158093100380E790E00E942415809371
:102B4000070380E890E00E942415C82F81E890E0F8
:102B50000E9424152C2F30E0322F2227282B30936F
:102B60000D0320930C0380E490E00E942415C82FED
:102B700081E490E00E9424152C2F30E0322F222790
:102B8000A901482BCA010E9480170E947B179078E8
:102B900099231CF401979F6F0196682F80E490E0C1
:102BA0000E94E70C0E947B17907899231CF40197F0
:102BB0009F6F0196682F81E490E00E94E70C88ECFB
:102BC00091E00E94A11780910D038F9380910C03D7
:102BD0008F93809107031F928F93809110031F9210
:102BE0008F93809109031F928F938091ED021F9222
:102BF0008F9380910A031F928F9380910F038F937D
:102C000080910E038F938091FB028F938091FA0243
:102C10008F938BED91E09F938F930E948B1781E4AC
:102C200090E00E942415C82F80E490E00E942415B3
:102C30001F92CF931F928F938FE292E09F938F9377
:102C40000E948B178DE08093A10082E08093720038
:102C500089E09DE39093A9008093A80078948DB7B4
:102C60009EB748960FB6F8949EBF0FBE8DBFC0E0CA
:102C700062E18C2F0E945D01CF5FC930C9F761E02E
:102C800080E00E94AB0081110E94EF0CCEE0D3E007
:102C90000BE612E00F2EFAEFEF2EF2E0FF2EF02DF2
:102CA00084E492E00E94A1170E94F10A8DE592E06F
:102CB0000E94A1170E943E079FEFEEE9F4E29150B7
:102CC000E040F040E1F700C000000E94D404809191
:102CD0000803811129C08091FC029091FD0220918E
:102CE000FA023091FB022817390708F047C0909389
:102CF000FB028093FA029F938F931F930F930E947E
:102D00008B176091FB0280E090E00E94E70CF701D6
:102D1000608181E090E00E94E70C0E9478030F90B0
:102D20000F900F900F902AC08091FC029091FD02AD
:102D300020910E0330910F032817390738F0409186
:102D4000FE025091FF0224173507B0F42091FE02D5
:102D50003091FF022817390708F49C0130930F03C4
:102D600020930E03632F82E090E00E94E70C6881BD
:102D700083E090E00E94E70C0E947803FFEF2EE9C9
:102D800044E2F15020404040E1F700C0000088CF0D
:102D90007098689A0895699808950E94CB160E94C9
:102DA000C8160895689808950E94D2162FEF8DE3F3
:102DB00099E4215080409040E1F700C000000E945B
:102DC000C8168FE39FE10197F1F700C00000089556
:102DD0000E94D4160E94CD1608950E94CB160E9420
:102DE000D216089597FB072E16F4009407D077FDAE
:102DF00009D00E941B1707FC05D03EF490958195E1
:102E00009F4F0895709561957F4F0895EE0FFF1FB6
:102E10000590F491E02D0994A29FB001B39FC001E9
:102E2000A39F700D811D1124911DB29F700D811DF6
:102E30001124911D0895AA1BBB1B51E107C0AA1FB5
:102E4000BB1FA617B70710F0A61BB70B881F991F4B
:102E50005A95A9F780959095BC01CD0108958F9260
:102E60009F92AF92BF92CF92DF92EF92FF92CF9359
:102E7000DF93EC01688179818A819B8161157105FD
:102E80008105910521F464E279ED8BE597E02DE170
:102E900033EF41E050E00E94621A49015A019B0160
:102EA000AC01A7EAB1E40E94811A6B017C01ACEE8F
:102EB000B4EFA50194010E948F1ADC01CB018C0DA7
:102EC0009D1DAE1DBF1DB7FF03C00197A109B048EE
:102ED00088839983AA83BB839F77DF91CF91FF90EB
:102EE000EF90DF90CF90BF90AF909F908F9008951C
:102EF0000E942F17089580E091E00E942F170895F7
:102F0000A0E0B0E08093000190930101A093020142
:102F1000B09303010895A0E0B0E0E1E9F7E10C947B
:102F2000A41AAE014B5F5F4FFA0161917191AF013D
:102F300080911303909114030E94D117E2E00C9446
:102F4000C01A0F931F93CF93DF93E0911303F09177
:102F50001403238121FF1BC08C01D0E0C0E0F801E5
:102F600081918F016091130370911403DB01189616
:102F7000ED91FC911997882331F00995892B79F30C
:102F8000DFEFCFEFECCF8AE00995892B19F08FEFB7
:102F90009FEF02C08D2F9C2FDF91CF911F910F913A
:102FA0000895ABE0B0E0E7EDF7E10C94941A6C0102
:102FB0007B018A01FC0117821682838181FFCCC1CB
:102FC000CE0101963C01F6019381F70193FD8591B5
:102FD00093FF81917F01882309F4BAC1853239F4C6
:102FE00093FD859193FF81917F01853229F4B6018C
:102FF00090E00E94C819E7CF912C212C312CFFE1E1
:10300000F315D8F08B3279F038F4803279F08332CE
:10301000A1F4232D20611DC08D3261F0803369F44D
:10302000232D216016C0832D8260382EE32DE460AD
:103030003E2E2AC0F32DF8601DC037FC2DC020EDB8
:10304000280F2A3040F08E32B9F436FC81C1232D8E
:103050002064322E19C036FE06C08AE0989E200DEC
:103060001124922E11C0EAE02E9E200D1124222E52
:10307000F32DF0623F2E08C08C3621F4832D80683A
:10308000382E02C0883641F4F70193FD859193FFF5
:1030900081917F018111B3CF982F9F7D95549330FB
:1030A00028F40C5F1F4F9FE399830DC0833631F0E6
:1030B000833771F0833509F059C021C0F801808150
:1030C00089830E5F1F4F88248394912C530113C072
:1030D0002801F2E04F0E511CF801A080B18036FEAD
:1030E00003C0692D70E002C06FEF7FEFC5010E9441
:1030F000BD194C018201F32DFF773F2E16C0280128
:1031000022E0420E511CF801A080B18036FE03C0BF
:10311000692D70E002C06FEF7FEFC5010E94B21908
:103120004C01F32DF0683F2E820133FC1BC0822D31
:1031300090E088169906B0F4B60180E290E00E9413
:10314000C8192A94F4CFF50137FC859137FE819197
:103150005F01B60190E00E94C81921102A9421E075
:10316000821A91088114910471F7E8C0843611F035
:10317000893641F5F80137FE07C06081718182818F
:1031800093810C5F1F4F08C060817181072E000C76
:10319000880B990B0E5F1F4FF32DFF763F2E97FF85
:1031A00009C090958095709561957F4F8F4F9F4F87
:1031B000F0683F2E2AE030E0A3010E94041A882E16
:1031C000861845C0853731F4232D2F7EB22E2AE094
:1031D00030E025C0932D997FB92E8F36C1F018F4B9
:1031E000883579F0B5C0803719F0883721F0B0C044
:1031F000E92FE061BE2EB4FE0DC0FB2DF460BF2EA2
:1032000009C034FE0AC0292F2660B22E06C028E06D
:1032100030E005C020E130E002C020E132E0F801FA
:10322000B7FE07C060817181828193810C5F1F4F5F
:1032300006C06081718180E090E00E5F1F4FA301A6
:103240000E94041A882E8618FB2DFF773F2E36FE2B
:103250000DC0232D2E7FA22E891458F434FE0BC0EE
:1032600032FC09C0832D8E7EA82E05C0B82CA32C5D
:1032700003C0B82C01C0B92CA4FE0FC0FE01E80D9C
:10328000F11D8081803321F49A2D997EA92E09C0E9
:10329000A2FE06C0B394B39404C08A2D867809F0C8
:1032A000B394A3FC11C0A0FE06C0B21488F4280C8D
:1032B000922C9B180EC0B21460F4B60180E290E02C
:1032C0000E94C819B394F7CFB21418F42B1802C097
:1032D000982C212CA4FE10C0B60180E390E00E943F
:1032E000C819A2FE17C0A1FC03C088E790E002C085
:1032F00088E590E0B6010CC08A2D867859F0A1FED1
:1033000002C08BE201C080E2A7FC8DE2B60190E032
:103310000E94C819891438F4B60180E390E00E9435
:10332000C8199A94F7CF8A94F301E80DF11D8081B2
:10333000B60190E00E94C8198110F5CF222009F44F
:1033400042CEB60180E290E00E94C8192A94F6CFDE
:10335000F6018681978102C08FEF9FEF2B96E2E105
:103360000C94B01AFC010590615070400110D8F720
:10337000809590958E0F9F1F0895FC0161507040BD
:1033800001900110D8F7809590958E0F9F1F08959A
:103390000F931F93CF93DF93FB01238121FD03C084
:1033A0008FEF9FEF2CC022FF16C0468157812481EA
:1033B00035814217530744F4A081B1819D012F5FED
:1033C0003F4F318320838C93268137812F5F3F4F7E
:1033D0003783268314C08B01EC01FB010084F18547
:1033E000E02D0995892BE1F6D80116968D919C91D7
:1033F0001797019617969C938E931697CE01DF919F
:10340000CF911F910F910895FA01AA27283051F109
:10341000203181F1E8946F936E7F6E5F7F4F8F4F05
:103420009F4FAF4FB1E03ED0B4E03CD0670F781F64
:10343000891F9A1FA11D680F791F8A1F911DA11D49
:103440006A0F711D811D911DA11D20D009F4689482
:103450003F912AE0269F11243019305D3193DEF62A
:10346000CF010895462F4770405D4193B3E00FD0E0
:10347000C9F7F6CF462F4F70405D4A3318F0495DCB
:1034800031FD4052419302D0A9F7EACFB4E0A695AE
:103490009795879577956795BA95C9F700976105D0
:1034A000710508959B01AC010A2E06945795479526
:1034B00037952795BA95C9F7620F731F841F951F1B
:1034C000A01D0895052E97FB1EF400940E94791A02
:1034D00057FD07D00E94CB1A07FC03D04EF40C9482
:1034E000791A50954095309521953F4F4F4F5F4F3A
:1034F000089590958095709561957F4F8F4F9F4F60
:1035000008950E940C17A59F900DB49F900DA49F45
:10351000800D911D11240895B7FF0C94811A0E940B
:10352000811A821B930B08952F923F924F925F92C4
:103530006F927F928F929F92AF92BF92CF92DF92C3
:10354000EF92FF920F931F93CF93DF93CDB7DEB728
:10355000CA1BDB0B0FB6F894DEBF0FBECDBF0994BC
:103560002A88398848885F846E847D848C849B8413
:10357000AA84B984C884DF80EE80FD800C811B8121
:10358000AA81B981CE0FD11D0FB6F894DEBF0FBE50
:10359000CDBFED010895A1E21A2EAA1BBB1BFD01B0
:1035A0000DC0AA1FBB1FEE1FFF1FA217B307E40722
:1035B000F50720F0A21BB30BE40BF50B661F771F7A
:1035C000881F991F1A9469F760957095809590955A
:0E35D0009B01AC01BD01CF010895F894FFCF1F
:1035DE0001000000FFFFFFFFFFFF000102030405D3
:1035EE0006070800000000000000000002000000B6
:1035FE00009D02000000003F065B4F666D7D077F59
:10360E0067777C395E7971003E40765054781C7332
:10361E005354415254494E4720424F4E5553004742
:10362E00414D4520535441525400726F756E6420C3
:10363E0074696D652025640A0047414D61206F76DF
:10364E006172005354415254494E47202564502014
:10365E006D6F64650A000A0A57656C636F6D6520AD
:10366E00746F2062617274656E64696E6720726F2A
:10367E00626F74204F532076657220342E374200CD
:10368E00415544494F2054494D4552532026205010
:10369E004F52542053455400454550524F4D2056DD
:1036AE00414C554553205345543A00485331503AF6
:1036BE00202564200920485332503A2025642009E1
:1036CE002052543A20256420092042543A20256481
:1036DE002009204D4D41583A2025642009204250A2
:1036EE00433A202564200920534E443A2025642075
:1036FE0009204D756C54636B3A202564200A0052E4
:10370E00414E444F4D534545443A20307825582577
:10371E00580A0A000A0A0A5354415254494E472085
:10372E0041545452414354204D4F4445005354414B
:10373E005254494E472047414D45006E65772068EB
:10374E006967682073636F7265202564000101014B
:10375E00020303030405050501010102030303042B
:10376E00050505010202030405050500000003021C
:10377E000101030201010302010403020204030218
:10378E00040403020203020202030201000000C14C
:10379E0011D20FEE0E4D0DDA0B2F0BF709E108E8E3
:0837AE00077707A706ED0500EF
:00000001FF
