:100000000C945A000C9477000C9477000C947700B1
:100010000C9477000C9477000C9477000C94770084
:100020000C9477000C9477000C9477000C94770074
:100030000C9477000C9477000C9477000C94770064
:100040000C9477000C949F010C9477000C9477002B
:100050000C9477000C9477000C9477000C94770044
:100060000C9477000C9477000C9477000C94770034
:100070000C9477000C9477000C9477000C94770024
:100080000C9477000C94A4000C9478010C947700E5
:100090000C9477000C9477000C9477000C94770004
:1000A0000C9477000C9477000C9477000C947700F4
:1000B0000C94770011241FBECFEFD8E0DEBFCDBF78
:1000C00011E0A0E0B1E0EAEFF4E002C005900D928B
:1000D000A632B107D9F721E0A6E2B1E001C01D9236
:1000E000AF32B207E1F70E94C0010C947B020C947E
:1000F000000084B1886284B981ED8CBD08958AE0E6
:100100008093910084E79EE09093990080939800FB
:100110008AE397E090939B0080939A00E1E7F0E0F8
:1001200080818660808310929500109294000895DB
:100130008FE387B98FEF8BB984B1836084B90E9454
:1001400079000E947F0008951F920F920FB60F92C0
:1001500011242F933F934F935F936F937F938F93CC
:100160009F93AF93BF93EF93FF93809127018330C9
:1001700090F590912701E0912701F0E0E15FFE4FBB
:100180008081482F407F21E030E0B90102C0660F36
:10019000771F9A95E2F7CB01842BA0E0B1E08C9316
:1001A00080912701E0912701F0E0E15FFE4F90810F
:1001B00002C0220F331F8A95E2F770E1979FC001BA
:1001C0001124822B11968C93119712961C921297E0
:1001D00013961C9233C080912701E0912701F0E033
:1001E000E15FFE4F4081835021E030E0B90102C061
:1001F000660F771F8A95E2F7CB01942F907F892BAA
:10020000A0E0B1E012968C93129780912701E091C3
:100210002701F0E0E15FFE4F9081835002C0220F82
:10022000331F8A95E2F770E1979FC0011124822B5A
:1002300013968C9313971C9211961C928091270110
:1002400090E0019666E070E00E94530280932701DF
:10025000E0912801F0E0EA5FFE4FE081F0E0EB5E24
:10026000FE4F80818093050180912801811107C094
:10027000E0E0F1E085818068858314820CC02091E4
:100280002801215081E090E002C0880F991F2A9533
:10029000E2F7809304018091280190E0019669E0E3
:1002A00070E00E9453028093280128982998289A88
:1002B000299A289810922601E091260181E08E0F5C
:1002C00080932601F0E0E050FF4F80818EBDFF91CA
:1002D000EF91BF91AF919F918F917F916F915F91BE
:1002E0004F913F912F910F900FBE0F901F90189537
:1002F0001F920F920FB60F9211242F938F939F93FB
:10030000EF93FF932091270181E090E002C0880FD6
:10031000991F2A95E2F7809588B9E0912701F0E0CE
:1003200089B18095E75DFE4F8083FF91EF919F91AA
:100330008F912F910F900FBE0F901F9018951F92C5
:100340000F920FB60F9211248F93EF93FF9380912A
:100350002601863010F0289A0BC0E091260181E03A
:100360008E0F80932601F0E0E050FF4F80818EBD1C
:10037000FF91EF918F910F900FBE0F901F901895E6
:100380000E944B020E9450020E94980078942FEF26
:1003900081EE94E0215080409040E1F700C00000E1
:1003A0002FEF81EE94E0215080409040E1F700C0B3
:1003B00000002FEF81EE94E0215080409040E1F763
:1003C00000C000002FEF81EE94E02150804090406B
:1003D000E1F700C000002FEF81EE94E02150804053
:1003E0009040E1F700C000002FEF81EE94E0215033
:1003F00080409040E1F700C000002FEF81EE94E0D4
:10040000215080409040E1F700C000002FEF81EEC6
:1004100094E0215080409040E1F700C000002FEFB1
:1004200081EE94E0215080409040E1F700C0000050
:100430002FEF81EE94E0215080409040E1F700C022
:1004400000002FEF81EE94E0215080409040E1F7D2
:1004500000C000002FEF81EE94E0215080409040DA
:10046000E1F700C0000093CF21982FEF8DE399E4CE
:10047000215080409040E1F700C000002998219A67
:100480008FE39FE10197F1F700C0000008952098E5
:100490002998219A08950E9434020E9447020895E3
:1004A00020982198089597FB072E16F4009407D002
:1004B00077FD09D00E94670207FC05D03EF49095B5
:1004C00081959F4F0895709561957F4F0895AA1B60
:1004D000BB1B51E107C0AA1FBB1FA617B70710F02F
:1004E000A61BB70B881F991F5A95A9F78095909561
:0A04F000BC01CD010895F894FFCF80
:1004FA00AABBCCDDEEFF0001020304050607081AB9
:10050A002B3C4D5E6F3F065B4F666D7D077F6777BD
:06051A007C395E797100DE
:00000001FF
