:100000000C945A000C9477000C9477000C947700B1
:100010000C9477000C9477000C9477000C94770084
:100020000C9477000C9477000C9477000C94770074
:100030000C9477000C9477000C9446020C94770093
:100040000C9477000C94D1010C9477000C947700F9
:100050000C9477000C9477000C9477000C94770044
:100060000C9477000C9477000C9477000C94770034
:100070000C9477000C9477000C9477000C94770024
:100080000C9477000C94BB000C94A4010C947700A2
:100090000C9477000C9477000C9477000C94770004
:1000A0000C9477000C9477000C94E9020C94770080
:1000B0000C94770011241FBECFEFD8E0DEBFCDBF78
:1000C00011E0A0E0B1E0ECE6FCE002C005900D928A
:1000D000A036B107D9F721E0A0E6B1E001C01D923A
:1000E000A539B207E1F70E940E020C9434060C9475
:1000F000000084B1886284B981ED8CBD08958AE0E6
:100100008093910084E79EE09093990080939800FB
:100110008AE397E090939B0080939A00E1E7F0E0F8
:1001200080818660808310929500109294000895DB
:100130008FE387B98FEF8BB9209A6B9A6A9A739A7B
:100140008AB183708AB98BB18C6F8BB90E947900A8
:100150000E947F000895E62FF0E0E959FE4F4081AC
:1001600021E030E0B90102C0660F771F8A95E2F7FF
:10017000CB01842308951F920F920FB60F92112482
:100180002F933F934F935F936F937F938F939F939F
:10019000AF93BF93EF93FF9380916101833008F099
:1001A00059C020916101E0916101F0E0E15FFE4FF3
:1001B000308181E090E0AC0102C0440F551F2A95C8
:1001C000E2F760E1369F90011124242BA0E0B1E01A
:1001D0002C9320916101E0916101F0E0E15FFE4F1D
:1001E0003081AC0102C0440F551F2A95E2F760E14F
:1001F000369F90011124242B11962C931197209156
:100200006101E0916101F0E0E15FFE4F3081AC01FE
:1002100002C0440F551F2A95E2F760E1369F900116
:100220001124242B12962C93129730916101E091A6
:100230006101F0E0E15FFE4F208102C0880F991F4D
:100240003A95E2F740E1249F90011124822B139606
:100250008C9320C0A0E0B1E01C9211961C921197E3
:1002600080916101E0916101F0E0E15FFE4F9081DA
:10027000835021E030E002C0220F331F8A95E2F75D
:1002800060E1969FC0011124822B12968C931297E5
:1002900013961C928091610190E0019666E070E0F7
:1002A0000E94FE0280936101E0916201F0E0EA5F4A
:1002B000FE4FE081F0E0ED5DFE4F8081809305010F
:1002C00080916201811107C0E0E0F1E085818068E2
:1002D000858314820CC020916201215081E090E05E
:1002E00002C0880F991F2A95E2F78093040180913C
:1002F000620190E0019669E070E00E94FE02809346
:10030000620128987398289A739A2898109260012D
:10031000E091600181E08E0F80936001F0E0E05099
:10032000FF4F80818EBDFF91EF91BF91AF919F9163
:100330008F917F916F915F914F913F912F910F908E
:100340000FBE0F901F9018951F920F920FB60F922D
:1003500011242F938F939F93EF93FF93209161012B
:1003600081E090E002C0880F991F2A95E2F78095FE
:1003700088B9E0916101F0E089B190E080959095B5
:100380009595879595958795E959FE4F8083FF91BF
:10039000EF919F918F912F910F900FBE0F901F9013
:1003A00018951F920F920FB60F9211248F93EF930F
:1003B000FF9380916001863010F0289A0BC0E09185
:1003C000600181E08E0F80936001F0E0E050FF4F0C
:1003D00080818EBDFF91EF918F910F900FBE0F9096
:1003E0001F901895CF93C82F8A3019F48DE00E9482
:1003F000F201E0ECF0E0808185FFFDCFC093C60004
:1004000080E090E0CF91089588E18093C10086E07C
:100410008093C20083E38093C40008950E949800F3
:100420000E94040285E191E09093920180939101F2
:1004300084E391E00E943C0378940F2EF0E4EF2EC9
:10044000F1E0FF2EF02D00E010E01DC06C2F802F9A
:100450000E94AB00882371F0DF93CF931F930F931B
:10046000FF92EF920E9426030F900F900F900F9033
:100470000F900F902196C630D10541F70F5F1F4FA7
:100480000630110501F3C0E0D0E0E0CF1F920F92DB
:100490000FB60F9211248F939F93EF93FF93809148
:1004A0006301909164018630910509F44EC030F4E7
:1004B0008130910561F0039749F179C08E30910543
:1004C00009F462C08034910509F463C070C0E09102
:1004D0006501F0916601EE0FFF1FE85BFE4F808122
:1004E00091819093870080938600E0916501F0915F
:1004F0006601EE0FFF1FE85BFE4F808191819695AC
:100500008795909389008093880051C0E0916501A0
:10051000F0916601EE0FFF1FE65BFE4F8081918137
:100520009093870080938600E0916501F0916601C9
:10053000EE0FFF1FE85BFE4F8081918196958795B6
:10054000909389008093880032C0E0916501F0911A
:100550006601EE0FFF1FE45BFE4F80819181909357
:10056000870080938600E0916501F0916601EE0FAF
:10057000FF1FE85BFE4F8081918196958795909350
:1005800089008093880013C010928900109288001F
:100590000EC010926601109265018FEF9FEF90934D
:1005A00064018093630185B58A7F85BD16BC809107
:1005B00063019091640101969093640180936301BB
:1005C000FF91EF919F918F910F900FBE0F901F9011
:1005D00018951F920F920FB60F9211248F9380914E
:1005E0007B01882329F080917B01815080937B01DE
:1005F0008F910F900FBE0F901F90189597FB072EAD
:1006000016F4009407D077FD09D00E94120307FC6E
:1006100005D03EF4909581959F4F08957095619512
:100620007F4F0895AA1BBB1B51E107C0AA1FBB1F28
:10063000A617B70710F0A61BB70B881F991F5A956E
:10064000A9F780959095BC01CD010895A0E0B0E098
:10065000ECE2F3E00C940D06AE014B5F5F4FFA0144
:1006600061917191AF0180919101909192010E94ED
:100670006C03E2E00C9429060F931F93CF93DF9352
:10068000E0919101F0919201238121FF1BC08C0127
:10069000D0E0C0E0F80181918F01609191017091EB
:1006A0009201DB011896ED91FC911997882331F0A6
:1006B0000995892B79F3DFEFCFEFECCF8AE009952D
:1006C000892B19F08FEF9FEF02C08D2F9C2FDF91A8
:1006D000CF911F910F910895ABE0B0E0E2E7F3E016
:1006E0000C94FD056C017B018A01FC0117821682C6
:1006F000838181FFCCC1CE0101963C01F60193813B
:10070000F70193FD859193FF81917F01882309F47F
:10071000BAC1853239F493FD859193FF81917F01B0
:10072000853229F4B60190E00E946305E7CF912C51
:10073000212C312CFFE1F315D8F08B3279F038F40D
:10074000803279F08332A1F4232D20611DC08D32D7
:1007500061F0803369F4232D216016C0832D8260FF
:10076000382EE32DE4603E2E2AC0F32DF8601DC024
:1007700037FC2DC020ED280F2A3040F08E32B9F41E
:1007800036FC81C1232D2064322E19C036FE06C0EE
:100790008AE0989E200D1124922E11C0EAE02E9E30
:1007A000200D1124222EF32DF0623F2E08C08C362E
:1007B00021F4832D8068382E02C0883641F4F70179
:1007C00093FD859193FF81917F018111B3CF982F84
:1007D0009F7D9554933028F40C5F1F4F9FE39983BE
:1007E0000DC0833631F0833771F0833509F059C07D
:1007F00021C0F801808189830E5F1F4F8824839474
:10080000912C530113C02801F2E04F0E511CF80146
:10081000A080B18036FE03C0692D70E002C06FEF8A
:100820007FEFC5010E9458054C018201F32DFF772F
:100830003F2E16C0280122E0420E511CF801A08074
:10084000B18036FE03C0692D70E002C06FEF7FEF0C
:10085000C5010E944D054C01F32DF0683F2E820129
:1008600033FC1BC0822D90E088169906B0F4B601C7
:1008700080E290E00E9463052A94F4CFF50137FCF2
:10088000859137FE81915F01B60190E00E9463057A
:1008900021102A9421E0821A91088114910471F7A1
:1008A000E8C0843611F0893641F5F80137FE07C0FB
:1008B00060817181828193810C5F1F4F08C06081CC
:1008C0007181072E000C880B990B0E5F1F4FF32DC3
:1008D000FF763F2E97FF09C09095809570956195A2
:1008E0007F4F8F4F9F4FF0683F2E2AE030E0A301EB
:1008F0000E949F05882E861845C0853731F4232D28
:100900002F7EB22E2AE030E025C0932D997FB92E9C
:100910008F36C1F018F4883579F0B5C0803719F0FA
:10092000883721F0B0C0E92FE061BE2EB4FE0DC0C3
:10093000FB2DF460BF2E09C034FE0AC0292F2660AB
:10094000B22E06C028E030E005C020E130E002C051
:1009500020E132E0F801B7FE07C060817181828139
:1009600093810C5F1F4F06C06081718180E090E031
:100970000E5F1F4FA3010E949F05882E8618FB2D36
:10098000FF773F2E36FE0DC0232D2E7FA22E891419
:1009900058F434FE0BC032FC09C0832D8E7EA82E85
:1009A00005C0B82CA32C03C0B82C01C0B92CA4FEE0
:1009B0000FC0FE01E80DF11D8081803321F49A2DD6
:1009C000997EA92E09C0A2FE06C0B394B39404C0B8
:1009D0008A2D867809F0B394A3FC11C0A0FE06C04E
:1009E000B21488F4280C922C9B180EC0B21460F438
:1009F000B60180E290E00E946305B394F7CFB21491
:100A000018F42B1802C0982C212CA4FE10C0B6019B
:100A100080E390E00E946305A2FE17C0A1FC03C022
:100A200088E790E002C088E590E0B6010CC08A2D0E
:100A3000867859F0A1FE02C08BE201C080E2A7FCDB
:100A40008DE2B60190E00E946305891438F4B60186
:100A500080E390E00E9463059A94F7CF8A94F301B3
:100A6000E80DF11D8081B60190E00E9463058110C0
:100A7000F5CF222009F442CEB60180E290E00E9438
:100A800063052A94F6CFF6018681978102C08FEF25
:100A90009FEF2B96E2E10C941906FC010590615042
:100AA00070400110D8F7809590958E0F9F1F089584
:100AB000FC016150704001900110D8F7809590952D
:100AC0008E0F9F1F08950F931F93CF93DF93FB010A
:100AD000238121FD03C08FEF9FEF2CC022FF16C0A2
:100AE00046815781248135814217530744F4A08100
:100AF000B1819D012F5F3F4F318320838C932681ED
:100B000037812F5F3F4F3783268314C08B01EC0161
:100B1000FB010084F185E02D0995892BE1F6D801D0
:100B200016968D919C911797019617969C938E938C
:100B30001697CE01DF91CF911F910F910895FA0181
:100B4000AA27283051F1203181F1E8946F936E7F0C
:100B50006E5F7F4F8F4F9F4FAF4FB1E03ED0B4E0FD
:100B60003CD0670F781F891F9A1FA11D680F791F3E
:100B70008A1F911DA11D6A0F711D811D911DA11D4F
:100B800020D009F468943F912AE0269F112430195F
:100B9000305D3193DEF6CF010895462F4770405DFA
:100BA0004193B3E00FD0C9F7F6CF462F4F70405DA9
:100BB0004A3318F0495D31FD4052419302D0A9F704
:100BC000EACFB4E0A6959795879577956795BA95FE
:100BD000C9F700976105710508959B01AC010A2EC4
:100BE00006945795479537952795BA95C9F7620F9B
:100BF000731F841F951FA01D08952F923F924F923F
:100C00005F926F927F928F929F92AF92BF92CF929C
:100C1000DF92EF92FF920F931F93CF93DF93CDB7A5
:100C2000DEB7CA1BDB0B0FB6F894DEBF0FBECDBF1D
:100C300009942A88398848885F846E847D848C84EE
:100C40009B84AA84B984C884DF80EE80FD800C81F7
:100C50001B81AA81B981CE0FD11D0FB6F894DEBFDA
:0C0C60000FBECDBFED010895F894FFCF4A
:100C6C00AABBCCDDEEFF0001020304050607080059
:100C7C0000000000000000000200000000F2010073
:100C8C000000003F065B4F666D7D077F67777C3900
:100C9C005E79710048656C6C6F20576F726C6400E4
:100CAC0025642C2025640A00C111D20FEE0E4D0DC7
:100CBC00DA0B2F0BF709E108E8077707A706ED0514
:00000001FF
