S014000073706565644F664C696768742E7372656352
S11300000C9461000C947E000C947E000C947E0091
S11300100C947E000C947E000C947E000C947E0064
S11300200C947E000C947E000C947E000C947E0054
S11300300C947E000C947E000C94A9020C947E0017
S11300400C947E000C946C020C947E000C947E0044
S11300500C947E000C947E000C947E000C947E0024
S11300600C947E000C947E000C947E000C947E0014
S11300700C947E000C947E000C947E000C947E0004
S11300800C947E000C946A010C943E020C947E0045
S11300900C947E000C947E000C947E000C947E00E4
S11300A00C947E000C947E000C9453030C947E00FC
S11300B00C947E00590C920DCD0E850F3D107811D5
S11300C0301211241FBECFEFD8E0DEBFCDBF12E047
S11300D0A0E0B1E0E0E8F3E302C005900D92A03E99
S11300E0B107D9F723E0A0EEB2E001C01D92AF3111
S11300F0B207E1F70E94FC130C94BE190C940000A3
S113010084B1886284B981ED8CBD08958AE08093BE
S1130110910088EB9BE090939900809398008AE388
S113012097E090939B0080939A00E1E7F0E0808150
S113013086608083109295001092940008958FEF4A
S11301408AB988B9209A6B9A6A9A739A0E94800035
S11301500E9486000895E82FF0E0E351FD4F2081CE
S113016081E090E002C0880F991F6A95E2F782232C
S11301700895442389F0E62FF0E0ED5EFE4F4081C0
S113018021E030E0B90102C0660F771F8A95E2F7DB
S1130190CB01842B80830895E62FF0E0ED5EFE4FC3
S11301A0408121E030E0B90102C0660F771F8A95D3
S11301B0E2F7CB018095842380830895CF93DF9366
S11301C0EB0190E0AC01440F551F480F591F9B01F0
S11301D0ADECBCEC0E94F115FC01F695E795F695A3
S11301E0E795F695E7959F01220F331FCF01880FFE
S11301F0991F880F991F880F991F820F931F9E01C3
S1130200281B390BDA01A65FBE4F2C939F01ADEC7E
S1130210BCEC0E94F11596958795969587959695D1
S113022087959C01220F331F880F991F880F991FF0
S1130230880F991F820F931FE81BF90BDA01A55F42
S1130240BE4FEC939E013695279536952795ABE7DF
S1130250B4E10E94F115FC01F695E7959F01ADEC20
S1130260BCEC0E94F1159695879596958795969581
S113027087959C01220F331F880F991F880F991FA0
S1130280880F991F820F931FE81BF90BDA01A45FF3
S1130290BE4FEC93DF91CF910895E82FF0E0E65F35
S11302A0FE4F608308951F93CF93DF93182FD0E000
S11302B00BC0412F6C2F8D2F0E94B900CF5FC63029
S11302C0C1F7DF5FD63011F0C0E0F3CFDF91CF91FB
S11302D01F9108951F920F920FB60F9211242F931E
S11302E03F934F935F936F937F938F939F93AF93BA
S11302F0BF93EF93FF938091E102833090F5409197
S1130300E102E091E102F0E0ED5EFE4F2081277012
S113031060E1269F9001112481E090E0BC0102C0BD
S1130320660F771F4A95E2F7262BA4E0B1E01396F7
S11303302C9313971C9211961C9211973091E10201
S1130340E091E102F0E0ED5EFE4F20812873220F80
S113035002C0880F991F3A95E2F7822B12968C936C
S113036033C0A4E0B1E013961C9213978091E1028C
S1130370E091E102F0E0ED5EFE4F9081835021E0D8
S113038030E0A90102C0440F551F8A95E2F7977027
S113039070E1979FC0011124842B8C939091E1020A
S11303A0E091E102F0E0ED5EFE4F8081935002C0E7
S11303B0220F331F9A95E2F78873880F282B119622
S11303C02C93119712961C928091E10290E0019671
S11303D066E070E00E94D7158093E102E091E202AA
S11303E0F0E0E65FFE4FE081F0E0E95DFE4F8081E2
S11303F0809309018091E202811107C0E4E0F1E0F9
S113040085818068858314820CC02091E20221508A
S113041081E090E002C0880F991F2A95E2F780934B
S113042008018091E20290E0019669E070E00E9488
S1130430D7158093E20228987398289A739A28987B
S11304401092E002E091E00281E08E0F8093E002DE
S1130450F0E0EC5FFE4F80818EBDFF91EF91BF9184
S1130460AF919F918F917F916F915F914F913F9148
S11304702F910F900FBE0F901F9018951F920F92FF
S11304800FB60F9211242F933F938F939F93EF9363
S1130490FF933FEF3AB917B82091E1022E5F81E054
S11304A090E002C0880F991F2A95E2F780958BB9D6
S11304B0E091E102F0E086B18095E351FD4F808345
S11304C03BB9FF91EF919F918F913F912F910F90A5
S11304D00FBE0F901F9018951F920F920FB60F9298
S11304E011248F93EF93FF938091E002863010F0F4
S11304F0289A0BC0E091E00281E08E0F8093E00225
S1130500F0E0EC5FFE4F80818EBDFF91EF918F9103
S11305100F900FBE0F901F901895CF93C82F8A305D
S113052019F48DE00E948D02E0ECF0E0808185FFFB
S1130530FDCFC093C60080E090E0CF91089588E19C
S11305408093C10086E08093C20083E38093C4005B
S113055008951F920F920FB60F9211248F939F93B9
S1130560EF93FF93219A81E0809313038091E90232
S11305709091EA028630910509F44EC030F481303E
S1130580910561F0039749F17CC08E30910509F41F
S113059062C08034910509F463C073C0E091EB023A
S11305A0F091EC02EE0FFF1FE853FD4F8081918123
S11305B09093870080938600E091EB02F091EC0227
S11305C0EE0FFF1FE853FD4F80819181969587952B
S11305D0909389008093880054C0E091EB02F091DD
S11305E0EC02EE0FFF1FE653FD4F80819181909343
S11305F0870080938600E091EB02F091EC02EE0F0D
S1130600FF1FE853FD4F80819181969587959093C4
S113061089008093880035C0E091EB02F091EC02F0
S1130620EE0FFF1FE453FD4F80819181909387006B
S113063080938600E091EB02F091EC02EE0FFF1F35
S1130640E853FD4F80819181969587959093890019
S11306508093880016C0109289001092880011C0FF
S11306601092EC021092EB028FEF9FEF9093EA024C
S11306708093E90285B58A7F85BD16BC21981092C6
S113068013038091E9029091EA0201969093EA02A1
S11306908093E902FF91EF919F918F910F900FBE8C
S11306A00F901F9018951F920F920FB60F9211245E
S11306B08F9380910103882329F080910103815055
S11306C0809301038F910F900FBE0F901F90189588
S11306D02F923F924F925F926F927F928F92AF923E
S11306E0BF92CF92DF92EF92FF921F93CF93DF934B
S11306F080E00E94530180911003882309F4EDC027
S1130700209104033091050380910603909107031F
S11307102817390709F0DCC010921003DEC0742CCE
S1130720609102037091030382E00E94DE006091F5
S113073002037091030380E00E94DE00E201812C39
S11307401AC0A50141705078552334F44150510921
S11307504E6F5F6F4F5F5F4F612F882D0E94B9000E
S11307601F5F2FEFA21AB20A163059F7839421960D
S113077086E0881619F05E0110E0E3CF80910F0344
S1130780882391F0219AE72DE370F0E0EE0FFF1F2C
S1130790EE52FD4F80819181F6019183808396957D
S11307A08795F70191838083FFEF21EE84E0F15078
S11307B020408040E1F700C000009FEF491A590A29
S11307C0ECE04E16510409F0AACF219896C00F2EE2
S11307D0F3E06F2EF02D01C0612C80E00E945301E4
S11307E0212C312C0F2EF3E07F2EF02D760C0F2EC2
S11307F0F6E8CF2ED12CF02D0F2EF8E8EF2EF12CA9
S1130800F02D522C6091060370910703809104032C
S1130810909105036817790768F460E170E082E05D
S11308200E94DE00609104037091050380E00E9441
S1130830DE0060C082E00E94DE0060E170E080E0E3
S11308400E94DE0057C0A50141705078552334F44E
S1130850415051094E6F5F6F4F5F5F4F612F882D7D
S11308600E94B9001F5FFFEFAF1ABF0A163059F795
S113087021968394781419F05E0110E0E4CF8091FE
S11308800F03882391F0219AE52DE370F0E0EE0F39
S1130890FF1FEE52FD4F80819181F6019183808389
S11308A096958795F70191838083FFEF21EE84E08D
S11308B0F15020408040E1F700C000009FEF291A6A
S11308C0390AECE02E16310409F09BCF219815C0AB
S11308D08217930708F480CF7ACF412C512C0F2E26
S11308E0F6E8CF2ED12CF02D0F2EF8E8EF2EF12CB8
S11308F0F02D15CF862CE101BFCFDF91CF911F9151
S1130900FF90EF90DF90CF90BF90AF908F907F904B
S11309106F905F904F903F902F900895811111C078
S11309208091040390910503680F791F683E83E06A
S1130930780710F067EE73E0709305036093040387
S11309400895813081F48091060390910703680F24
S1130950791F683E83E0780710F067EE73E07093C8
S1130960070360930603089590910F03992359F0A8
S113097090E09093EC028093EB021092EA021092C2
S1130980E90285E085BD08952F923F924F925F92D0
S11309906F927F928F929F92AF92BF92CF92DF928B
S11309A0EF92FF920F931F93CF93DF93CDB7DEB7F0
S11309B02B970FB6F894DEBF0FBECDBF10E00F2EFD
S11309C0F6E8CF2ED12CF02D0F2EF8E8EF2EF12CD7
S11309D0F02D012F0170802F0E94530180910F038D
S11309E08823E1F0219AE02FF0E0EE0FFF1FE85397
S11309F0FD4F80819181D60111969C938E9396959B
S1130A008795F70191838083FFE72AE156E0F1504F
S1130A1020405040E1F700C0000021981F5F1630CD
S1130A20C1F68FEF94E3ACE081509040A040E1F731
S1130A3000C000008091F5028093010380E491E0FE
S1130A400E94721680911003811105C06091020307
S1130A507091030304C0609116037091170380E042
S1130A600E94DE00FE01319686E0DF011D928A9528
S1130A70E9F71092A5001092A400B0910103BF837E
S1130A8088248394912C44244394212CCAC04091FB
S1130A9001035091130380910F03282F30E0C40108
S1130AA0552311F080E090E0822393239401EF8199
S1130AB0E41302C020E030E082239323892B91F1D8
S1130AC0F0910103FF83219A80910103817088874B
S1130AD01986E885F9853496EE0FFF1FE853FD4F1C
S1130AE080819181A6E8B0E011969C938E938091C9
S1130AF0010381708A871B86EA85FB853496EE0F95
S1130B00FF1FE853FD4F8081918196958795E8E812
S1130B10F0E0918380838FEA96E30197F1F700C0B8
S1130B20000021986091010370E081E00E94DE00E2
S1130B3080911003882379F0609104037091050378
S1130B4080E00E94DE00609106037091070382E05A
S1130B500E94DE0077C0609104037091050382E077
S1130B600E94DE006FC0B02ED7015C90302E852D20
S1130B7090E0002E02C0959587950A94E2F7442DE3
S1130B803C01B1E06B22772480FD422D6B2D8A2D30
S1130B900E94B9006B2D8A2D0E94AB00882371F14D
S1130BA0672861F5842D0E94B404C40102C0880F33
S1130BB0991F3A94E2F7582AF6015082F2E0FA15A6
S1130BC088F480911003882369F0209118038091A0
S1130BD0060390910703820F911D9093070380935E
S1130BE006030CC02091180380910403909105031F
S1130BF0820F911D90930503809304030F5F1F4F91
S1130C000630110509F0AFCF6A2C63942FEFE21A76
S1130C10F20A56E0651629F001E010E06701A62CFF
S1130C20A2CF80910103811132CF62E183E00E945F
S1130C304D0162E184E00E944D0162E185E00E9481
S1130C404D0105C0CE0101967C01612CE5CF2B96A8
S1130C500FB6F894DEBF0FBECDBFDF91CF911F91C9
S1130C600F91FF90EF90DF90CF90BF90AF909F9047
S1130C708F907F906F905F904F903F902F9008954A
S1130C807F928F929F92AF92BF92CF92DF92EF9218
S1130C90FF920F931F93CF93DF9380E00E94530141
S1130CA0809110038823B1F108EC12E0C0E00F2E0C
S1130CB0F6E8CF2ED12CF02D0F2EF8E8EF2EF12CE4
S1130CC0F02D4C2F417060E082E00E94B9008091C9
S1130CD00F03882379F0219AF80180819181F6012C
S1130CE091838083F8018081918196958795F7019E
S1130CF091838083FFEF26E083E0F1502040804021
S1130D00E1F700C000002198CF5F0E5F1F4FC8308D
S1130D10C1F635C008EC12E0C0E00F2EF6E8CF2E85
S1130D20D12CF02D0F2EF8E8EF2EF12CF02D4C2FB6
S1130D30417060E083E00E94B90080910F03882332
S1130D4079F0219AF80180819181F6019183808361
S1130D50F8018081918196958795F701918380832D
S1130D60FFEF26E083E0F15020408040E1F700C02F
S1130D7000002198CF5F0E5F1F4FC830C1F69FEF70
S1130D80ECEBFFE19150E040F040E1F700C00000DF
S1130D900F2EF6E88F2EF2E09F2EF02D0F2EF7EA9D
S1130DA0CF2EF2E0DF2EF02D712C0F2EF3E0EF2E7C
S1130DB0F12CF02D0F2EFEE6AF2EF1E0BF2EF02D1C
S1130DC021C0F40161914F0141E089910E94B90071
S1130DD080169106B1F7872D0E94B404FFEF23ED2E
S1130DE080E3F15020408040E1F700C0000091E032
S1130DF0E91AF1087394EBE0CE0ED11C4801F3E03C
S1130E007F16F1F0B70180E00E94DE00B70181E0B7
S1130E100E94DE00B70182E00E94DE00FF92EF92A2
S1130E20BF92AF920E945C1680E00E94530184013D
S1130E30055F1F4F0F900F900F900F90E601C1CFE9
S1130E40DF91CF911F910F91FF90EF90DF90CF90A2
S1130E50BF90AF909F908F907F9008952F923F9274
S1130E604F925F926F927F928F929F92AF92BF92B6
S1130E70CF92DF92EF92FF920F931F93CF93DF9362
S1130E80CDB7DEB729970FB6F894DEBF0FBECDBF3E
S1130E900E9440068FE491E00E94721610920503AE
S1130EA010920403109207031092060381E08093CA
S1130EB0F4028093F3020F2EF9E0AF2EF3E0BF2E7D
S1130EC0F02D0F2EF8EFEF2EF2E0FF2EF02D0F2E67
S1130ED0FCE06F2EF3E07F2EF02D87010F2EF3E060
S1130EE08F2E912CF02D0F2EF5E0CF2ED12CF02D3E
S1130EF0BA82A9820E944C16B4010E94D715E981D6
S1130F00FA818193FA83E9830E944C16B6010E9408
S1130F10D7158F5FF80181938F010E944C16B4019D
S1130F200E94D7158D5FE981FA8182830E944C1655
S1130F30B6010E94D7158F5FF801828329813A8117
S1130F4026153705B9F68091120380930103809129
S1130F5001031F928F938AE591E09F938F930E94E0
S1130F605C161092A5001092A40060910203709187
S1130F70030380E00E94DE00309101033B830F9065
S1130F800F900F900F900F2EF3E02F2E312CF02D99
S1130F900F2EFFE08F2EF3E09F2EF02D18C240910C
S1130FA001035091130380910F03282F30E081E057
S1130FB090E0552311F080E090E08223932321E018
S1130FC030E05B81541302C020E030E0822393239D
S1130FD0892B89F1809101038B83219A80910103EC
S1130FE081708C831D82EC81FD813496EE0FFF1F8E
S1130FF0E853FD4F80819181909387008093860010
S11310008091010381708E831F82EE81FF8134966B
S1131010EE0FFF1FE853FD4F8081918196958795D0
S11310209093890080938800EFEAF6E33197F1F713
S113103000C0000021986091010370E081E00E94EB
S1131040DE0080911003813079F460910403709183
S1131050050380E00E94DE0060910603709107039F
S113106082E00E94DE00C8C1609104037091050310
S113107082E00E94DE00C0C17A826982C884D98479
S1131080F3016081F60180810E94AB00882309F49A
S11310900BC1502E012F033040F00E944C16B101B9
S11310A00E94D71513E0180F06C00E944C16B10118
S11310B00E94D715182F0E944C1665E070E00E941C
S11310C0D7158F5FD701F501252D9191191304C010
S11310D09C91891301C0242D1196E815F905A9F7EF
S11310E02223C9F2952D512E102F092FF60150827B
S11310F0E981FA81808380911003811142C060915B
S1131100F40270E00E948E048091F4020E94B40400
S11311109091F40280911103981711F081E0890FE6
S11311208093F40280911403909115034FE0489F3B
S11311309001499F300D1124E4EAF0E0408151818F
S1131140C901809590954817590728F480910103A7
S11311508093080305C080910103815080930803A4
S1131160E4EAF0E080819181E8EAF0E06081718155
S1131170820F931F0E94C3159093FF028093FE0277
S113118093C0133008F44EC06091F30270E081E024
S11311900E948E048091F3020E94B4049091F302A1
S11311A080911103981711F081E0890F8093F30265
S11311B080910103815080930003E4EAF0E0808190
S11311C091819093F7028093F60280911403909199
S11311D015034FE0489F9001499F300D1124408131
S11311E05181C901809590954817590728F4809139
S11311F001038093080305C080910103815080930B
S11312000803E4EAF0E080819181E8EAF0E060819B
S11312107181820F931F0E94C3159093FF028093E4
S1131220FE0242C06091F40270E080E00E948E04ED
S11312308091F4020E94B4049091F402809111030D
S1131240981711F081E0890F8093F40280911403C0
S1131250909115034FE0489F9001499F300D112450
S1131260E4EAF0E040815181C901809590954817E6
S1131270590728F4809101038093080305C08091E5
S11312800103815080930803E4EAF0E080819181B6
S1131290E8EAF0E060817181820F931F0E94C31518
S11312A09093FF028093FE021F5FFFEF6F1A7F0A85
S11312B0288539852F5F3F4F39872887163009F0F5
S11312C0DBCE8091F402823060F1E4EAF0E08081C8
S11312D091812091FF022F932091FE022F939F93DF
S11312E08F9389E691E09F938F930E945C1690916F
S11312F001030F900F900F900F900F900F9080911B
S1131300080398130EC0E4EAF0E020813181809153
S1131310FE029091FF022817390718F081E08093AC
S1131320F4028091F302823008F46DC090910103BD
S113133080910003981367C0E4EAF0E020813181D2
S11313408091F6029091F7022817390708F45BC0E0
S113135081E08093F30257C081912981821304C0F4
S11313608C913885831731F011968E169F06A1F75C
S1131370412F01C0402F688589810E94B9004885AA
S11313804F5F4887463019F0D701F501E5CF598101
S11313905F5F5983563011F01886F6CF0F2EFEEF9B
S11313A0CF2EF2E0DF2EF02D8501FA82E982E98169
S11313B0FA816191FA83E98341E0F80181918F0117
S11313C00E94B90029813A81C216D30681F780911F
S11313D001038111E4CD62E183E00E944D0162E1E9
S11313E084E00E944D0162E185E00E944D0182E7A4
S11313F091E00E9472160BC0370110E001E0412C0D
S1131400B986A88639CE198210E001E0C5CF2996A5
S11314100FB6F894DEBF0FBECDBFDF91CF911F9101
S11314200F91FF90EF90DF90CF90BF90AF909F907F
S11314308F907F906F905F904F903F902F90089582
S11314402F923F924F925F926F927F928F929F92D0
S1131450AF92BF92CF92DF92EF92FF920F931F93BE
S1131460CF93DF9300D000D0CDB7DEB7009709F457
S1131470BDC09A838983A12CB12C01E010E00F2E0A
S1131480F6E88F2E912CF02D0F2EF8E86F2E712C8C
S1131490F02D60E083E00E94AB0081110DC060E09C
S11314A082E00E94AB00282E811106C083EE92E0F8
S11314B09C838B83312C8AC060E082E00E94AB0065
S11314C08093100390E001969F938F938CE791E0B3
S11314D09F938F930E945C160F900F900F900F9024
S11314E02224239484C0642D832D0E94AB0088237E
S11314F009F44EC0EB81FC812081822F90E0042C02
S113150002C0959587950A94E2F780FD4EC0C80104
S1131510042C02C0880F991F0A94E2F7282BF701C4
S1131520208380910F03882341F1219A0E944C1655
S113153087709078992324F40197886F9F6F0196A0
S1131540880F991FFC01E853FD4F80819181F401BC
S1131550918380838091010380FBCC24C0F8D12C3B
S1131560F6013496EE0FFF1FE853FD4F8081918101
S113157096958795F30191838083FFEF29EF80E0AF
S1131580F15020408040E1F700C0000021980DC0D8
S1131590C801042C02C0880F991F0A94E2F78095B1
S11315A0EB81FC81908189238083FFEF4F1A5F0ACE
S11315B026E04216510409F096CF33948B819C8126
S11315C001969C838B8396E0391631F0442443942E
S11315D0512CEB80FC8087CFEFEFAE1ABE0A8981D5
S11315E09A818A159B0509F054CF01C0212C822DC4
S11315F00F900F900F900F90DF91CF911F910F914B
S1131600FF90EF90DF90CF90BF90AF909F908F901E
S11316107F906F905F904F903F902F900895CF925E
S1131620DF92FF920F931F93CF93DF936091020396
S11316307091030382E00E94DE0062E183E00E9475
S11316404D0162E184E00E944D0162E185E00E9467
S11316504D01609116037091170380E00E94DE0033
S11316600E944C160F2EF5E0FF2EF02D6894CC242A
S1131670C1F8D12C11E02EC00D2FDD2319F08F2DD0
S11316808C1B01C08C2F41E0612F0E94B90088E5BA
S113169092E00E94200A811161C0CF5FC63061F7D9
S11316A0402F60E083E00E94B900A60141705078A9
S11316B0552334F4415051094E6F5F6F4F5F5F4FB4
S11316C060E082E00E94B9001F5F8FEFC81AD80A59
S11316D0163099F1C0E0D12FD170CECF0D2FDD237C
S11316E019F08F2D8C1B01C08C2F40E0612F0E94BC
S11316F0B90088E592E00E94200A81112FC0CF5FD3
S1131700C63061F7A60141705078552334F4415036
S113171051094E6F5F6F4F5F5F4F60E083E00E943F
S1131720B900402F60E082E00E94B9001F5F8FEF94
S1131730C81AD80A163031F499CF6894CC24C1F869
S1131740D12C11E0C0E0D12FD170C8CF60E18C2F33
S11317500E944D01CF5FC930C9F702C0C0E0F6CF87
S1131760DF91CF911F910F91FF90DF90CF9008955B
S1131770F999FECF92BD81BD60BDFA9AF99A089598
S11317803F924F925F926F927F928F929F92AF920D
S1131790BF92CF92DF92EF92FF920F931F93CF935A
S11317A0DF93219AA6E8B0E061EC71E111967C9395
S11317B06E93E8E8F0E040EE58E0518340831FEF79
S11317C021EE84E0115020408040E1F700C0000089
S11317D022ED3FE011963C932E9389EE97E091839E
S11317E08083CFEFD1EE14E0C150D0401040E1F738
S11317F000C0000011967C936E93518340834FEF99
S113180051EE64E0415050406040E1F700C00000F8
S113181011963C932E93918380838FEF91EEC4E0D5
S113182081509040C040E1F700C00000219861E081
S113183080E00E94AB008111FACFDFEFE0E7F2E035
S1131840D150E040F040E1F700C00000312CC4EA80
S1131850D0E00F2EF6E8EF2EF12CF02D0F2EF2ED46
S1131860AF2EFFE0BF2EF02D08E810E00F2EF9EEAA
S1131870CF2EF7E0DF2EF02D0F2EFAE68F2EF8E1B3
S11318809F2EF02D0F2EFEEE4F2EFEE05F2EF02D3C
S11318900F2EF8EE6F2EF3E07F2EF02D832D90E0C7
S11318A08730910508F08AC6FC01E65AFF4F0C9474
S11318B0EB1563E188E00E944D0161E087E00E943E
S11318C04D0162E186E00E944D0165E085E00E94E1
S11318D04D016CE084E00E944D0161E083E00E94D0
S11318E04D01609102037091030380E00E94DE00C9
S11318F041E062E083E00E94B90062E083E00E947C
S1131900AB00882321F1109203031092020360E0DC
S113191070E080E00E94DE00219A8DE49DE0F701F2
S11319209183808386EA96E0F80191838083FFE7C0
S113193025EB41E0F15020404040E1F700C00000B9
S1131940219862E083E00E94AB008111FACF64E049
S113195083E00E94AB00882309F46FC019821882C7
S113196040910203509103034F5F5F4F9A013695F4
S113197027953695279536952795A5ECB0E20E94D4
S1131980F115929582958F7089279F708927869D7E
S11319909001879D300D969D300D1124421B530BF1
S11319A05093030340930203219AF701518240822A
S11319B047E757E0F801518340838FE59AEE01979A
S11319C0F1F700C00000219832C0609102037091C9
S11319D0030380E00E94DE00888199818536994165
S11319E030F140910203509103034F5F5F4F9A011E
S11319F0369527953695279536952795A5ECB0E22B
S1131A000E94F115929582958F7089279F7089277E
S1131A10869D9001879D300D969D300D1124421BAB
S1131A20530B50930303409302039982888264E02A
S1131A3083E00E94AB008111C8CF65E083E00E947F
S1131A40AB00882309F4BAC51982188240910203B5
S1131A505091030349515C4F9A0136952795369569
S1131A60279536952795A5ECB0E20E94F11592953D
S1131A7082958F7089279F708927869D9001879D05
S1131A80300D969D300D1124421B530B50930303CC
S1131A9040930203219AF701B182A082F801D18216
S1131AA0C0828FE59AEE0197F1F700C000002198FB
S1131AB032C0609102037091030380E00E94DE0053
S1131AC0888199818536994130F140910203509182
S1131AD0030349515C4F9A0136952795369527950E
S1131AE036952795A5ECB0E20E94F1159295829562
S1131AF08F7089279F708927869D9001879D300D5F
S1131B00969D300D1124421B530B509303034093B5
S1131B1002039982888265E083E00E94AB00811110
S1131B20C8CF4CC563E188E00E944D0161E087E0C5
S1131B300E944D0162E186E00E944D0165E085E06E
S1131B400E944D016CE084E00E944D0162E083E05C
S1131B500E944D01609116037091170380E00E946A
S1131B60DE0041E062E083E00E94B90062E083E0CD
S1131B700E94AB00882331F11092170310921603D0
S1131B80609102037091030380E00E94DE00219AB9
S1131B908DE49DE0F7019183808386EA96E0F80165
S1131BA091838083FFE725EB41E0F15020404040E2
S1131BB0E1F700C00000219862E083E00E94AB00DE
S1131BC08111FACF64E083E00E94AB00882309F41A
S1131BD06FC01982188240911603509117034F5F0A
S1131BE05F4F9A0136952795369527953695279513
S1131BF0A5ECB0E20E94F115929582958F70892729
S1131C009F708927869D9001879D300D969D300D8C
S1131C101124421B530B5093170340931603219A2C
S1131C20F7015182408247E757E0F801518340832E
S1131C308FE59AEE0197F1F700C00000219832C0B9
S1131C40609116037091170380E00E94DE00888182
S1131C5099818536994130F14091160350911703CB
S1131C604F5F5F4F9A0136952795369527953695A0
S1131C702795A5ECB0E20E94F115929582958F709C
S1131C8089279F708927869D9001879D300D969D99
S1131C90300D1124421B530B50931703409316032A
S1131CA09982888264E083E00E94AB008111C8CFEE
S1131CB065E083E00E94AB00882309F47FC41982A5
S1131CC01882409116035091170349515C4F9A01B1
S1131CD0369527953695279536952795A5ECB0E248
S1131CE00E94F115929582958F7089279F7089279C
S1131CF0869D9001879D300D969D300D1124421BC9
S1131D00530B5093170340931603219AF701B182A2
S1131D10A082F801D182C0828FE59AEE0197F1F793
S1131D2000C00000219832C060911603709117031F
S1131D3080E00E94DE00888199818536994130F1E6
S1131D40409116035091170349515C4F9A013695FF
S1131D5027953695279536952795A5ECB0E20E94F0
S1131D60F115929582958F7089279F708927869D9A
S1131D709001879D300D969D300D1124421B530B0D
S1131D8050931703409316039982888265E083E099
S1131D900E94AB008111C8CF11C464E188E00E94A5
S1131DA04D0165E187E00E944D016DE086E00E94EF
S1131DB04D0160E185E00E944D0166E184E00E94EE
S1131DC04D0165E183E00E944D016091120370E0D2
S1131DD080E00E94DE0041E062E083E00E94B900FE
S1131DE062E083E00E94AB00882319F188E28093CB
S1131DF0120368E270E080E00E94DE00219A8DE424
S1131E009DE0F7019183808386EA96E0F80191834F
S1131E108083FFE725EB41E0F15020404040E1F7AB
S1131E2000C00000219862E083E00E94AB008111B1
S1131E30FACF64E083E00E94AB00882381F1198229
S1131E401882809112038F5F80931203219AF70105
S1131E505182408247E757E0F801518340838FE580
S1131E609AEE0197F1F700C00000219812C060912A
S1131E70120370E080E00E94DE008881998185363B
S1131E80994138F0809112038F5F809312039982F5
S1131E90888264E083E00E94AB008111E8CF65E0B2
S1131EA083E00E94AB00882309F488C31982188256
S1131EB080911203815080931203219AF701B18219
S1131EC0A082F801D182C0828FE59AEE0197F1F7E2
S1131ED000C00000219812C06091120370E080E0FD
S1131EE00E94DE00888199818536994138F080917D
S1131EF012038150809312039982888265E083E003
S1131F000E94AB008111E8CF59C36BE088E00E94C6
S1131F104D0165E187E00E944D0165E086E00E9485
S1131F204D0160E185E00E944D0166E184E00E947C
S1131F304D0165E183E00E944D016091F50270E07E
S1131F4080E00E94DE0041E062E083E00E94B9008C
S1131F5062E083E00E94AB00882319F183E0809360
S1131F60F50263E070E080E00E94DE00219A8DE4D7
S1131F709DE0F7019183808386EA96E0F8019183DE
S1131F808083FFE725EB41E0F15020404040E1F73A
S1131F9000C00000219862E083E00E94AB00811140
S1131FA0FACF64E083E00E94AB00882381F11982B8
S1131FB018828091F5028F5F8093F502219AF701D0
S1131FC05182408247E757E0F801518340838FE50F
S1131FD09AEE0197F1F700C00000219812C06091B9
S1131FE0F50270E080E00E94DE00888199818536E8
S1131FF0994138F08091F5028F5F8093F5029982C0
S1132000888264E083E00E94AB008111E8CF65E040
S113201083E00E94AB00882309F4D0C2198218829D
S11320208091F50281508093F502219AF701B182E3
S1132030A082F801D182C0828FE59AEE0197F1F770
S113204000C00000219812C06091F50270E080E0A9
S11320500E94DE00888199818536994138F080910B
S1132060F50281508093F5029982888265E083E0CD
S11320700E94AB008111E8CFA1C26EE088E00E940B
S11320804D0167E187E00E944D0161E086E00E9416
S11320904D0166E185E00E944D016CE084E00E9400
S11320A04D016CE083E00E944D0160911403709136
S11320B0150380E00E94DE0041E062E083E00E94BC
S11320C0B90062E083E00E94AB00882331F187EE1F
S11320D093E0909315038093140367EE73E080E01C
S11320E00E94DE00219A8DE49DE0F70191838083B4
S11320F086EA96E0F80191838083FFE725EB41E0CF
S1132100F15020404040E1F700C00000219862E017
S113211083E00E94AB008111FACF64E083E00E9467
S1132120AB00882309F46FC019821882409114030C
S1132130509115034F5F5F4F9A0136952795369559
S1132140279536952795A5ECB0E20E94F115929556
S113215082958F7089279F708927869D9001879D1E
S1132160300D969D300D1124421B530B50931503D3
S113217040931403219AF7015182408247E757E0C4
S1132180F801518340838FE59AEE0197F1F700C07F
S11321900000219832C0609114037091150380E00F
S11321A00E94DE00888199818536994130F1409101
S11321B01403509115034F5F5F4F9A01369527958D
S11321C03695279536952795A5ECB0E20E94F11532
S11321D0929582958F7089279F708927869D90019B
S11321E0879D300D969D300D1124421B530B509347
S11321F01503409314039982888264E083E00E946B
S1132200AB008111C8CF65E083E00E94AB00882356
S113221009F4D4C119821882409114035091150312
S113222049515C4F9A0136952795369527953695F1
S11322302795A5ECB0E20E94F115929582958F70D6
S113224089279F708927869D9001879D300D969DD3
S1132250300D1124421B530B509315034093140368
S1132260219AF701B182A082F801D182C0828FE560
S11322709AEE0197F1F700C00000219832C06091F6
S113228014037091150380E00E94DE008881998117
S11322908536994130F14091140350911503495109
S11322A05C4F9A013695279536952795369527954F
S11322B0A5ECB0E20E94F115929582958F70892762
S11322C09F708927869D9001879D300D969D300DC6
S11322D01124421B530B509315034093140399820A
S11322E0888265E083E00E94AB008111C8CF66C19B
S11322F06BE088E00E944D0165E187E00E944D019A
S113230065E086E00E944D0168E185E00E944D0190
S113231066E184E00E944D0165E083E00E944D0186
S11323206091180370E080E00E94DE0041E062E00A
S113233083E00E94B90062E083E00E94AB0088233E
S113234019F182E08093180362E070E080E00E945B
S1132350DE00219A8DE49DE0F7019183808386EA73
S113236096E0F80191838083FFE725EB41E0F1508B
S113237020404040E1F700C00000219862E083E083
S11323800E94AB008111FACF64E083E00E94AB00AD
S1132390882381F119821882809118038F5F8093BA
S11323A01803219AF7015182408247E757E0F80168
S11323B0518340838FE59AEE0197F1F700C0000046
S11323C0219812C06091180370E080E00E94DE0042
S11323D0888199818536994138F0809118038F5FFF
S11323E0809318039982888264E083E00E94AB00A2
S11323F08111E8CF65E083E00E94AB00882309F4F3
S1132400DDC01982188280911803815080931803CB
S1132410219AF701B182A082F801D182C0828FE5AE
S11324209AEE0197F1F700C00000219812C0609164
S1132430180370E080E00E94DE008881998185366F
S1132440994138F080911803815080931803998240
S1132450888265E083E00E94AB008111E8CFAEC0C2
S113246065E088E00E944D0165E187E00E944D012E
S11324706DE086E00E944D0160E185E00E944D011F
S113248060E184E00E944D0160E183E00E944D011F
S113249060910F0370E080E00E94DE0064E083E05E
S11324A00E94AB00882309F442C0198218828091EB
S11324B00F0390E0019681709078992324F401979A
S11324C08E6F9F6F019680930F03219AF7015182BB
S11324D0408247E757E0F801518340838FE59AEE45
S11324E00197F1F700C0000021981BC060910F0311
S11324F070E080E00E94DE008881998185369941F0
S113250080F080910F0390E0019681709078992378
S113251024F401978E6F9F6F019680930F03998225
S1132520888264E083E00E94AB008111DFCF65E024
S113253083E00E94AB00882309F440C0198218820A
S113254080910F0390E0019681709078992324F490
S113255001978E6F9F6F019680930F03219AF70165
S1132560B182A082F801D182C0828FE59AEE0197F0
S1132570F1F700C0000021981BC060910F0370E0C8
S113258080E00E94DE00888199818536994180F03F
S113259080910F0390E0019681709078992324F440
S11325A001978E6F9F6F019680930F0399828882A3
S11325B065E083E00E94AB008111DFCF41E065E07C
S11325C080E00E94B90041E065E081E00E94B9002A
S11325D041E064E083E00E94B90041E065E083E00B
S11325E00E94B90041E061E080E00E94B90065E02A
S11325F080E00E94AB008823B1F1832D90E0019626
S113260067E070E00E94D715382E219A81EC91E1A1
S1132610F7019183808380EE98E0F80191838083B1
S1132620FFE725EB41E0F15020404040E1F700C0D6
S11326300000219865E080E00E94AB008111FACF90
S1132640219AF701B182A082F801D182C082FFE70A
S113265025EB41E0F15020404040E1F700C000008C
S113266021980E94530165E081E00E94AB00882319
S1132670B1F1832D90E0069667E070E00E94D715D3
S1132680382E219A81EC91E1F7019183808380EEC9
S113269098E0F80191838083FFE725EB41E0F15056
S11326A020404040E1F700C00000219865E081E04F
S11326B00E94AB008111FACF219AF701B182A08266
S11326C0F801D182C082FFE725EB41E0F1502040C0
S11326D04040E1F700C0000021980E94530161E0EE
S11326E080E00E94AB00882309F4D8C8219AA6E8A8
S11326F0B0E02DE43DE011963C932E93E8E8F0E041
S113270086EA96E0918380835FE765EBC1E05150F0
S11327106040C040E1F700C000002198DFE715EBFE
S113272041E0D15010404040E1F700C00000219A40
S113273011963C932E93918380835FE765EB81E050
S1132740515060408040E1F700C000002198609142
S1132750030380E090E00E94B80B6091020381E0E3
S113276090E00E94B80B6091170382E090E00E9411
S1132770B80B6091160383E090E00E94B80B60915F
S1132780120380E190E00E94B80B6091F50280E2B0
S113279090E00E94B80B6091150380E890E00E94DD
S11327A0B80B6091140381E890E00E94B80B60912B
S11327B00F0380E790E00E94B80B6091180380E655
S11327C090E00E94B80BDF91CF911F910F91FF9081
S11327D0EF90DF90CF90BF90AF909F908F907F90BD
S11327E06F905F904F903F900895F999FECF92BDFE
S11327F081BDF89A80B508950E94B9150E94BE154E
S11328000E949F000E949F0289E191E090931C0323
S113281080931B038FE891E00E947216789484B130
S1132820826284B910928700109286001092890007
S113283010928800E0E8F0E0808182688083E1E81B
S1132840F0E080818A618083299882E084BD15BC90
S11328509DE797BD80936E0089EB91E00E9472160C
S113286080E090E00E94F513C82F81E090E00E9480
S1132870F5132C2F30E0322F2227282B309303031B
S11328802093020382E090E00E94F513C82F83E0B6
S113289090E00E94F5132C2F30E0322F2227282BB2
S11328A0309317032093160380E190E00E94F51300
S11328B08093120380E290E00E94F5138093F50266
S11328C080E590E00E94F5138093110380E690E088
S11328D00E94F5138093180380E790E00E94F5139B
S11328E080930F0380E890E00E94F513C82F81E8DD
S11328F090E00E94F5132C2F30E0322F2227282B52
S1132900309315032093140380E490E00E94F513A0
S1132910C82F81E490E00E94F5132C2F30E0322F71
S11329202227A901482BCA010E9451160E944C1665
S1132930907899231CF401979F6F0196682F80E487
S113294090E00E94B80B0E944C16907899231CF4D6
S113295001979F6F0196682F81E490E00E94B80B65
S113296081ED91E00E947216809115038F938091FE
S113297014038F9380910F031F928F9380911803F8
S11329801F928F93809111031F928F938091F50270
S11329901F928F93809112031F928F93809117033C
S11329A08F93809116038F93809103038F9380916B
S11329B002038F9384EE91E09F938F930E945C16A1
S11329C081E490E00E94F513C82F80E490E00E9417
S11329D0F5131F92CF931F928F9388E392E09F93F6
S11329E08F930E945C168DE08093A10082E0809317
S11329F0720089E09DE39093A9008093A8007894E5
S1132A008DB79EB748960FB6F8949EBF0FBE8DBF84
S1132A10C0E062E18C2F0E944D01CF5FC930C9F73D
S1132A2061E080E00E94AB0081110E94C00BC6E10E
S1132A30D3E004E712E00F2EF2E0EF2EF3E0FF2ED6
S1132A40F02D8DE492E00E9472160E940F0B86E630
S1132A5092E00E9472160E942E079FEFEEE9F4E2C4
S1132A609150E040F040E1F700C000000E94C4042F
S1132A7080911003811129C0809104039091050372
S1132A8020910203309103032817390708F047C047
S1132A9090930303809302039F938F931F930F9349
S1132AA00E945C166091030380E090E00E94B80BE2
S1132AB0F701608181E090E00E94B80B0E946803F6
S1132AC00F900F900F900F902AC080910403909163
S1132AD0050320911603309117032817390738F09E
S1132AE0409106035091070324173507B0F4209151
S1132AF00603309107032817390708F49C01309323
S1132B00170320931603632F82E090E00E94B80B12
S1132B10688183E090E00E94B80B0E946803FFEF95
S1132B202EE944E2F15020404040E1F700C00000AB
S1132B3088CF7098689A0895699808950E949C15A2
S1132B400E9499150895689808950E94A3152FEF7F
S1132B508DE399E4215080409040E1F700C00000EB
S1132B600E9499158FE39FE10197F1F700C00000DF
S1132B7008950E94A5150E949E1508950E949C1513
S1132B800E94A3150895AA1BBB1B51E107C0AA1FED
S1132B90BB1FA617B70710F0A61BB70B881F991FFA
S1132BA05A95A9F780959095BC01CD01089597FB9E
S1132BB0072E16F4009407D077FD09D00E94C315A0
S1132BC007FC05D03EF4909581959F4F089570952C
S1132BD061957F4F0895EE0FFF1F0590F491E02D4E
S1132BE00994A29FB001B39FC001A39F700D811DE2
S1132BF01124911DB29F700D811D1124911D089502
S1132C008F929F92AF92BF92CF92DF92EF92FF92F8
S1132C10CF93DF93EC01688179818A819B8161156F
S1132C2071058105910521F464E279ED8BE597E066
S1132C302DE133EF41E050E00E94331949015A017C
S1132C409B01AC01A7EAB1E40E9452196B017C011B
S1132C50ACEEB4EFA50194010E946019DC01CB0134
S1132C608C0D9D1DAE1DBF1DB7FF03C00197A109AB
S1132C70B04888839983AA83BB839F77DF91CF91E0
S1132C80FF90EF90DF90CF90BF90AF909F908F9088
S1132C9008950E940016089580E091E00E940016B5
S1132CA00895A0E0B0E08093000190930101A09307
S1132CB00201B09303010895A0E0B0E0E2E6F6E17A
S1132CC00C947519AE014B5F5F4FFA0161917191DC
S1132CD0AF0180911B0390911C030E94A216E2E0B5
S1132CE00C9491190F931F93CF93DF93E0911B03DF
S1132CF0F0911C03238121FF1BC08C01D0E0C0E0B4
S1132D00F80181918F0160911B0370911C03DB0119
S1132D101896ED91FC911997882331F00995892B28
S1132D2079F3DFEFCFEFECCF8AE00995892B19F027
S1132D308FEF9FEF02C08D2F9C2FDF91CF911F91BA
S1132D400F910895ABE0B0E0E8EAF6E10C94651960
S1132D506C017B018A01FC0117821682838181FF49
S1132D60CCC1CE0101963C01F6019381F70193FD9C
S1132D70859193FF81917F01882309F4BAC185323B
S1132D8039F493FD859193FF81917F01853229F474
S1132D90B60190E00E949918E7CF912C212C312C98
S1132DA0FFE1F315D8F08B3279F038F4803279F002
S1132DB08332A1F4232D20611DC08D3261F0803354
S1132DC069F4232D216016C0832D8260382EE32DF3
S1132DD0E4603E2E2AC0F32DF8601DC037FC2DC0E0
S1132DE020ED280F2A3040F08E32B9F436FC81C130
S1132DF0232D2064322E19C036FE06C08AE0989E28
S1132E00200D1124922E11C0EAE02E9E200D1124D3
S1132E10222EF32DF0623F2E08C08C3621F4832D30
S1132E208068382E02C0883641F4F70193FD8591FD
S1132E3093FF81917F018111B3CF982F9F7D95548A
S1132E40933028F40C5F1F4F9FE399830DC08336A2
S1132E5031F0833771F0833509F059C021C0F8018E
S1132E60808189830E5F1F4F88248394912C5301A2
S1132E7013C02801F2E04F0E511CF801A080B1806C
S1132E8036FE03C0692D70E002C06FEF7FEFC5010D
S1132E900E948E184C018201F32DFF773F2E16C03D
S1132EA0280122E0420E511CF801A080B18036FEB8
S1132EB003C0692D70E002C06FEF7FEFC5010E946F
S1132EC083184C01F32DF0683F2E820133FC1BC0A4
S1132ED0822D90E088169906B0F4B60180E290E065
S1132EE00E9499182A94F4CFF50137FC859137FE96
S1132EF081915F01B60190E00E94991821102A94F3
S1132F0021E0821A91088114910471F7E8C0843693
S1132F1011F0893641F5F80137FE07C060817181EF
S1132F20828193810C5F1F4F08C060817181072EDD
S1132F30000C880B990B0E5F1F4FF32DFF763F2E6D
S1132F4097FF09C090958095709561957F4F8F4F3D
S1132F509F4FF0683F2E2AE030E0A3010E94D5186D
S1132F60882E861845C0853731F4232D2F7EB22E46
S1132F702AE030E025C0932D997FB92E8F36C1F019
S1132F8018F4883579F0B5C0803719F0883721F006
S1132F90B0C0E92FE061BE2EB4FE0DC0FB2DF4607D
S1132FA0BF2E09C034FE0AC0292F2660B22E06C0E7
S1132FB028E030E005C020E130E002C020E132E04A
S1132FC0F801B7FE07C060817181828193810C5F33
S1132FD01F4F06C06081718180E090E00E5F1F4F3B
S1132FE0A3010E94D518882E8618FB2DFF773F2E4B
S1132FF036FE0DC0232D2E7FA22E891458F434FEE4
S11330000BC032FC09C0832D8E7EA82E05C0B82CBF
S1133010A32C03C0B82C01C0B92CA4FE0FC0FE0120
S1133020E80DF11D8081803321F49A2D997EA92E1B
S113303009C0A2FE06C0B394B39404C08A2D867856
S113304009F0B394A3FC11C0A0FE06C0B21488F426
S1133050280C922C9B180EC0B21460F4B60180E2C6
S113306090E00E949918B394F7CFB21418F42B1877
S113307002C0982C212CA4FE10C0B60180E390E07D
S11330800E949918A2FE17C0A1FC03C088E790E033
S113309002C088E590E0B6010CC08A2D867859F00C
S11330A0A1FE02C08BE201C080E2A7FC8DE2B60162
S11330B090E00E949918891438F4B60180E390E0F6
S11330C00E9499189A94F7CF8A94F301E80DF11DA0
S11330D08081B60190E00E9499188110F5CF2220DA
S11330E009F442CEB60180E290E00E9499182A9435
S11330F0F6CFF6018681978102C08FEF9FEF2B9662
S1133100E2E10C948119FC010590615070400110BA
S1133110D8F7809590958E0F9F1F0895FC016150FC
S1133120704001900110D8F7809590958E0F9F1FE5
S113313008950F931F93CF93DF93FB01238121FD08
S113314003C08FEF9FEF2CC022FF16C0468157812A
S1133150248135814217530744F4A081B1819D0134
S11331602F5F3F4F318320838C93268137812F5FDC
S11331703F4F3783268314C08B01EC01FB0100848D
S1133180F185E02D0995892BE1F6D80116968D91EC
S11331909C911797019617969C938E931697CE0140
S11331A0DF91CF911F910F910895FA01AA2728303A
S11331B051F1203181F1E8946F936E7F6E5F7F4F00
S11331C08F4F9F4FAF4FB1E03ED0B4E03CD0670F7C
S11331D0781F891F9A1FA11D680F791F8A1F911DCF
S11331E0A11D6A0F711D811D911DA11D20D009F41F
S11331F068943F912AE0269F11243019305D319361
S1133200DEF6CF010895462F4770405D4193B3E049
S11332100FD0C9F7F6CF462F4F70405D4A3318F0F0
S1133220495D31FD4052419302D0A9F7EACFB4E0A1
S1133230A6959795879577956795BA95C9F7009759
S11332406105710508959B01AC010A2E06945795FA
S1133250479537952795BA95C9F7620F731F841F51
S1133260951FA01D0895052E97FB1EF400940E943F
S11332704A1957FD07D00E949C1907FC03D04EF44D
S11332800C944A1950954095309521953F4F4F4FD6
S11332905F4F089590958095709561957F4F8F4FFE
S11332A09F4F08950E94F115A59F900DB49F900D16
S11332B0A49F800D911D11240895B7FF0C945219F9
S11332C00E945219821B930B08952F923F924F92A2
S11332D05F926F927F928F929F92AF92BF92CF92A2
S11332E0DF92EF92FF920F931F93CF93DF93CDB7AB
S11332F0DEB7CA1BDB0B0FB6F894DEBF0FBECDBF23
S113330009942A88398848885F846E847D848C84F3
S11333109B84AA84B984C884DF80EE80FD800C81FC
S11333201B81AA81B981CE0FD11D0FB6F894DEBFDF
S11333300FBECDBFED010895A1E21A2EAA1BBB1B3F
S1133340FD010DC0AA1FBB1FEE1FFF1FA217B3076D
S1133350E407F50720F0A21BB30BE40BF50B661F83
S1133360771F881F991F1A9469F760957095809547
S113337090959B01AC01BD01CF010895F894FFCF56
S113338001000000FFFFFFFFFFFF0001020304052F
S11333900607080000000000000000000200000012
S11333A0008D02000000003F065B4F666D7D077FC5
S11333B067777C395E7971003E40765054781C738F
S11333C05354415254494E4720424F4E555300479F
S11333D0414D4520535441525400726F756E642020
S11333E074696D652025640A00256420092025641C
S11333F00A0047414D61206F766172005354415277
S113340054494E4720256450206D6F64650A000AB4
S11334100A57656C636F6D6520746F206261727406
S1133420656E64696E6720726F626F74204F5320FB
S113343076657220342E374200415544494F20545A
S1133440494D455253202620504F52542053455441
S113345000454550524F4D2056414C55455320533D
S113346045543A00485331503A20256420092048F5
S11334705332503A20256420092052543A202564BE
S113348020092042543A2025642009204D4D4158FA
S11334903A2025642009204250433A20256420091B
S11334A020534E443A2025642009204D756C546302
S11334B06B3A202564200A0052414E444F4D534537
S11334C045443A203078255825580A0A000A0A0A41
S11334D05354415254494E47204154545241435449
S11334E0204D4F4445005354415254494E472047C0
S11334F0414D45006E657720686967682073636F86
S1133500726520256400010101020303030405051B
S11335100501010102030303040505050102020379
S11335200405050500000003020101030201010373
S1133530020104030202040302040403020203025C
S11335400202030201000000C111D20FEE0E4D0D64
S1133550DA0B2F0BF709E108E8077707A706ED0553
S9030000FC
