:100000000C945A000C9477000C9477000C947700B1
:100010000C9477000C9477000C9477000C94770084
:100020000C9477000C9477000C9477000C94770074
:100030000C9477000C9477000C9460020C94770079
:100040000C9477000C94DC010C9477000C947700EE
:100050000C9477000C9477000C9477000C94770044
:100060000C9477000C9477000C9477000C94770034
:100070000C9477000C9477000C9477000C94770024
:100080000C9477000C94D5000C94A9010C94770083
:100090000C9477000C9477000C9477000C94770004
:1000A0000C9477000C9477000C9403030C94770065
:1000B0000C94770011241FBECFEFD8E0DEBFCDBF78
:1000C00011E0A0E0B1E0E4EFFCE002C005900D9289
:1000D000AE37B107D9F721E0AEE7B1E001C01D921C
:1000E000A33BB207E1F70E9419020C9478060C9426
:1000F000000084B1886284B981ED8CBD08958AE0E6
:100100008093910088EB9BE09093990080939800F6
:100110008AE397E090939B0080939A00E1E7F0E0F8
:1001200080818660808310929500109294000895DB
:100130008FEF8AB988B9209A6B9A6A9A739A0E944B
:1001400079000E947F000895E62FF0E0EB57FE4F04
:10015000408121E030E0B90102C0660F771F8A9527
:10016000E2F7CB0184230895442379F0E82FF0E0EF
:10017000E15FFE4F208181E090E002C0880F991F6F
:100180006A95E2F7822B80830895E82FF0E0E15F23
:10019000FE4F208181E090E002C0880F991F6A9590
:1001A000E2F780958223808308951F920F920FB605
:1001B0000F9211242F933F934F935F936F937F93ED
:1001C0008F939F93AF93BF93EF93FF9380917F01A2
:1001D000833090F540917F01E0917F01F0E0E15F95
:1001E000FE4F2081277060E1269F9001112481E05D
:1001F00090E0BC0102C0660F771F4A95E2F7262BFC
:10020000A0E0B1E013962C9313971C9211961C92C8
:10021000119730917F01E0917F01F0E0E15FFE4FA7
:1002200020812873220F02C0880F991F3A95E2F7A8
:10023000822B12968C9333C0A0E0B1E013961C92EF
:10024000139780917F01E0917F01F0E0E15FFE4F25
:100250009081835021E030E0A90102C0440F551F76
:100260008A95E2F7977070E1979FC0011124842B63
:100270008C9390917F01E0917F01F0E0E15FFE4F70
:100280008081935002C0220F331F9A95E2F7887342
:10029000880F282B11962C93119712961C928091FF
:1002A0007F0190E0019666E070E00E944203809337
:1002B0007F01E0918001F0E0EA5FFE4FE081F0E035
:1002C000ED5DFE4F80818093050180918001811159
:1002D00007C0E0E0F1E085818068858314820CC06E
:1002E00020918001215081E090E002C0880F991F89
:1002F0002A95E2F7809304018091800190E00196B5
:1003000069E070E00E94420380938001289873980E
:10031000289A739A289810927E01E0917E0181E0DC
:100320008E0F80937E01F0E0E050FF4F80818EBD04
:10033000FF91EF91BF91AF919F918F917F916F91BD
:100340005F914F913F912F910F900FBE0F901F9093
:1003500018951F920F920FB60F9211242F933F936F
:100360004F938F939F93EF93FF932FEF28B92AB961
:1003700030917F014AB13E5F81E090E002C0880F7A
:10038000991F3A95E2F78095909584238AB9E09178
:100390007F01F0E086B18095EB57FE4F80832AB94C
:1003A000FF91EF919F918F914F913F912F910F90DE
:1003B0000FBE0F901F9018951F920F920FB60F92BD
:1003C00011248F93EF93FF9380917E01863010F07C
:1003D000289A0BC0E0917E0181E08E0F80937E0110
:1003E000F0E0E050FF4F80818EBDFF91EF918F9143
:1003F0000F900FBE0F901F901895CF93C82F8A3083
:1004000019F48DE00E94FD01E0ECF0E0808185FFB1
:10041000FDCFC093C60080E090E0CF91089588E1C1
:100420008093C10086E08093C20083E38093C40080
:1004300008950E9438030E943D030E9498000E9484
:100440000F0285E191E09093B0018093AF0184E3C6
:1004500091E00E94800378940F2EFCE5EF2EF1E0EE
:10046000FF2EF02D00E010E028C06C2F802F0E949E
:10047000A4008823A1F0DF93CF931F930F93FF92E3
:10048000EF920E946A0341E06C2F802F0E94B4001B
:100490000F900F900F900F900F900F9005C040E0BD
:1004A0006C2F802F0E94B4002196C630D105E9F64A
:1004B0000F5F1F4F06301105A9F2C0E0D0E0D5CF85
:1004C0001F920F920FB60F9211248F939F93EF9369
:1004D000FF9380918101909182018630910509F40A
:1004E0004EC030F48130910561F0039749F179C035
:1004F0008E30910509F462C08034910509F463C01F
:1005000070C0E0918301F0918401EE0FFF1FEB5961
:10051000FE4F808191819093870080938600E091C7
:100520008301F0918401EE0FFF1FEB59FE4F808194
:10053000918196958795909389008093880051C00A
:10054000E0918301F0918401EE0FFF1FE959FE4F06
:10055000808191819093870080938600E091830150
:10056000F0918401EE0FFF1FEB59FE4F80819181C6
:1005700096958795909389008093880032C0E0918A
:100580008301F0918401EE0FFF1FE759FE4F808138
:1005900091819093870080938600E0918301F09190
:1005A0008401EE0FFF1FEB59FE4F808191819695DC
:1005B0008795909389008093880013C010928900DA
:1005C000109288000EC010928401109283018FEF68
:1005D0009FEF909382018093810185B58A7F85BDCD
:1005E00016BC8091810190918201019690938201C5
:1005F00080938101FF91EF919F918F910F900FBE9A
:100600000F901F9018951F920F920FB60F92112402
:100610008F9380919901882329F0809199018150CD
:10062000809399018F910F900FBE0F901F90189596
:100630007098689A0895699808950E941B030E9413
:1006400018030895689808950E9422032FEF8EE9F9
:1006500094E2215080409040E1F700C000000E94E9
:1006600018038FE99FE00197F1F700C0000008959B
:100670000E9424030E941D0308950E941B030E94F0
:100680002203089597FB072E16F4009407D077FDF8
:1006900009D00E94560307FC05D03EF49095819541
:1006A0009F4F0895709561957F4F0895AA1BBB1BBE
:1006B00051E107C0AA1FBB1FA617B70710F0A61B62
:1006C000B70B881F991F5A95A9F780959095BC0183
:1006D000CD010895A0E0B0E0E0E7F3E00C9451060E
:1006E000AE014B5F5F4FFA0161917191AF01809153
:1006F000AF019091B0010E94B003E2E00C946D064E
:100700000F931F93CF93DF93E091AF01F091B0016E
:10071000238121FF1BC08C01D0E0C0E0F801819152
:100720008F016091AF017091B001DB011896ED91DE
:10073000FC911997882331F00995892B79F3DFEF24
:10074000CFEFECCF8AE00995892B19F08FEF9FEF5F
:1007500002C08D2F9C2FDF91CF911F910F91089593
:10076000ABE0B0E0E6EBF3E00C9441066C017B01FA
:100770008A01FC0117821682838181FFCCC1CE01E0
:1007800001963C01F6019381F70193FD859193FF5A
:1007900081917F01882309F4BAC1853239F493FD30
:1007A000859193FF81917F01853229F4B60190E014
:1007B0000E94A705E7CF912C212C312CFFE1F315E6
:1007C000D8F08B3279F038F4803279F08332A1F4AA
:1007D000232D20611DC08D3261F0803369F4232DFB
:1007E000216016C0832D8260382EE32DE4603E2EFA
:1007F0002AC0F32DF8601DC037FC2DC020ED280F56
:100800002A3040F08E32B9F436FC81C1232D2064A9
:10081000322E19C036FE06C08AE0989E200D1124A3
:10082000922E11C0EAE02E9E200D1124222EF32DCF
:10083000F0623F2E08C08C3621F4832D8068382E5C
:1008400002C0883641F4F70193FD859193FF8191B1
:100850007F018111B3CF982F9F7D9554933028F459
:100860000C5F1F4F9FE399830DC0833631F08337B0
:1008700071F0833509F059C021C0F8018081898366
:100880000E5F1F4F88248394912C530113C02801BD
:10089000F2E04F0E511CF801A080B18036FE03C07B
:1008A000692D70E002C06FEF7FEFC5010E949C05CB
:1008B0004C018201F32DFF773F2E16C0280122E064
:1008C000420E511CF801A080B18036FE03C0692D94
:1008D00070E002C06FEF7FEFC5010E9491054C01EF
:1008E000F32DF0683F2E820133FC1BC0822D90E077
:1008F00088169906B0F4B60180E290E00E94A70540
:100900002A94F4CFF50137FC859137FE81915F0180
:10091000B60190E00E94A70521102A9421E0821AD6
:1009200091088114910471F7E8C0843611F089367A
:1009300041F5F80137FE07C06081718182819381A2
:100940000C5F1F4F08C060817181072E000C880B5F
:10095000990B0E5F1F4FF32DFF763F2E97FF09C0B7
:1009600090958095709561957F4F8F4F9F4FF06860
:100970003F2E2AE030E0A3010E94E305882E86186E
:1009800045C0853731F4232D2F7EB22E2AE030E08A
:1009900025C0932D997FB92E8F36C1F018F4883574
:1009A00079F0B5C0803719F0883721F0B0C0E92F51
:1009B000E061BE2EB4FE0DC0FB2DF460BF2E09C059
:1009C00034FE0AC0292F2660B22E06C028E030E08F
:1009D00005C020E130E002C020E132E0F801B7FEBE
:1009E00007C060817181828193810C5F1F4F06C0B7
:1009F0006081718180E090E00E5F1F4FA3010E9433
:100A0000E305882E8618FB2DFF773F2E36FE0DC09E
:100A1000232D2E7FA22E891458F434FE0BC032FCF5
:100A200009C0832D8E7EA82E05C0B82CA32C03C030
:100A3000B82C01C0B92CA4FE0FC0FE01E80DF11DB9
:100A40008081803321F49A2D997EA92E09C0A2FEBF
:100A500006C0B394B39404C08A2D867809F0B39489
:100A6000A3FC11C0A0FE06C0B21488F4280C922C7E
:100A70009B180EC0B21460F4B60180E290E00E94B0
:100A8000A705B394F7CFB21418F42B1802C0982C12
:100A9000212CA4FE10C0B60180E390E00E94A705BF
:100AA000A2FE17C0A1FC03C088E790E002C088E561
:100AB00090E0B6010CC08A2D867859F0A1FE02C0E4
:100AC0008BE201C080E2A7FC8DE2B60190E00E94BB
:100AD000A705891438F4B60180E390E00E94A705C9
:100AE0009A94F7CF8A94F301E80DF11D8081B60145
:100AF00090E00E94A7058110F5CF222009F442CE94
:100B0000B60180E290E00E94A7052A94F6CFF60194
:100B10008681978102C08FEF9FEF2B96E2E10C94C4
:100B20005D06FC010590615070400110D8F780957A
:100B300090958E0F9F1F0895FC01615070400190A9
:100B40000110D8F7809590958E0F9F1F08950F93F1
:100B50001F93CF93DF93FB01238121FD03C08FEF10
:100B60009FEF2CC022FF16C046815781248135811A
:100B70004217530744F4A081B1819D012F5F3F4F7D
:100B8000318320838C93268137812F5F3F4F3783BA
:100B9000268314C08B01EC01FB010084F185E02D5C
:100BA0000995892BE1F6D80116968D919C9117979E
:100BB000019617969C938E931697CE01DF91CF9155
:100BC0001F910F910895FA01AA27283051F1203181
:100BD00081F1E8946F936E7F6E5F7F4F8F4F9F4FD1
:100BE000AF4FB1E03ED0B4E03CD0670F781F891F13
:100BF0009A1FA11D680F791F8A1F911DA11D6A0FE1
:100C0000711D811D911DA11D20D009F468943F9193
:100C10002AE0269F11243019305D3193DEF6CF0192
:100C20000895462F4770405D4193B3E00FD0C9F758
:100C3000F6CF462F4F70405D4A3318F0495D31FDC5
:100C40004052419302D0A9F7EACFB4E0A695979518
:100C5000879577956795BA95C9F7009761057105EE
:100C600008959B01AC010A2E069457954795379538
:100C70002795BA95C9F7620F731F841F951FA01D92
:100C800008952F923F924F925F926F927F928F9230
:100C90009F92AF92BF92CF92DF92EF92FF920F930B
:100CA0001F93CF93DF93CDB7DEB7CA1BDB0B0FB615
:100CB000F894DEBF0FBECDBF09942A8839884888D2
:100CC0005F846E847D848C849B84AA84B984C88468
:100CD000DF80EE80FD800C811B81AA81B981CE0F5F
:100CE000D11D0FB6F894DEBF0FBECDBFED01089544
:040CF000F894FFCFA6
:100CF400FFFFFFFFFFFF00010203040506070800D2
:100D040000000000000000000200000000FD0100DF
:100D14000000003F065B4F666D7D077F67777C3977
:100D24005E79710057656C636F6D6520746F206226
:100D3400617274656E64696E6720726F626F74208D
:100D44004F532076657220342E37420025642C20C0
:100D540025640A0A00C111D20FEE0E4D0DDA0B2FD5
:0E0D64000BF709E108E8077707A706ED050081
:00000001FF
