S014000073706565644F664C696768742E7372656352
S11300000C945A000C9477000C9477000C947700AD
S11300100C9477000C9477000C9477000C94770080
S11300200C9477000C9477000C9477000C94770070
S11300300C9477000C9477000C94C5010C94770011
S11300400C9477000C94A0010C9477000C94770026
S11300500C9477000C9477000C9477000C94770040
S11300600C9477000C9477000C9477000C94770030
S11300700C9477000C9477000C9477000C94770020
S11300800C9477000C94A7000C9479010C947700DD
S11300900C9477000C9477000C9477000C94770000
S11300A00C9477000C9477000C9468020C947700FD
S11300B00C94770011241FBECFEFD8E0DEBFCDBF74
S11300C011E0A0E0B1E0EEE4F5E002C005900D928D
S11300D0AE33B107D9F721E0AEE3B1E001C01D9220
S11300E0AD36B207E1F70E94C1010C94A5020C944D
S11300F0000084B1886284B981ED8CBD08958AE0E2
S11301008093910084E79EE09093990080939800F7
S11301108AE397E090939B0080939A00E1E7F0E0F4
S113012080818660808310929500109294000895D7
S11301308FE387B98FEF8BB9209A6B9A6A9A739A77
S1130140389A409A0E9479000E947F0008951F9275
S11301500F920FB60F9211242F933F934F935F93F7
S11301606F937F938F939F93AF93BF93EF93FF937B
S1130170309A80913F01833090F590913F01E09156
S11301803F01F0E0E15FFE4F8081482F407F21E096
S113019030E0B90102C0660F771F9A95E2F7CB01F0
S11301A0842BA0E0B1E08C9380913F01E0913F016A
S11301B0F0E0E15FFE4F908102C0220F331F8A9569
S11301C0E2F770E1979FC0011124822B11968C9362
S11301D0119712961C92129713961C9233C0809119
S11301E03F01E0913F01F0E0E15FFE4F4081835029
S11301F021E030E0B90102C0660F771F8A95E2F76B
S1130200CB01942F907F892BA0E0B1E012968C93C0
S1130210129780913F01E0913F01F0E0E15FFE4FD2
S11302209081835002C0220F331F8A95E2F770E158
S1130230979FC0011124822B13968C9313971C92C1
S113024011961C9280913F0190E0019666E070E067
S11302500E947D0280933F01E0914001F0E0EA5F5B
S1130260FE4FE081F0E0EB5EFE4F8081809305015C
S113027080914001811107C0E0E0F1E08581806850
S1130280858314820CC020914001215081E090E0CC
S113029002C0880F991F2A95E2F780930401809188
S11302A0400190E0019669E070E00E947D02809335
S11302B04001739A289810923E01E0913E0181E03A
S11302C08E0F80933E01F0E0E050FF4F80818EBDA1
S11302D0FF91EF91BF91AF919F918F917F916F911A
S11302E05F914F913F912F910F900FBE0F901F90F0
S11302F018951F920F920FB60F9211242F938F937C
S11303009F93EF93FF9320913F0181E090E002C01F
S1130310880F991F2A95E2F7809588B9E0913F01EB
S1130320F0E089B18095EB5BFE4F8083FF91EF9104
S11303309F918F912F910F900FBE0F901F90189542
S11303401F920F920FB60F9211248F93EF93FF9386
S113035080913E01863010F0289A0BC0E0913E0156
S113036081E08E0F80933E01F0E0E050FF4F8081EA
S11303708EBDFF91EF918F910F900FBE0F901F9044
S113038018950E9498007894FFCF1F920F920FB691
S11303900F9211248F939F93EF93FF9380914101C8
S11303A0909142018630910509F44EC030F48130B9
S11303B0910561F0039749F179C08E30910509F4F4
S11303C062C08034910509F463C070C0E0914301B8
S11303D0F0914401EE0FFF1FEA5DFE4F8081918191
S11303E09093870080938600E0914301F09144014B
S11303F0EE0FFF1FEA5DFE4F8081918196958795F0
S1130400909389008093880051C0E0914301F0915A
S11304104401EE0FFF1FE85DFE4F808191819093B0
S1130420870080938600E0914301F0914401EE0F30
S1130430FF1FEA5DFE4F8081918196958795909389
S113044089008093880032C0E0914301F091440117
S1130450EE0FFF1FE65DFE4F808191819093870030
S113046080938600E0914301F0914401EE0FFF1F59
S1130470EA5DFE4F808191819695879590938900DE
S11304808093880013C010928900109288000EC0D7
S113049010924401109243018FEF9FEF9093420119
S11304A08093410185B58A7F85BD16BC8091410149
S11304B09091420101969093420180934101FF91F2
S11304C0EF919F918F910F900FBE0F901F901895F1
S11304D01F920F920FB60F9211248F93809159019E
S11304E0882329F0809159018150809359018F917B
S11304F00F900FBE0F901F90189597FB072E16F4C0
S1130500009407D077FD09D00E94910207FC05D022
S11305103EF4909581959F4F0895709561957F4F16
S11305200895AA1BBB1B51E107C0AA1FBB1FA61736
S1130530B70710F0A61BB70B881F991F5A95A9F788
S111054080959095BC01CD010895F894FFCFED
S113054EAABBCCDDEEFF0001020304050607081A60
S113055E2B3C4D5E6F3F065B4F666D7D077F677765
S113056E7C395E797100C111D20FEE0E4D0DDA0B8E
S111057E2F0BF709E108E8077707A706ED053C
S9030000FC
