S014000073706565644F664C696768742E7372656352
S11300000C945A000C9477000C9477000C947700AD
S11300100C9477000C9477000C9477000C94770080
S11300200C9477000C9477000C9477000C94770070
S11300300C9477000C9477000C949C020C94770039
S11300400C9477000C945F020C9477000C94770066
S11300500C9477000C9477000C9477000C94770040
S11300600C9477000C9477000C9477000C94770030
S11300700C9477000C9477000C9477000C94770020
S11300800C9477000C945D010C9431020C9477006D
S11300900C9477000C9477000C9477000C94770000
S11300A00C9477000C9477000C9441030C94770023
S11300B00C94770011241FBECFEFD8E0DEBFCDBF74
S11300C012E0A0E0B1E0E6EAFBE102C005900D9287
S11300D0AC3CB107D9F723E0ACECB2E001C01D920F
S11300E0A130B207E1F70E946E080C94D10D0C9474
S11300F0000084B1886284B981ED8CBD08958AE0E2
S11301008093910088EB9BE09093990080939800F2
S11301108AE397E090939B0080939A00E1E7F0E0F4
S113012080818660808310929500109294000895D7
S11301308FEF8AB988B9209A6B9A6A9A739A0E9447
S113014079000E947F000895E82FF0E0ED52FD4F02
S1130150208181E090E002C0880F991F6A95E2F740
S113016082230895442389F0E62FF0E0ED5EFE4FEC
S1130170408121E030E0B90102C0660F771F8A9503
S1130180E2F7CB01842B80830895E62FF0E0ED5E47
S1130190FE4F408121E030E0B90102C0660F771FB5
S11301A08A95E2F7CB018095842380830895CF93C9
S11301B0DF93EB0190E0AC01440F551F480F591F2A
S11301C09B01ADECBCEC0E94F009FC01F695E795AF
S11301D0F695E795F695E7959F01220F331FCF011A
S11301E0880F991F880F991F880F991F820F931FDB
S11301F09E01281B390BDA01A65FBE4F2C939F0189
S1130200ADECBCEC0E94F009969587959695879580
S1130210969587959C01220F331F880F991F880F8D
S1130220991F880F991F820F931FE81BF90BDA019E
S1130230A55FBE4FEC939E0136952795369527957D
S1130240ABE7B4E10E94F009FC01F695E7959F0144
S1130250ADECBCEC0E94F009969587959695879530
S1130260969587959C01220F331F880F991F880F3D
S1130270991F880F991F820F931FE81BF90BDA014E
S1130280A45FBE4FEC93DF91CF9108951F93CF935A
S1130290DF93182FD0E00BC0412F6C2F8D2F0E94BD
S11302A0B200CF5FC630C1F7DF5FD63011F0C0E0D7
S11302B0F3CFDF91CF911F9108951F920F920FB644
S11302C00F9211242F933F934F935F936F937F93D8
S11302D08F939F93AF93BF93EF93FF938091CD023E
S11302E0833090F54091CD02E091CD02F0E0ED5ED7
S11302F0FE4F2081277060E1269F9001112481E048
S113030090E0BC0102C0660F771F4A95E2F7262BE6
S1130310A4E0B1E013962C9313971C9211961C92AF
S113032011973091CD02E091CD02F0E0ED5EFE4FE9
S113033020812873220F02C0880F991F3A95E2F793
S1130340822B12968C9333C0A4E0B1E013961C92D6
S113035013978091CD02E091CD02F0E0ED5EFE4F67
S11303609081835021E030E0A90102C0440F551F61
S11303708A95E2F7977070E1979FC0011124842B4E
S11303808C939091CD02E091CD02F0E0ED5EFE4FB2
S11303908081935002C0220F331F9A95E2F788732D
S11303A0880F282B11962C93119712961C928091EA
S11303B0CD0290E0019666E070E00E94DC09809333
S11303C0CD02E091CE02F0E0E65FFE4FE081F0E086
S11303D0E95DFE4F8081809309018091CE028111F5
S11303E007C0E4E0F1E085818068858314820CC055
S11303F02091CE02215081E090E002C0880F991F25
S11304002A95E2F7809308018091CE0290E001964C
S113041069E070E00E94DC098093CE02289873980A
S1130420289A739A28981092CC02E091CC0281E029
S11304308E0F8093CC02F0E0EC5FFE4F80818EBD86
S1130440FF91EF91BF91AF919F918F917F916F91A8
S11304505F914F913F912F910F900FBE0F901F907E
S113046018951F920F920FB60F9211242F933F935A
S11304708F939F93EF93FF933FEF3AB917B820916F
S1130480CD022E5F81E090E002C0880F991F2A956B
S1130490E2F780958BB9E091CD02F0E086B18095CA
S11304A0ED52FD4F80833BB9FF91EF919F918F9166
S11304B03F912F910F900FBE0F901F9018951F9290
S11304C00F920FB60F9211248F93EF93FF938091A5
S11304D0CC02863010F0289A0BC0E091CC0281E067
S11304E08E0F8093CC02F0E0EC5FFE4F80818EBDD6
S11304F0FF91EF918F910F900FBE0F901F90189561
S1130500CF93C82F8A3019F48DE00E948002E0EC6A
S1130510F0E0808185FFFDCFC093C60080E090E0CD
S1130520CF91089588E18093C10086E08093C20052
S113053083E38093C40008951F920F920FB60F9225
S113054011248F939F93EF93FF93219A8091CF026D
S11305509091D0028630910509F44EC030F4813078
S1130560910561F0039749F17AC08E30910509F441
S113057062C08034910509F463C071C0E091D10276
S1130580F091D202EE0FFF1FED54FD4F8081918157
S11305909093870080938600E091D102F091D2027B
S11305A0EE0FFF1FED54FD4F808191819695879545
S11305B0909389008093880052C0E091D102F09119
S11305C0D202EE0FFF1FEB54FD4F80819181909377
S11305D0870080938600E091D102F091D202EE0F61
S11305E0FF1FED54FD4F80819181969587959093DF
S11305F089008093880033C0E091D102F091D20247
S1130600EE0FFF1FE954FD4F808191819093870085
S113061080938600E091D102F091D202EE0FFF1F89
S1130620ED54FD4F80819181969587959093890033
S11306308093880014C010928900109288000FC023
S11306401092D2021092D1028FEF9FEF9093D002BA
S11306508093CF0285B58A7F85BD16BC2198809191
S1130660CF029091D00201969093D0028093CF0252
S1130670FF91EF919F918F910F900FBE0F901F905C
S113068018951F920F920FB60F9211248F93809199
S1130690E702882329F08091E70281508093E702E2
S11306A08F910F900FBE0F901F901895AF92BF922D
S11306B0CF92DF92EF92FF920F931F93CF93DF932A
S11306C080E00E9446018091F50281116FC0689418
S11306D0DD24D3F80F2EF9E3AF2EF1E0BF2EF02D79
S11306E0EE24E3940F2EFDECFF2EF02DDBEA609157
S11306F0E8027091E90280E00E94D7006091E8026C
S11307007091E90282E00E94D700BF92AF920E94EA
S11307106F0A0F900F9010E00DC0412F4C0F4170E5
S11307206C2F812F0E94B200CF5FC630B1F71F5FDC
S1130730163011F0C0E0F1CF2FEF84E39CE021509C
S113074080409040E1F700C0000060E070E080E08D
S11307500E94D70060E070E082E00E94D700C0E011
S11307604C2F4E254170CF9D612D112466956695C1
S1130770CD9F812D112486958695982F990F890FE9
S1130780880F2C2F281B822F0E94B200CF5FCE31FE
S113079039F78FEF94E32CE0815090402040E1F74B
S11307A000C00000DA94D110A2CF9CC02091EA02CC
S11307B03091EB028091EC029091ED028217930745
S11307C028F00F2EF3E0CF2EF02D01C0C12C689439
S11307D0DD24D2F8EC2CF12C87010D5F1F4F6091C2
S11307E0F8027091F9028091EA029091EB02861767
S11307F0970739F08091EC029091ED026817790720
S113080079F480E00E94D70060E070E081E00E940B
S1130810D7006091F8027091F90282E00E94D7003B
S1130820E016F10684F012C041E06C2F8D2F0E9477
S1130830B200CF5FC530C1F7DF5F8D2F90E0801726
S1130840910714F003C0DC2DC0E0EECF8FEF94E3EA
S11308502CE0815090402040E1F700C000008091DE
S1130860F8029091F9022091EA023091EB022817E4
S1130870390739F02091EC023091ED028217930789
S113088079F460E070E080E00E94D70060E070E0FE
S113089081E00E94D70060E070E082E00E94D7000F
S11308A0E016F10684F012C040E06C2F8D2F0E94F8
S11308B0B200CF5FC530C1F7DF5F8D2F90E08017A6
S11308C0910714F003C0DC2DC0E0EECF8FEF94E36A
S11308D02CE0815090402040E1F700C00000DA9401
S11308E0D1107DCFDF91CF911F910F91FF90EF90A9
S11308F0DF90CF90BF90AF900895811111C0809187
S1130900EA029091EB02680F791F683E83E0780752
S113091010F067EE73E07093EB026093EA020895BF
S1130920813081F48091EC029091ED02680F791F7F
S1130930683E83E0780710F067EE73E07093ED0291
S11309406093EC020895CF92DF92EF92FF920F939F
S11309501F93CF93DF9381E00E9446012FEF89E636
S113096098E1215080409040E1F700C0000080E011
S11309700E9446012FEF89E698E121508040904083
S1130980E1F700C0000081E00E9446012FEF84E3FC
S11309909CE0215080409040E1F700C0000080912D
S11309A0DB028093E7021092A5001092A40085E078
S11309B08093A1008091F502811105C06091E80245
S11309C07091E90204C06091F8027091F90280E02C
S11309D00E94D700CC24C394D12C5CC06091E70260
S11309E070E081E00E94D7008091F502813079F4B3
S11309F06091EA027091EB0280E00E94D70060915E
S1130A00EC027091ED0282E00E94D7004FC0609129
S1130A10EA027091EB0282E00E94D70047C06C2F7B
S1130A208D2F0E94A400882339F1C601002E02C034
S1130A30880F991F0A94E2F7892BF1F440E06C2F98
S1130A408D2F0E94B2008091F502811106C0609141
S1130A50FA0270E00E947D040FC0D33038F0609138
S1130A60FA0270E081E00E947D0406C06091FA02FF
S1130A7070E080E00E947D04CF5F0F5F1F4FC530A0
S1130A8071F6DF5F25E0E20EF11CD63019F0870124
S1130A90C0E0C5CF8091E7028111A0CF1092A100E0
S1130AA060E070E081E00E94D70004C0E12CF12CEA
S1130AB0D0E0EDCFDF91CF911F910F91FF90EF9098
S1130AC0DF90CF90089590E09093D2028093D1026A
S1130AD01092D0021092CF0285E085BD08957F92D6
S1130AE08F929F92AF92BF92CF92DF92EF92FF923A
S1130AF00F931F93CF93DF9380E00E944601809170
S1130B00F5028823A1F0C0E04C2F417060E082E040
S1130B100E94B2002FEF81EE94E02150804090407B
S1130B20E1F700C00000CF5FC83071F713C0C0E028
S1130B304C2F417060E083E00E94B200EFEFF1EED1
S1130B4024E0E150F0402040E1F700C00000CF5F16
S1130B50C83071F782E00E9463058FEF9CEBEFE1F0
S1130B6081509040E040E1F700C0000000E010E058
S1130B70712C0F2EF3E0CF2ED12CF02D0F2EFCE58F
S1130B80AF2EF1E0BF2EF02DDF92CF92BF92AF9245
S1130B900E946F0A80E00E944601C8018F589D4F51
S1130BA04C01E801CE56DD4F78019BE0E90EF11CC3
S1130BB087010F581D4F0F900F900F900F90F40165
S1130BC061914F0141E089910E94B2008016910623
S1130BD0B1F7872D0E946305FFEF23ED80E3F15009
S1130BE020408040E1F700C0000091E0C91AD1081C
S1130BF073948701C114D10439F6DF91CF911F9109
S1130C000F91FF90EF90DF90CF90BF90AF909F90A7
S1130C108F907F9008953F924F926F927F928F9220
S1130C209F92AF92BF92CF92DF92EF92FF920F9377
S1130C301F93CF93DF930E946F0586E491E00E9497
S1130C40850A1092EB021092EA021092ED021092C1
S1130C50EC0281E08093DA028093D9020F2EF2EF46
S1130C60EF2EF2E0FF2EF02D0EED12E0CFEED2E0EB
S1130C700F2EF3E0CF2ED12CF02D0F2EF5E0AF2E5A
S1130C80B12CF02D0E945F0AB6010E94DC09899301
S1130C900E945F0AB5010E94DC09F80181938F016B
S1130CA00E945F0AB6010E94DC098D5F8A830E945C
S1130CB05F0AB5010E94DC09F8018283CE15DF05C5
S1130CC009F78091F7028093E7028091E7021F926F
S1130CD08F9381E591E09F938F930E946F0A109206
S1130CE0A5001092A400E1EAF0E080818560808391
S1130CF06091E8027091E90280E00E94D70080913F
S1130D00E7021F928F9380E691E09F938F930E9456
S1130D106F0A8DB79EB708960FB6F8949EBF0FBEA4
S1130D208DBF0F2EF3E0EF2EF12CF02D0F2EF5E0FA
S1130D308F2E912CF02DC8C08091E7021F928F93C3
S1130D40E3E7F1E0FF93EF930E946F0A6091E702FB
S1130D5070E081E00E94D7000F900F900F900F90E9
S1130D608091F502813079F46091EA027091EB028E
S1130D7080E00E94D7006091EC027091ED0282E065
S1130D800E94D700AFC06091EA027091EB0282E04A
S1130D900E94D700A7C03601E501F6016081888171
S1130DA00E94A400882309F467C04880F6013080BB
S1130DB082E891E00E94850A133040F00E945F0AA5
S1130DC0B7010E94DC098D5F888306C00E945F0A18
S1130DD0B7010E94DC0988830E945F0AB4010E9463
S1130DE0DC098F5FF30180839881491202C03816B1
S1130DF0F9F28091F502811114C06091DA0270E079
S1130E000E947D048091DA020E9463059091DA02C7
S1130E108091F602981711F081E0890F8093DA022D
S1130E202BC01330A8F06091D90270E081E00E94D9
S1130E307D048091D9020E9463059091D90280912A
S1130E40F602981711F081E0890F8093D90214C03B
S1130E506091DA0270E080E00E947D048091DA0201
S1130E600E9463059091DA028091F602981711F0BE
S1130E7081E0890F8093DA021F5FFFEFCF1ADF0A48
S1130E802FEFA21AB20A163009F085CF8091DA0248
S1130E90823010F08091E7028091D902823010F004
S1130EA08091E70280E00E944601CFEED2E00EED91
S1130EB012E0F80161918F0141E089910E94B20032
S1130EC0F2E0043E1F07A9F78091E702811134CFB5
S1130ED086E891E00E94850AE1EAF0E08081887F5B
S1130EE080830EC00F2EFFEEAF2EF2E0BF2EF02D4A
S1130EF00F2EFEEDCF2EF2E0DF2EF02D10E04BCFC3
S1130F00DF91CF911F910F91FF90EF90DF90CF90E1
S1130F10BF90AF909F908F907F906F904F903F9035
S1130F2008950F931F93CF93DF93009751F18C0192
S1130F30C0E0D0E060E083E00E94A400811106C01C
S1130F4060E082E00E94A4008823B1F060E082E0C7
S1130F500E94A4008093F50290E001969F938F93E2
S1130F6080E991E09F938F930E946F0A0F900F90F6
S1130F700F900F9081E006C021960C171D07D1F643
S1130F8001C080E0DF91CF911F910F910895CF921E
S1130F90DF92FF920F931F93CF93DF936091E80248
S1130FA07091E90280E00E94D70060E070E081E087
S1130FB00E94D7006091F8027091F90280E00E94CB
S1130FC0D7000E945F0A0F2EF5E0FF2EF02D6894E3
S1130FD0CC24C1F8D12C11E02EC00D2FDD2319F043
S1130FE08F2D8C1B01C08C2F41E0612F0E94B20019
S1130FF080E197E20E949107811159C0CF5FC6300A
S113100061F7402F60E083E00E94B200A6014170C6
S11310105078552334F4415051094E6F5F6F4F5F40
S11310205F4F60E082E00E94B2001F5F8FEFC81A3A
S1131030D80A163099F1C0E0D12FD170CECF0D2F40
S1131040DD2319F08F2D8C1B01C08C2F40E0612F04
S11310500E94B20080E197E20E949107811127C0AB
S1131060CF5FC63061F7A60141705078552334F440
S1131070415051094E6F5F6F4F5F5F4F60E083E0F7
S11310800E94B200402F60E082E00E94B2001F5F25
S11310908FEFC81AD80A163031F499CF6894CC244B
S11310A0C1F8D12C11E0C0E0D12FD170C8CFDF91AD
S11310B0CF911F910F91FF90DF90CF900895F999F0
S11310C0FECF92BD81BD60BDFA9AF99A0895F9994F
S11310D0FECF92BD81BDF89A80B508950E94D209D1
S11310E00E94D7090E9498000E94920289E191E02F
S11310F09093FE028093FD0283EA91E00E94850AA8
S1131100789484B1826284B9109287001092860028
S11311101092890010928800E0E8F0E080818268F3
S11311208083E1E8F0E080818A618083299882E00D
S113113084BD15BC9DE797BD80936E008DEC91E056
S11311400E94850A80E090E00E946708C82F81E031
S113115090E00E9467082C2F30E0322F2227282BA2
S11311603093E9022093E80282E090E00E9467084D
S1131170C82F83E090E00E9467082C2F30E0322FC4
S11311802227282B3093F9022093F80280E190E083
S11311900E9467088093F70280E290E00E9467084B
S11311A08093DB0280E590E00E9467088093F6025A
S11311B080E690E00E9467088093FA0280E490E061
S11311C00E946708C82F81E490E00E9467082C2FD2
S11311D030E0322F2227A901482BCA010E94640A59
S11311E00E945F0A907899231CF401979F6F0196DF
S11311F0682F80E490E00E945F080E945F0A907864
S113120099231CF401979F6F0196682F81E490E065
S11312100E945F0885EE91E00E94850A8091FA029F
S11312201F928F938091F6021F928F938091DB021D
S11312301F928F938091F7021F928F938091F902EE
S11312408F938091F8028F938091E9028F9380911C
S1131250E8028F9388EF91E09F938F930E946F0A27
S113126081E490E00E946708C82F80E490E00E9427
S113127067081F92CF931F928F9385E392E09F9309
S11312808F930E946F0AE1EAF0E088E08083808116
S1131290808382E08093720089E09DE39093A900AB
S11312A08093A80078948DB79EB744960FB6F894AF
S11312B09EBF0FBE8DBF8AE492E00E94850A0E9401
S11312C0C70783E692E00E94850A0E940B069FEFFF
S11312D02EE944E2915020404040E1F700C0000074
S11312E00E94A3048091F502811112C08091EA0248
S11312F09091EB022091E8023091E9022817390716
S113130038F59093E9028093E8020E94560320C0C6
S11313108091EA029091EB022091F8023091F90257
S11313202817390738F04091EC025091ED02241748
S1131330350760F42091EC023091ED02281739074B
S113134008F49C013093F9022093F8020E9456039A
S11313505FEF8EE994E2515080409040E1F700C085
S11313600000A9CF7098689A0895699808950E941A
S1131370B5090E94B2090895689808950E94BC09AD
S11313802FEF8DE399E4215080409040E1F700C0B5
S113139000000E94B2098FE39FE10197F1F700C0BA
S11313A0000008950E94BE090E94B70908950E9492
S11313B0B5090E94BC09089597FB072E16F4009402
S11313C007D077FD09D00E94FF0907FC05D03EF441
S11313D0909581959F4F0895709561957F4F0895DD
S11313E0A29FB001B39FC001A39F700D811D112462
S11313F0911DB29F700D811D1124911D0895AA1B8A
S1131400BB1B51E107C0AA1FBB1FA617B70710F0EB
S1131410A61BB70B881F991F5A95A9F7809590951D
S1131420BC01CD0108958F929F92AF92BF92CF924B
S1131430DF92EF92FF92CF93DF93EC016881798181
S11314408A819B81611571058105910521F464E20E
S113145079ED8BE597E02DE133EF41E050E00E9418
S1131460460D49015A019B01AC01A7EAB1E40E946F
S1131470650D6B017C01ACEEB4EFA50194010E94F3
S1131480730DDC01CB018C0D9D1DAE1DBF1DB7FF7F
S113149003C00197A109B04888839983AA83BB83B9
S11314A09F77DF91CF91FF90EF90DF90CF90BF9027
S11314B0AF909F908F9008950E94130A089580E042
S11314C091E00E94130A0895A0E0B0E08093000127
S11314D090930101A0930201B09303010895A0E049
S11314E0B0E0E5E7FAE00C94880DAE014B5F5F4F86
S11314F0FA0161917191AF018091FD029091FE0218
S11315000E94B50AE2E00C94A40D0F931F93CF93AD
S1131510DF93E091FD02F091FE02238121FF1BC0C5
S11315208C01D0E0C0E0F80181918F016091FD024F
S11315307091FE02DB011896ED91FC9119978823B6
S113154031F00995892B79F3DFEFCFEFECCF8AE007
S11315500995892B19F08FEF9FEF02C08D2F9C2FD7
S1131560DF91CF911F910F910895ABE0B0E0EBEBC9
S1131570FAE00C94780D6C017B018A01FC0117825E
S11315801682838181FFCCC1CE0101963C01F60114
S11315909381F70193FD859193FF81917F018823C6
S11315A009F4BAC1853239F493FD859193FF819191
S11315B07F01853229F4B60190E00E94AC0CE7CF9C
S11315C0912C212C312CFFE1F315D8F08B3279F0DA
S11315D038F4803279F08332A1F4232D20611DC0C8
S11315E08D3261F0803369F4232D216016C0832D80
S11315F08260382EE32DE4603E2E2AC0F32DF8607D
S11316001DC037FC2DC020ED280F2A3040F08E324B
S1131610B9F436FC81C1232D2064322E19C036FE64
S113162006C08AE0989E200D1124922E11C0EAE093
S11316302E9E200D1124222EF32DF0623F2E08C081
S11316408C3621F4832D8068382E02C0883641F40C
S1131650F70193FD859193FF81917F018111B3CFB0
S1131660982F9F7D9554933028F40C5F1F4F9FE370
S113167099830DC0833631F0833771F0833509F0D7
S113168059C021C0F801808189830E5F1F4F8824CF
S11316908394912C530113C02801F2E04F0E511C86
S11316A0F801A080B18036FE03C0692D70E002C04D
S11316B06FEF7FEFC5010E94A10C4C018201F32D55
S11316C0FF773F2E16C0280122E0420E511CF8017C
S11316D0A080B18036FE03C0692D70E002C06FEFB8
S11316E07FEFC5010E94960C4C01F32DF0683F2E4C
S11316F0820133FC1BC0822D90E088169906B0F459
S1131700B60180E290E00E94AC0C2A94F4CFF5017B
S113171037FC859137FE81915F01B60190E00E940C
S1131720AC0C21102A9421E0821A910881149104AE
S113173071F7E8C0843611F0893641F5F80137FEB7
S113174007C060817181828193810C5F1F4F08C043
S113175060817181072E000C880B990B0E5F1F4F5F
S1131760F32DFF763F2E97FF09C0909580957095D5
S113177061957F4F8F4F9F4FF0683F2E2AE030E0F6
S1131780A3010E94E80C882E861845C0853731F4E1
S1131790232D2F7EB22E2AE030E025C0932D997F91
S11317A0B92E8F36C1F018F4883579F0B5C080377A
S11317B019F0883721F0B0C0E92FE061BE2EB4FEE5
S11317C00DC0FB2DF460BF2E09C034FE0AC0292FC2
S11317D02660B22E06C028E030E005C020E130E0EB
S11317E002C020E132E0F801B7FE07C060817181D8
S11317F0828193810C5F1F4F06C06081718180E0FC
S113180090E00E5F1F4FA3010E94E80C882E8618FB
S1131810FB2DFF773F2E36FE0DC0232D2E7FA22EEB
S1131820891458F434FE0BC032FC09C0832D8E7E1B
S1131830A82E05C0B82CA32C03C0B82C01C0B92C09
S1131840A4FE0FC0FE01E80DF11D8081803321F458
S11318509A2D997EA92E09C0A2FE06C0B394B39412
S113186004C08A2D867809F0B394A3FC11C0A0FEAD
S113187006C0B21488F4280C922C9B180EC0B21423
S113188060F4B60180E290E00E94AC0CB394F7CF10
S1131890B21418F42B1802C0982C212CA4FE10C0EA
S11318A0B60180E390E00E94AC0CA2FE17C0A1FC3C
S11318B003C088E790E002C088E590E0B6010CC060
S11318C08A2D867859F0A1FE02C08BE201C080E225
S11318D0A7FC8DE2B60190E00E94AC0C891438F4A8
S11318E0B60180E390E00E94AC0C9A94F7CF8A94FE
S11318F0F301E80DF11D8081B60190E00E94AC0C6B
S11319008110F5CF222009F442CEB60180E290E0A6
S11319100E94AC0C2A94F6CFF6018681978102C00E
S11319208FEF9FEF2B96E2E10C94940DFC01059050
S1131930615070400110D8F7809590958E0F9F1FCD
S11319400895FC016150704001900110D8F7809512
S113195090958E0F9F1F08950F931F93CF93DF933E
S1131960FB01238121FD03C08FEF9FEF2CC022FFD9
S113197016C046815781248135814217530744F4A8
S1131980A081B1819D012F5F3F4F318320838C93D0
S1131990268137812F5F3F4F3783268314C08B0105
S11319A0EC01FB010084F185E02D0995892BE1F61A
S11319B0D80116968D919C911797019617969C9332
S11319C08E931697CE01DF91CF911F910F910895B9
S11319D0FA01AA27283051F1203181F1E8946F935C
S11319E06E7F6E5F7F4F8F4F9F4FAF4FB1E03ED002
S11319F0B4E03CD0670F781F891F9A1FA11D680FA0
S1131A00791F8A1F911DA11D6A0F711D811D911DD2
S1131A10A11D20D009F468943F912AE0269F112447
S1131A203019305D3193DEF6CF010895462F4770AB
S1131A30405D4193B3E00FD0C9F7F6CF462F4F7006
S1131A40405D4A3318F0495D31FD4052419302D064
S1131A50A9F7EACFB4E0A69597958795779567950A
S1131A60BA95C9F700976105710508959B01AC010A
S1131A700A2E06945795479537952795BA95C9F731
S1131A80620F731F841F951FA01D0895052E97FBD9
S1131A901EF400940E945D0D57FD07D00E94AF0D07
S1131AA007FC03D04EF40C945D0D50954095309591
S1131AB021953F4F4F4F5F4F0895909580957095B6
S1131AC061957F4F8F4F9F4F08950E94F009A59F06
S1131AD0900DB49F900DA49F800D911D1124089525
S1131AE0B7FF0C94650D0E94650D821B930B08953E
S1131AF02F923F924F925F926F927F928F929F921A
S1131B00AF92BF92CF92DF92EF92FF920F931F9307
S1131B10CF93DF93CDB7DEB7CA1BDB0B0FB6F894B8
S1131B20DEBF0FBECDBF09942A88398848885F84F8
S1131B306E847D848C849B84AA84B984C884DF8069
S1131B40EE80FD800C811B81AA81B981CE0FD11D4D
S1131B500FB6F894DEBF0FBECDBFED010895A1E22C
S1131B601A2EAA1BBB1BFD010DC0AA1FBB1FEE1F13
S1131B70FF1FA217B307E407F50720F0A21BB30B5E
S1131B80E40BF50B661F771F881F991F1A9469F7DA
S1131B9060957095809590959B01AC01BD01CF0136
S1091BA00895F894FFCF44
S1131BA601000000FFFFFFFFFFFF00010203040521
S1131BB60607080000000000000000000200000004
S1131BC6008002000000003F065B4F666D7D077FC4
S1131BD667777C395E7971003E636865636B65720D
S1131BE6626F6172640047414D452053544152541B
S1131BF600726F756E642074696D652025640A0031
S1131C0674696D652072656D61696E696E672025FC
S1131C16640A002564732052454D41494E494E4796
S1131C260A006261640047414D61206F766172006B
S1131C365354415254494E4720256450206D6F64D5
S1131C46650A000A0A57656C636F6D6520746F2018
S1131C5662617274656E64696E6720726F626F7416
S1131C66204F532076657220342E37420041554466
S1131C76494F2054494D455253202620504F525423
S1131C862053455400454550524F4D2056414C551E
S1131C964553205345543A00485331503A2025645D
S1131CA6200920485332503A2025642009205254F2
S1131CB63A20256420092042543A2025642009202C
S1131CC64D4D41583A2025642009204250433A207C
S1131CD62564200A0052414E444F4D534545443A2B
S1131CE6203078255825580A0A000A0A0A5354410E
S1131CF65254494E472041545452414354204D4F67
S1131D064445005354415254494E472047414D459A
S1131D160001010102030303040505050101010293
S1131D260303030405050501020203040505050072
S1131D36000003020101030201010302010403027C
S1131D460204030204040302020302020203020160
S1131D56000000C111D20FEE0E4D0DDA0B2F0BF75A
S10F1D6609E108E8077707A706ED05006F
S9030000FC
