S014000073706565644F664C696768742E7372656352
S11300000C945A000C9477000C9477000C947700AD
S11300100C9477000C9477000C9477000C94770080
S11300200C9477000C9477000C9477000C94770070
S11300300C9477000C9477000C942E020C947700A7
S11300400C9477000C94F1010C9477000C947700D5
S11300500C9477000C9477000C9477000C94770040
S11300600C9477000C9477000C9477000C94770030
S11300700C9477000C9477000C9477000C94770020
S11300800C9477000C94EF000C94C3010C9477004B
S11300900C9477000C9477000C9477000C94770000
S11300A00C9477000C9477000C94D3020C94770092
S11300B00C94770011241FBECFEFD8E0DEBFCDBF74
S11300C012E0A0E0B1E0E4E4FAE102C005900D9290
S11300D0AC39B107D9F722E0ACE9B2E001C01D9216
S11300E0A13DB207E1F70E94BF070C94200D0C94C8
S11300F0000084B1886284B981ED8CBD08958AE0E2
S11301008093910088EB9BE09093990080939800F2
S11301108AE397E090939B0080939A00E1E7F0E0F4
S113012080818660808310929500109294000895D7
S11301308FEF8AB988B9209A6B9A6A9A739A0E9447
S113014079000E947F000895E82FF0E0ED55FD4FFF
S1130150208181E090E002C0880F991F6A95E2F740
S113016082230895442389F0E62FF0E0ED5EFE4FEC
S1130170408121E030E0B90102C0660F771F8A9503
S1130180E2F7CB01842B80830895E62FF0E0ED5E47
S1130190FE4F408121E030E0B90102C0660F771FB5
S11301A08A95E2F7CB01809584238083089508958E
S11301B01F93CF93DF93182FD0E00BC0412F6C2FE8
S11301C08D2F0E94B200CF5FC630C1F7DF5FD630FB
S11301D011F0C0E0F3CFDF91CF911F9108951F92EA
S11301E00F920FB60F9211242F933F934F935F9367
S11301F06F937F938F939F93AF93BF93EF93FF93EB
S113020080919D02833090F540919D02E0919D0282
S1130210F0E0ED5EFE4F2081277060E1269F9001A3
S1130220112481E090E0BC0102C0660F771F4A955B
S1130230E2F7262BA4E0B1E013962C9313971C92BB
S113024011961C92119730919D02E0919D02F0E06D
S1130250ED5EFE4F20812873220F02C0880F991F84
S11302603A95E2F7822B12968C9333C0A4E0B1E066
S113027013961C92139780919D02E0919D02F0E0E9
S1130280ED5EFE4F9081835021E030E0A90102C071
S1130290440F551F8A95E2F7977070E1979FC0014C
S11302A01124842B8C9390919D02E0919D02F0E0A7
S11302B0ED5EFE4F8081935002C0220F331F9A954A
S11302C0E2F78873880F282B11962C9311971296B6
S11302D01C9280919D0290E0019666E070E00E947D
S11302E02B0980939D02E0919E02F0E0E65FFE4FB1
S11302F0E081F0E0E95DFE4F808180930901809107
S11303009E02811107C0E4E0F1E085818068858365
S113031014820CC020919E02215081E090E002C022
S1130320880F991F2A95E2F78093080180919E0215
S113033090E0019669E070E00E942B0980939E0290
S113034028987398289A739A289810929C02E0919E
S11303509C0281E08E0F80939C02F0E0EC5FFE4FE4
S113036080818EBDFF91EF91BF91AF919F918F914D
S11303707F916F915F914F913F912F910F900FBE9D
S11303800F901F9018951F920F920FB60F92112481
S11303902F933F938F939F93EF93FF933FEF3AB93C
S11303A017B820919D022E5F81E090E002C0880F73
S11303B0991F2A95E2F780958BB9E0919D02F0E0B0
S11303C086B18095ED55FD4F80833BB9FF91EF9148
S11303D09F918F913F912F910F900FBE0F901F907F
S11303E018951F920F920FB60F9211248F93EF93CB
S11303F0FF9380919C02863010F0289A0BC0E09104
S11304009C0281E08E0F80939C02F0E0EC5FFE4F33
S113041080818EBDFF91EF918F910F900FBE0F9051
S11304201F901895CF93C82F8A3019F48DE00E943D
S11304301202E0ECF0E0808185FFFDCFC093C6009E
S113044080E090E0CF91089588E18093C10086E038
S11304508093C20083E38093C40008951F920F9297
S11304600FB60F9211248F939F93EF93FF93219ACA
S113047080919F029091A0028630910509F44EC0AC
S113048030F48130910561F0039749F17AC08E30E0
S1130490910509F462C08034910509F463C071C008
S11304A0E091A102F091A202EE0FFF1FED57FD4F64
S11304B0808191819093870080938600E091A102CE
S11304C0F091A202EE0FFF1FED57FD4F8081918145
S11304D096958795909389008093880052C0E09107
S11304E0A102F091A202EE0FFF1FEB57FD4F808196
S11304F091819093870080938600E091A102F0910E
S1130500A202EE0FFF1FED57FD4F8081918196955A
S11305108795909389008093880033C0E091A1026D
S1130520F091A202EE0FFF1FE957FD4F80819181E8
S11305309093870080938600E091A102F091A2023B
S1130540EE0FFF1FED57FD4F8081918196958795A2
S1130550909389008093880014C0109289001092AF
S113056088000FC01092A2021092A1028FEF9FEF99
S11305709093A00280939F0285B58A7F85BD16BCA7
S1130580219880919F029091A00201969093A002DD
S113059080939F02FF91EF919F918F910F900FBED7
S11305A00F901F9018951F920F920FB60F9211245F
S11305B08F938091B702882329F08091B7028150EC
S11305C08093B7028F910F900FBE0F901F901895D4
S11305D0AF92BF92CF92DF92EF92FF920F931F934D
S11305E0CF93DF9380E00E94D8008091C5028111EF
S11305F06FC06894DD24D3F80F2EF8E3AF2EF1E03A
S1130600BF2EF02DEE24E3940F2EFDECFF2EF02DE3
S1130610DBEA6091B8027091B90280E00E94D700D1
S11306206091B8027091B90282E00E94D700BF9233
S1130630AF920E94AF090F900F9010E00DC0412FB0
S11306404C0F41706C2F812F0E94B200CF5FC630D7
S1130650B1F71F5F163011F0C0E0F1CF2FEF84E344
S11306609CE0215080409040E1F700C0000060E031
S113067070E080E00E94D70060E070E082E00E94B9
S1130680D700C0E04C2F4E254170CF9D612D112421
S113069066956695CD9F812D112486958695982F14
S11306A0990F890F880F2C2F281B822F0E94B200CC
S11306B0CF5FCE3139F78FEF94E32CE08150904037
S11306C02040E1F700C00000DA94D110A2CF9CC012
S11306D02091BA023091BB028091BC029091BD027C
S11306E08217930728F00F2EF3E0CF2EF02D01C0D0
S11306F0C12C6894DD24D2F8EC2CF12C87010D5F19
S11307001F4F6091C8027091C9028091BA02909102
S1130710BB028617970739F08091BC029091BD0205
S11307206817790779F480E00E94D70060E070E0F0
S113073081E00E94D7006091C8027091C90282E0F2
S11307400E94D700E016F10684F012C041E06C2F3D
S11307508D2F0E94B200CF5FC530C1F7DF5F8D2FB0
S113076090E08017910714F003C0DC2DC0E0EECFB9
S11307708FEF94E32CE0815090402040E1F700C0DB
S113078000008091C8029091C9022091BA02309170
S1130790BB022817390739F02091BC023091BD0201
S11307A08217930779F460E070E080E00E94D7003C
S11307B060E070E081E00E94D70060E070E082E0D9
S11307C00E94D700E016F10684F012C040E06C2FBE
S11307D08D2F0E94B200CF5FC530C1F7DF5F8D2F30
S11307E090E08017910714F003C0DC2DC0E0EECF39
S11307F08FEF94E32CE0815090402040E1F700C05B
S11308000000DA94D1107DCFDF91CF911F910F9129
S1130810FF90EF90DF90CF90BF90AF90089581113B
S113082011C08091BA029091BB02680F791F683E93
S113083083E0780710F067EE73E07093BB02609377
S1130840BA020895813081F48091BC029091BD0276
S1130850680F791F683E83E0780710F067EE73E055
S11308607093BD026093BC020895CF92DF92EF9221
S1130870FF920F931F93CF93DF9381E00E94D800E0
S11308802FEF89E698E1215080409040E1F700C0C5
S1130890000080E00E94D8002FEF89E698E1215003
S11308A080409040E1F700C0000081E00E94D80041
S11308B02FEF84E39CE0215080409040E1F700C09A
S11308C000008091AB028093B7021092A5001092B1
S11308D0A40085E08093A1008091C502811105C028
S11308E06091B8027091B90204C06091C80270911D
S11308F0C90280E00E94D700CC24C394D12C5CC0F0
S11309006091B70270E081E00E94D7008091C50237
S1130910813079F46091BA027091BB0280E00E9448
S1130920D7006091BC027091BD0282E00E94D700A2
S11309304FC06091BA027091BB0282E00E94D7005E
S113094047C06C2F8D2F0E94A400882339F1C60163
S1130950002E02C0880F991F0A94E2F7892BF1F444
S113096040E06C2F8D2F0E94B2008091C50281114E
S113097006C06091CA0270E00E940F040FC0D33019
S113098038F06091CA0270E081E00E940F0406C052
S11309906091CA0270E080E00E940F04CF5F0F5F95
S11309A01F4FC53071F6DF5F25E0E20EF11CD63033
S11309B019F08701C0E0C5CF8091B7028111A0CFA3
S11309C01092A10060E070E081E00E94D70004C0B2
S11309D0E12CF12CD0E0EDCFDF91CF911F910F915D
S11309E0FF90EF90DF90CF90089590E09093A20253
S11309F08093A1021092A00210929F0285E085BD0F
S1130A0008957F928F929F92AF92BF92CF92DF927E
S1130A10EF92FF920F931F93CF93DF9380E00E9496
S1130A20D8008091C5028823A1F0C0E04C2F41700A
S1130A3060E082E00E94B2002FEF81EE94E021504A
S1130A4080409040E1F700C00000CF5FC83071F7EC
S1130A5013C0C0E04C2F417060E083E00E94B200FC
S1130A60EFEFF1EE24E0E150F0402040E1F700C068
S1130A700000CF5FC83071F784E00E94F5048FEF67
S1130A809CEBEFE181509040E040E1F700C00000B2
S1130A9000E010E0712C0F2EF3E0CF2ED12CF02DBE
S1130AA00F2EF5E4AF2EF1E0BF2EF02DDF92CF92A2
S1130AB0BF92AF920E94AF0980E00E94D800C801A3
S1130AC08F5B9D4F4C01E801CE59DD4F78019BE0CF
S1130AD0E90EF11C87010F5B1D4F0F900F900F90D3
S1130AE00F90F40161914F0141E089910E94B2009D
S1130AF080169106B1F7872D0E94F504FFEF23EDD0
S1130B0080E3F15020408040E1F700C0000091E014
S1130B10C91AD10873948701C114D10439F6DF913D
S1130B20CF911F910F91FF90EF90DF90CF90BF90E6
S1130B30AF909F908F907F9008953F924F926F92C5
S1130B407F928F929F92AF92BF92CF92DF92EF9259
S1130B50FF920F931F93CF93DF930E94010589E4C3
S1130B6091E00E94C5091092BB021092BA02109241
S1130B70BD021092BC0281E08093AA028093A90274
S1130B800F2EF2ECEF2EF2E0FF2EF02D0EEA12E023
S1130B90CFEBD2E00F2EF3E0CF2ED12CF02D0F2E81
S1130BA0F5E0AF2EB12CF02D0E949F09B6010E94F2
S1130BB02B0989930E949F09B5010E942B09F80112
S1130BC081938F010E949F09B6010E942B098D5FBA
S1130BD08A830E949F09B5010E942B09F801828330
S1130BE0CE15DF0509F78091C7028093B7021092F2
S1130BF0A5001092A40085E08093A1006091B80242
S1130C007091B90280E00E94D7000F2EF3E0EF2E1E
S1130C10F12CF02D0F2EF5E08F2E912CF02DACC081
S1130C2084E591E09F938F930E94AF096091B7028E
S1130C3070E081E00E94D7000F900F908091C50270
S1130C40813079F46091BA027091BB0280E00E9415
S1130C50D7006091BC027091BD0282E00E94D7006F
S1130C6092C06091BA027091BB0282E00E94D700E8
S1130C708AC03601E501F601608188810E94A400E2
S1130C80882309F463C04880F6013080133040F0B3
S1130C900E949F09B7010E942B098D5F8B8306C0B8
S1130CA00E949F09B7010E942B0988830E949F0913
S1130CB0B4010E942B09982FF30180838881481284
S1130CC002C0391619F38091C502811114C06091D4
S1130CD0AA0270E00E940F048091AA020E94F50407
S1130CE09091AA028091C602981711F081E0890FB1
S1130CF08093AA022BC01330A8F06091A90270E07F
S1130D0081E00E940F048091A9020E94F504909151
S1130D10A9028091C602981711F081E0890F80938F
S1130D20A90214C06091AA0270E080E00E940F043E
S1130D308091AA020E94F5049091AA028091C602B1
S1130D40981711F081E0890F8093AA021F5FFFEFCB
S1130D50CF1ADF0A2FEFA21AB20A163009F089CF90
S1130D608091AA02823010F08091B7028091A9028A
S1130D70823010F08091B7028091B702811150CF78
S1130D801092A1000EC00F2EFFEBAF2EF2E0BF2E8B
S1130D90F02D0F2EFEEACF2EF2E0DF2EF02D10E024
S1130DA068CFDF91CF911F910F91FF90EF90DF906B
S1130DB0CF90BF90AF909F908F907F906F904F9007
S1130DC03F9008950F931F93CF93DF93009751F1B2
S1130DD08C01C0E0D0E060E083E00E94A4008111B7
S1130DE006C060E082E00E94A4008823B1F060E0C5
S1130DF082E00E94A4008093C50290E001969F9334
S1130E008F9383E691E09F938F930E94AF090F9095
S1130E100F900F900F9081E006C021960C171D07CC
S1130E20D1F601C080E0DF91CF911F910F91089519
S1130E30CF92DF92FF920F931F93CF93DF93609132
S1130E40B8027091B90280E00E94D70060E070E0BF
S1130E5081E00E94D7006091C8027091C90280E0CD
S1130E600E94D7000E949F090F2EF5E0FF2EF02D5F
S1130E706894CC24C1F8D12C11E02EC00D2FDD23B1
S1130E8019F08F2D8C1B01C08C2F41E0612F0E9423
S1130E90B20080E197E20E94E206811159C0CF5F5F
S1130EA0C63061F7402F60E083E00E94B200A601E3
S1130EB041705078552334F4415051094E6F5F6F9F
S1130EC04F5F5F4F60E082E00E94B2001F5F8FEFD0
S1130ED0C81AD80A163099F1C0E0D12FD170CECFFC
S1130EE00D2FDD2319F08F2D8C1B01C08C2F40E0BA
S1130EF0612F0E94B20080E197E20E94E206811114
S1130F0027C0CF5FC63061F7402F60E083E00E94C6
S1130F10B200A60141705078552334F44150510970
S1130F204E6F5F6F4F5F5F4F60E082E00E94B200E0
S1130F301F5F8FEFC81AD80A163031F499CF68941E
S1130F40CC24C1F8D12C11E0C0E0D12FD170C8CF8E
S1130F50DF91CF911F910F91FF90DF90CF90089573
S1130F60F999FECF92BD81BD60BDFA9AF99A0895B0
S1130F70F999FECF92BD81BDF89A80B508950E947B
S1130F8021090E9426090E9498000E94240289E1F6
S1130F9091E09093CE028093CD0286E791E00E9487
S1130FA0C509789484B1826284B910928700109242
S1130FB086001092890010928800E0E8F0E08081B9
S1130FC082688083E1E8F0E080818A6180832998E7
S1130FD082E084BD15BC9DE797BD80936E0080EAD6
S1130FE091E00E94C50980E090E00E94B807C82FF4
S1130FF081E090E00E94B8072C2F30E0322F2227A6
S1131000282B3093B9022093B80282E090E00E942A
S1131010B807C82F83E090E00E94B8072C2F30E077
S1131020322F2227282B3093C9022093C80280E153
S113103090E00E94B8078093C70280E290E00E948B
S1131040B8078093AB0280E590E00E94B8078093D4
S1131050C60280E690E00E94B8078093CA0280E44A
S113106090E00E94B807C82F81E490E00E94B8077E
S11310702C2F30E0322F2227A901482BCA010E94CD
S1131080A4090E949F09907899231CF401979F6FEB
S11310900196682F80E490E00E94B0070E949F09A7
S11310A0907899231CF401979F6F0196682F81E42F
S11310B090E00E94B00788EB91E00E94C5098091FE
S11310C0CA021F928F938091C6021F928F938091C0
S11310D0AB021F928F938091C7021F928F938091CE
S11310E0C9028F938091C8028F938091B9028F9324
S11310F08091B8028F938BEC91E09F938F930E9421
S1131100AF0981E490E00E94B807C82F80E490E022
S11311100E94B8071F92CF931F928F9388E092E0AA
S11311209F938F930E94AF0982E08093A000109256
S1131130A1008093720089E09DE39093A9008093BD
S1131140A80078948DB79EB744960FB6F8949EBFC6
S11311500FBE8DBF8DE192E00E94C5090E94180761
S113116083E392E00E94C5090E949D059FEF2EE94A
S113117044E2915020404040E1F700C000000E944A
S113118035048091C502811112C08091BA029091F8
S1131190BB022091B8023091B9022817390738F5FB
S11311A09093B9028093B8020E94E80220C0809113
S11311B0BA029091BB022091C8023091C90228174B
S11311C0390738F04091BC025091BD02241735070D
S11311D060F42091BC023091BD022817390708F44D
S11311E09C013093C9022093C8020E94E8025FEF79
S11311F08EE994E2515080409040E1F700C0000035
S1131200A9CF7098689A0895699808950E9404096E
S11312100E9401090895689808950E940B092FEF10
S11312208DE399E4215080409040E1F700C0000034
S11312300E9401098FE39FE10197F1F700C00000CC
S113124008950E940D090E94060908950E94040948
S11312500E940B09089597FB072E16F4009407D0FB
S113126077FD09D00E943F0907FC05D03EF4909514
S113127081959F4F0895709561957F4F0895AA1B9E
S1131280BB1B51E107C0AA1FBB1FA617B70710F06D
S1131290A61BB70B881F991F5A95A9F7809590959F
S11312A0BC01CD0108958F929F92AF92BF92CF92CD
S11312B0DF92EF92FF92CF93DF93EC016881798103
S11312C08A819B81611571058105910521F464E290
S11312D079ED8BE597E02DE133EF41E050E00E949A
S11312E0860C49015A019B01AC01A7EAB1E40E94B2
S11312F0A50C6B017C01ACEEB4EFA50194010E9436
S1131300B30CDC01CB018C0D9D1DAE1DBF1DB7FFC1
S113131003C00197A109B04888839983AA83BB833A
S11313209F77DF91CF91FF90EF90DF90CF90BF90A8
S1131330AF909F908F9008950E945309089580E084
S113134091E00E9453090895A0E0B0E08093000169
S113135090930101A0930201B09303010895A0E0CA
S1131360B0E0E5EBF9E00C94C80CAE014B5F5F4FC5
S1131370FA0161917191AF018091CD029091CE02F9
S11313800E94F509E2E00C94E40C0F931F93CF93B1
S1131390DF93E091CD02F091CE02238121FF1BC0A7
S11313A08C01D0E0C0E0F80181918F016091CD0201
S11313B07091CE02DB011896ED91FC911997882368
S11313C031F00995892B79F3DFEFCFEFECCF8AE089
S11313D00995892B19F08FEF9FEF02C08D2F9C2F59
S11313E0DF91CF911F910F910895ABE0B0E0EBEF47
S11313F0F9E00C94B80C6C017B018A01FC011782A2
S11314001682838181FFCCC1CE0101963C01F60195
S11314109381F70193FD859193FF81917F01882347
S113142009F4BAC1853239F493FD859193FF819112
S11314307F01853229F4B60190E00E94EC0BE7CFDE
S1131440912C212C312CFFE1F315D8F08B3279F05B
S113145038F4803279F08332A1F4232D20611DC049
S11314608D3261F0803369F4232D216016C0832D01
S11314708260382EE32DE4603E2E2AC0F32DF860FE
S11314801DC037FC2DC020ED280F2A3040F08E32CD
S1131490B9F436FC81C1232D2064322E19C036FEE6
S11314A006C08AE0989E200D1124922E11C0EAE015
S11314B02E9E200D1124222EF32DF0623F2E08C003
S11314C08C3621F4832D8068382E02C0883641F48E
S11314D0F70193FD859193FF81917F018111B3CF32
S11314E0982F9F7D9554933028F40C5F1F4F9FE3F2
S11314F099830DC0833631F0833771F0833509F059
S113150059C021C0F801808189830E5F1F4F882450
S11315108394912C530113C02801F2E04F0E511C07
S1131520F801A080B18036FE03C0692D70E002C0CE
S11315306FEF7FEFC5010E94E10B4C018201F32D97
S1131540FF773F2E16C0280122E0420E511CF801FD
S1131550A080B18036FE03C0692D70E002C06FEF39
S11315607FEFC5010E94D60B4C01F32DF0683F2E8E
S1131570820133FC1BC0822D90E088169906B0F4DA
S1131580B60180E290E00E94EC0B2A94F4CFF501BE
S113159037FC859137FE81915F01B60190E00E948E
S11315A0EC0B21102A9421E0821A910881149104F1
S11315B071F7E8C0843611F0893641F5F80137FE39
S11315C007C060817181828193810C5F1F4F08C0C5
S11315D060817181072E000C880B990B0E5F1F4FE1
S11315E0F32DFF763F2E97FF09C090958095709557
S11315F061957F4F8F4F9F4FF0683F2E2AE030E078
S1131600A3010E94280C882E861845C0853731F422
S1131610232D2F7EB22E2AE030E025C0932D997F12
S1131620B92E8F36C1F018F4883579F0B5C08037FB
S113163019F0883721F0B0C0E92FE061BE2EB4FE66
S11316400DC0FB2DF460BF2E09C034FE0AC0292F43
S11316502660B22E06C028E030E005C020E130E06C
S113166002C020E132E0F801B7FE07C06081718159
S1131670828193810C5F1F4F06C06081718180E07D
S113168090E00E5F1F4FA3010E94280C882E86183D
S1131690FB2DFF773F2E36FE0DC0232D2E7FA22E6D
S11316A0891458F434FE0BC032FC09C0832D8E7E9D
S11316B0A82E05C0B82CA32C03C0B82C01C0B92C8B
S11316C0A4FE0FC0FE01E80DF11D8081803321F4DA
S11316D09A2D997EA92E09C0A2FE06C0B394B39494
S11316E004C08A2D867809F0B394A3FC11C0A0FE2F
S11316F006C0B21488F4280C922C9B180EC0B214A5
S113170060F4B60180E290E00E94EC0BB394F7CF52
S1131710B21418F42B1802C0982C212CA4FE10C06B
S1131720B60180E390E00E94EC0BA2FE17C0A1FC7E
S113173003C088E790E002C088E590E0B6010CC0E1
S11317408A2D867859F0A1FE02C08BE201C080E2A6
S1131750A7FC8DE2B60190E00E94EC0B891438F4EA
S1131760B60180E390E00E94EC0B9A94F7CF8A9440
S1131770F301E80DF11D8081B60190E00E94EC0BAD
S11317808110F5CF222009F442CEB60180E290E028
S11317900E94EC0B2A94F6CFF6018681978102C051
S11317A08FEF9FEF2B96E2E10C94D40CFC01059093
S11317B0615070400110D8F7809590958E0F9F1F4F
S11317C00895FC016150704001900110D8F7809594
S11317D090958E0F9F1F08950F931F93CF93DF93C0
S11317E0FB01238121FD03C08FEF9FEF2CC022FF5B
S11317F016C046815781248135814217530744F42A
S1131800A081B1819D012F5F3F4F318320838C9351
S1131810268137812F5F3F4F3783268314C08B0186
S1131820EC01FB010084F185E02D0995892BE1F69B
S1131830D80116968D919C911797019617969C93B3
S11318408E931697CE01DF91CF911F910F9108953A
S1131850FA01AA27283051F1203181F1E8946F93DD
S11318606E7F6E5F7F4F8F4F9F4FAF4FB1E03ED083
S1131870B4E03CD0670F781F891F9A1FA11D680F21
S1131880791F8A1F911DA11D6A0F711D811D911D54
S1131890A11D20D009F468943F912AE0269F1124C9
S11318A03019305D3193DEF6CF010895462F47702D
S11318B0405D4193B3E00FD0C9F7F6CF462F4F7088
S11318C0405D4A3318F0495D31FD4052419302D0E6
S11318D0A9F7EACFB4E0A69597958795779567958C
S11318E0BA95C9F700976105710508959B01AC018C
S11318F00A2E06945795479537952795BA95C9F7B3
S1131900620F731F841F951FA01D0895052E97FB5A
S11319101EF400940E949D0C57FD07D00E94EF0C0A
S113192007FC03D04EF40C949D0C509540953095D3
S113193021953F4F4F4F5F4F089590958095709537
S113194061957F4F8F4F9F4F08950E94110DA59F62
S1131950900DB49F900DA49F800D911D11240895A6
S1131960B7FF0C94A50C0E94A50C821B930B089541
S11319702F923F924F925F926F927F928F929F929B
S1131980AF92BF92CF92DF92EF92FF920F931F9389
S1131990CF93DF93CDB7DEB7CA1BDB0B0FB6F8943A
S11319A0DEBF0FBECDBF09942A88398848885F847A
S11319B06E847D848C849B84AA84B984C884DF80EB
S11319C0EE80FD800C811B81AA81B981CE0FD11DCF
S11319D00FB6F894DEBF0FBECDBFED010895A1E2AE
S11319E01A2EAA1BBB1BFD010DC0AA1FBB1FEE1F95
S11319F0FF1FA217B307E407F50720F0A21BB30BE0
S1131A00E40BF50B661F771F881F991F1A9469F75B
S1131A1060957095809590959B01AC01BD01CF01B7
S1131A200895A29FB001B39FC001A39F700D811DB3
S1131A301124911DB29F700D811D1124911D0895D3
S1071A40F894FFCF44
S1131A4401000000FFFFFFFFFFFF00010203040584
S1131A540607080000000000000000000200000067
S1131A64001202000000003F065B4F666D7D077F95
S1131A7467777C395E797100636865636B6572624C
S1131A846F6172640025640A0047414D4520535434
S1131A94415254002544732052454D41494E494E08
S1131AA4470A005354415254494E47202564502058
S1131AB46D6F64650A000A0A57656C636F6D65206F
S1131AC4746F2062617274656E64696E6720726FEC
S1131AD4626F74204F532076657220342E3742008F
S1131AE4415544494F2054494D45525320262050D2
S1131AF44F52542053455400454550524F4D20569F
S1131B04414C554553205345543A00485331503AB7
S1131B14202564200920485332503A2025642009A2
S1131B242052543A20256420092042543A20256442
S1131B342009204D4D41583A202564200920425063
S1131B44433A202564200A0052414E444F4D5345E4
S1131B5445443A203078255825580A0A00535441FC
S1131B645254494E472041545452414354204D4FFA
S1131B744445005354415254494E472047414D452E
S1131B840001010102030303040505050101010227
S1131B940303030405050501020203040505050006
S1131BA40000030201010302010103020104030210
S1131BB402040302040403020203020202030201F4
S1131BC4000000C111D20FEE0E4D0DDA0B2F0BF7EE
S10F1BD409E108E8077707A706ED050003
S9030000FC
