S014000073706565644F664C696768742E7372656352
S11300000C945A000C9477000C9477000C947700AD
S11300100C9477000C9477000C9477000C94770080
S11300200C9477000C9477000C9477000C94770070
S11300300C9477000C9477000C94F5010C947700E1
S11300400C9477000C94D4010C9477000C947700F2
S11300500C9477000C9477000C9477000C94770040
S11300600C9477000C9477000C9477000C94770030
S11300700C9477000C9477000C9477000C94770020
S11300800C9477000C94D9000C94AD010C94770077
S11300900C9477000C9477000C9477000C94770000
S11300A00C9477000C9477000C9498020C947700CD
S11300B00C94770011241FBECFEFD8E0DEBFCDBF74
S11300C011E0A0E0B1E0E0E1FEE002C005900D9295
S11300D0A639B107D9F721E0A6E9B1E001C01D9224
S11300E0A23CB207E1F70E9478050C9406070C9431
S11300F0000084B1886284B981ED8CBD08958AE0E2
S11301008093910084E79EE09093990080939800F7
S11301108AE397E090939B0080939A00E1E7F0E0F4
S113012080818660808310929500109294000895D7
S11301308FE387B98FEF8BB984B1836084B90E9450
S113014079000E947F000895E62FF0E0E356FE4F09
S1130150408121E030E0B90102C0660F771F8A9523
S1130160E2F7CB0184230895442389F0E62FF0E0DD
S1130170ED5EFE4F408121E030E0B90102C0660F20
S1130180771F8A95E2F7CB01842B80830895E62FAD
S1130190F0E0ED5EFE4F408121E030E0B90102C0A5
S11301A0660F771F8A95E2F7CB01809584238083BD
S11301B008951F920F920FB60F9211242F933F931D
S11301C04F935F936F937F938F939F93AF93BF935B
S11301D0EF93FF9380919701833090F5909197016D
S11301E0E0919701F0E0ED5EFE4F8081482F407F63
S11301F021E030E0B90102C0660F771F9A95E2F75B
S1130200CB01842BA4E0B1E08C9380919701E09121
S11302109701F0E0ED5EFE4F908102C0220F331F84
S11302208A95E2F770E1979FC0011124822B119601
S11302308C93119712961C92129713961C9233C0AA
S113024080919701E0919701F0E0ED5EFE4F4081CF
S1130250835021E030E0B90102C0660F771F8A9510
S1130260E2F7CB01942F907F892BA4E0B1E01296A2
S11302708C93129780919701E0919701F0E0ED5EE5
S1130280FE4F9081835002C0220F331F8A95E2F7FC
S113029070E1979FC0011124822B13968C931397BE
S11302A01C9211961C928091970190E0019666E051
S11302B070E00E941F0680939701E0919801F0E09E
S11302C0E65FFE4FE081F0E0E359FE4F80818093CA
S11302D0090180919801811107C0E4E0F1E0858172
S11302E08068858314820CC020919801215081E09C
S11302F090E002C0880F991F2A95E2F780930801C5
S11303008091980190E0019669E070E00E941F06D8
S11303108093980128982998289A299A28981092C5
S11303209601E091960181E08E0F80939601F0E0B2
S1130330EC5FFE4F80818EBDFF91EF91BF91AF9135
S11303409F918F917F916F915F914F913F912F91E9
S11303500F900FBE0F901F9018951F920F920FB61B
S11303600F9211242F938F939F93EF93FF932091D8
S1130370970181E090E002C0880F991F2A95E2F767
S1130380809588B9E0919701F0E089B18095E356B2
S1130390FE4F8083FF91EF919F918F912F910F904A
S11303A00FBE0F901F9018951F920F920FB60F92C9
S11303B011248F93EF93FF9380919601863010F070
S11303C0289A0BC0E091960181E08E0F80939601EC
S11303D0F0E0EC5FFE4F80818EBDFF91EF918F9135
S11303E00F900FBE0F901F9018951F920F920FB68B
S11303F00F9211248F939F93EF93FF938091990110
S113040090919A018630910509F44EC030F4813000
S1130410910561F0039749F179C08E30910509F493
S113042062C08034910509F463C070C0E0919B01FF
S1130430F0919C01EE0FFF1FE258FE4F80819181E5
S11304409093870080938600E0919B01F0919C013A
S1130450EE0FFF1FE258FE4F80819181969587959C
S1130460909389008093880051C0E0919B01F091A2
S11304709C01EE0FFF1FE058FE4F80819181909305
S1130480870080938600E0919B01F0919C01EE0F20
S1130490FF1FE258FE4F8081918196958795909336
S11304A089008093880032C0E0919B01F0919C0107
S11304B0EE0FFF1FEE57FE4F8081918190938700CE
S11304C080938600E0919B01F0919C01EE0FFF1F49
S11304D0E258FE4F8081918196958795909389008B
S11304E08093880013C010928900109288000EC077
S11304F010929C0110929B018FEF9FEF90939A01B1
S11305008093990185B58A7F85BD16BC8091990138
S113051090919A01019690939A0180939901FF9189
S1130520EF919F918F910F900FBE0F901F90189590
S11305301F920F920FB60F9211248F938091B101E5
S1130540882329F08091B10181508093B1018F916A
S11305500F900FBE0F901F901895811111C08091BC
S1130560B2019091B301680F791F683E83E0780768
S113057010F067EE73E07093B3016093B2010895D5
S1130580813081F48091B4019091B501680F791F95
S1130590683E83E0780710F067EE73E07093B5016E
S11305A06093B4010895CF92DF92EF92FF920F937C
S11305B01F93CF93DF93C0E01DECDBEAC19F612D55
S11305C0112466956695CD9F812D11248695869577
S11305D0982F990F890F880F41E02C2F281B822F09
S11305E00E94B400CF5FCE3149F78FEF99E628E13E
S11305F0815090402040E1F700C00000C0E01DECB5
S1130600DBEAC19F612D112466956695CD9F812DEE
S1130610112486958695982F990F890F880F40E0AD
S11306209C2F981B892F0E94B400CF5FCE3149F7CD
S11306302FEF89E698E1215080409040E1F700C017
S11306400000C0E01DECDBEAC19F612D112466951A
S11306506695CD9F812D112486958695982F990FA7
S1130660890F880F41E02C2F281B822F0E94B40091
S1130670CF5FCE3149F78FEF94E32CE08150904067
S11306802040E1F700C000008091A5018093B101F2
S11306901092A5001092A40085E08093A100CC24C0
S11306A0C394D12C3CC06C2F8D2F0E94A4008823AE
S11306B021F1C601002E02C0880F991F0A94E2F7A7
S11306C0892BD9F440E06C2F8D2F0E94B4008091C7
S11306D0BF01811105C062E070E00E94AD020DC04F
S11306E0D33030F062E070E081E00E94AD0205C0DA
S11306F062E070E080E00E94AD02CF5F0F5F1F4FA9
S1130700C53089F6DF5F85E0E80EF11CD63021F4B0
S113071006C0E12CF12CD0E08701C0E0C4CF809169
S1130720B1018111F6CF1092A100DF91CF911F91F9
S11307300F91FF90EF90DF90CF9008956F927F928A
S11307408F929F92AF92BF92CF92DF92EF92FF92DD
S11307500F931F93CF93DF9303E411E00F2EFDE675
S11307608F2EF1E09F2EF02D0F2EF3E4EF2EF1E00B
S1130770FF2EF02D0F2EFDEC6F2EF02D0F2EFBEA29
S11307807F2EF02D38C0C69D612D11246695669587
S1130790C79D812D112486958695982F990F890FD1
S11307A0880F40E02C2F281B822F0E94B400CF5FBB
S11307B0CE3149F758018EE0A80EB11C6401E8015E
S11307C0699141E0F60181916F010E94B400CA155C
S11307D0DB05B1F7FFEF23ED80E3F15020408040CB
S11307E0E1F700C000000E5011099EE0891A91083B
S11307F08E149F0411F0C0E0C6CFDF91CF911F91FA
S11308000F91FF90EF90DF90CF90BF90AF909F90AB
S11308108F907F906F90089590E090939C018093C7
S11308209B0110929A011092990185E085BD08956B
S11308303F924F926F927F928F929F92AF92BF920C
S1130840CF92DF92EF92FF920F931F93CF93DF9398
S11308500E949E031092B3011092B2011092B5014E
S11308601092B40181E08093A4018093A3010F2E20
S1130870FCEBEF2EF1E0FF2EF02D08EA11E0C9EBBE
S1130880D1E00F2EF3E0CF2ED12CF02D0F2EF5E07A
S1130890AF2EB12CF02D0E949306B6010E941F06C4
S11308A089930E949306B5010E941F06F801819363
S11308B08F010E949306B6010E941F068D5F8A83F2
S11308C00E949306B5010E941F06F8018283CE158B
S11308D0DF0509F78091C1018093B1011092A50051
S11308E01092A40085E08093A1000F2EF3E0EF2E78
S11308F0F12CF02D0F2EF5E08F2E912CF02D90C0C1
S11309000F2EF9EBAF2EF1E0BF2EF02D0F2EF8EAEB
S1130910CF2EF1E0DF2EF02D10E03601E501F601D7
S1130920608188810E94A400882309F463C0488000
S1130930F6013080133040F00E949306B7010E9404
S11309401F068D5F8B8306C00E949306B7010E9429
S11309501F0688830E949306B4010E941F06982FE5
S1130960F30180838881481202C0391619F38091FB
S1130970BF01811114C06091A40170E00E94AD0216
S11309808091A4010E940C049091A4018091C00163
S1130990981711F081E0890F8093A4012BC01330C4
S11309A0A8F06091A30170E081E00E94AD02809103
S11309B0A3010E940C049091A3018091C001981797
S11309C011F081E0890F8093A30114C06091A40108
S11309D070E080E00E94AD028091A4010E940C04AA
S11309E09091A4018091C001981711F081E0890FC2
S11309F08093A4011F5FFFEFCF1ADF0A8FEFA81ABD
S1130A00B80A163009F089CF8091A401823010F021
S1130A108091B1018091A301823010F08091B101E5
S1130A208091B10181116CCF1092A100DF91CF911F
S1130A301F910F91FF90EF90DF90CF90BF90AF90F8
S1130A409F908F907F906F904F903F9008950F9359
S1130A501F93CF93DF930097E1F08C01C0E0D0E0C7
S1130A6062E081E00E94A400811106C062E081E09E
S1130A700E94A400882341F062E081E00E94A40067
S1130A808093BF0181E006C021960C171D0741F732
S1130A9001C080E0DF91CF911F910F910895CF9312
S1130AA0DF93D0E011C041E06C2F8D2F0E94B40081
S1130AB084E690E00E942705811108C0CF5FC5300D
S1130AC091F7DF5FD63011F0C0E0EDCFDF91CF9129
S1130AD00895F999FECF92BD81BD60BDFA9AF99A45
S1130AE00895F999FECF92BD81BDF89A80B5089515
S1130AF00E9417060E941C060E94980084B182621C
S1130B0084B9109287001092860010928900109286
S1130B108800E0E8F0E0808182688083E1E8F0E02A
S1130B2080818A618083299882E084BD15BC9DE719
S1130B3097BD80936E0080E090E00E947105C82FFD
S1130B4081E090E00E9471052C2F30E0322F2227A3
S1130B50282B3093B8012093B70180E190E00E94E4
S1130B6071058093C10180E290E00E947105809339
S1130B70A50180E590E00E9471058093C00180E4A6
S1130B8090E00E947105C82F81E490E00E947105F5
S1130B902C2F30E0322F2227A901482BCA010E94B2
S1130BA098060E949306907899231CF401979F6FEE
S1130BB00196682F80E490E00E9469050E949306E4
S1130BC0907899231CF401979F6F0196682F81E414
S1130BD090E00E94690582E08093A0001092A10039
S1130BE08093720089E09DE39093A9008093A8000C
S1130BF078940E944F050E9418040E94D302F9CFF2
S1130C0021982FEF8DE399E4215080409040E1F743
S1130C1000C000002998219A8FE39FE10197F1F722
S1130C2000C00000089520982998219A08950E94F0
S1130C3000060E941306089520982198089597FBB2
S1130C40072E16F4009407D077FD09D00E943306CE
S1130C5007FC05D03EF4909581959F4F08957095BB
S1130C6061957F4F0895AA1BBB1B51E107C0AA1FC2
S1130C70BB1FA617B70710F0A61BB70B881F991F39
S1130C805A95A9F780959095BC01CD0108958F924E
S1130C909F92AF92BF92CF92DF92EF92FF92CF9347
S1130CA0DF93EC01688179818A819B8161157105EB
S1130CB08105910521F464E279ED8BE597E02DE15E
S1130CC033EF41E050E00E94A30649015A019B0121
S1130CD0AC01A7EAB1E40E94C2066B017C01ACEE50
S1130CE0B4EFA50194010E94D006DC01CB018C0D68
S1130CF09D1DAE1DBF1DB7FF03C00197A109B048DC
S1130D0088839983AA83BB839F77DF91CF91FF90D8
S1130D10EF90DF90CF90BF90AF909F908F90089509
S1130D200E944706089580E091E00E9447060895D6
S1130D30A0E0B0E08093000190930101A093020130
S1130D40B09303010895052E97FB1EF400940E94AE
S1130D50BA0657FD07D00E94D50607FC03D04EF40F
S1130D600C94BA0650954095309521953F4F4F4FBE
S1130D705F4F089590958095709561957F4F8F4F43
S1130D809F4F08950E94F706A59F900DB49F900D64
S1130D90A49F800D911D11240895B7FF0C94C206E1
S1130DA00E94C206821B930B0895A1E21A2EAA1B6D
S1130DB0BB1BFD010DC0AA1FBB1FEE1FFF1FA21707
S1130DC0B307E407F50720F0A21BB30BE40BF50B04
S1130DD0661F771F881F991F1A9469F7609570958D
S1130DE0809590959B01AC01BD01CF010895A29F10
S1130DF0B001B39FC001A39F700D811D1124911DEB
S1130E00B29F700D811D1124911D0895F894FFCF98
S1130E1001000000AABBCCDDEEFF000102030405C3
S1130E200607081A2B3C4D5E6F0000000001020209
S1130E30020203040404040000000001020202028E
S1130E40030404040400010102030404040404046C
S1130E50040404000102030300010203030001026D
S1130E600301020304040102030401010203040454
S1130E70030404040304050505050505053F065B95
S1130E804F666D7D077F67777C395E797100C1118C
S1130E90D20FEE0E4D0DDA0B2F0BF709E108E80720
S1090EA07707A706ED052B
S9030000FC
